{
  "gate": "devnet-htlc-claim-01",
  "vectors": [
    {
      "block_mtp": 3000,
      "block_timestamp": 1000,
      "chain_id_hex": "88f8a9acdeeb902e27aa2fdcb8c46ecf818bf68dec5273ec1bcc5084e2333103",
      "expect_fee": 10,
      "expect_ok": true,
      "expect_utxo_count": 1,
      "height": 1000000,
      "id": "DEVNET-HTLC-CLAIM-01",
      "op": "utxo_apply_basic",
      "tx_hex": "0100000000010000000000000001abababababababababababababababababababababababababababababababab000000000000000000015a0000000000000000002101114e6996c2ca7a92918d03b32ba4b1114df8e9581f512da776779f751bf978ea00000000020020b01f4a6f9609858d0076051bc9c805e63559db885a8cbdb0ba899e7ab178fbb51c001900727562696e2d68746c632d636c61696d2d707265696d61676501fd200a75e65ebb797d61e82552ae3ed2d2b938e00caada9a75468d6f1fdae5866bef27493eedeb998127e11eae0837cfa06afb5b612be99873bd3b607480283574fa10b3e774d49067605523ddafe255f927caa0a900e786f88763086eb0f66ae6bd24e2bfc7b8427074076bd39d526b14f148cad6f287b3935da392309341dcbd2761550c47d7afc71ca0bfdf895ffe9367e1aea79797dedd75bd14b6759b863ce616ea0bf22c43e5b57275a148ee13908c8abc36c1452a990a6339708252b34ce5d4097e3b420b0e87ad77171fbfff45b79fea0206510840d3de2e1b3e58bce4c256bcf362b63ab27edf23020764950fcd72cb9357378b8107934f8f018524e3372eecd70e1d4202c011f0a0a7b8ce654e189dca990fdc6e28e069334d1b563f333528d9df0bf6d3a952c38097ffe6159c173df48b60c27339de4eeace221d100969159fc4075600d4f83432ba4a97407f8e03404300b2075264fca5edc06115906e4aff14997af47112fb436196b3d62977a68afab86a32bc5cec9f08974c589f8856ca6780d41d383bed692f31a28623f3b34d1d602570c0e32a4514dba8992b627688ded610567638c60e8f2e4a7cd29f7ec9081d662e5327c8acddc1de451496335db91e5c541fa8f31dff1271fc389a8be341dda92fd643ee5a56f06759ac1a135a27d49166e4c744de5fbe76759856bd3c893948bebe24f3e8d67a57acae8ec959a11eded48c58ff2aab5857bb56a34c6f6f27966138d242ae2dfa4f6103f4e0a2127aeedd8fee7b6fd5b3be6b7dcf0a8ca16a8846b6ce5535d7ebf7cdc438f4db21ec0d6b6ca725290f923a5216dbbc2bae8141f85bac499b64b3558a8c63aa3b759726385659a6f04dc616ec81e48c7e47cda99ae224ef16194ed212ecb184f84e74908096d7511fabd14ae71776b9f578d6fb68d67cae221fc2ed6ab4f4c76af25ab1d45db8aa402e5e7a92d111e6e31d80a76b4d107877867ca0941e6e448e801ef3fd1a92a1a0da85cf9b1c5b0c4c1f532240fc472fe0ab9e09c776a9c41af6d1a1bb3677caa86f62ce6d41e27bf6c789a89971c5c2d03a6756f2a4d3c72d9d4551b00e703b79257dcb68af08fdc9d3280b3257245f4e81352407a58f8aa7cb4b9994964bebcca58ba9c8b7548f3c1a243af23763d33750001daff0023d837827b320562df43b36e839a5d21481619e75b471ae8040ab3c3fa40b560ed7b594d09e9d5a352adb65e04e30f49c93615b66c991cb194467bee68edb9a631cb5931ba4b32521269e6dfdd94d1d402c443969c22c47cbe2c29d21d7dc93bdf96e0c2a0a0dd62ad3980760206ec601bb5a0c1df522e2b7e1e4155ce703a88facf879dd154b288f087a8c63ffc6a47e112016ce03ca6acf49d4c598dce98b7ea903cd1972a661798561ad76b61b176474b2c3dadc3ae44a772fa38716132bfe6ad9b93e1c48c24e79cccf38603fb3f578528b8c5a5269a0f18008063632952c7f16fb6e8a31962e62d02fa297251307eadb57cc4878c72e0778625691f86a43800199428af6865632a6bc47e56c622adda9b9954bc3664b991cf7f2d073e16703e76836a3b099c8d1c20fe776ebb4615871b4532cf6dd3ca88ba73207ffc381f16bf11a606c2d5d072962a004da6f315d3120f1895e82943fd9ed1cff85a5d4a92b804706b0f438a9dc5ac2cee78e623696f2b275e26679fd88a2afa7095589588568268f8d6459ea8a7552867f2496ad243d5306704f902b201deb846f185beaf41b869eca03f7316bdcfbe31c4cf7488f95d329ad6dc29b713e4efc9875cfaa188c287a87f92b020c42eab34a5803f2023721e9d10a9dd80f148094f5c72f7767609e9057ac46877524d47beea1144c43d1daa857f2d01c8fd7fbc5e63befc0d6e40efbff2b9d3ecf24d00713b78844545f27ecfc483bbc23879dcba88e9c48c0f1f296739ec4a8b5ece42b620ca084c192fbe25139166979b1ec3864d1c06ee2a99c87586cea419ed1c9dcd68ab66db71af8296e5c9eb0ae83b79ab5bc50ec8760e2183a2f1293927ceb65b9465acc039c8731fe6daf6503ae3cc15e4038f24cb64bb0afcac3bc9fe91f6bbddd9daec5b10c679b4e2e693964269d75e78849310b49b8b7bfc19a1416e1308df7424ae5ff2c22a1144b1fe22e41dbfd42dbdcc215cd72151cd02dedcd9c38cdf463921b83400200ac2c0dfec1d81ab7d77f3cce53472dae682bed1ab5cf2bb6b5421a8aab7d2c8de80c967e9046b40d9891ccfc2cb7f2f883e3b5ac7b2aea84e423ea76ced20e2fdb40e8e4028610d51a80a0674cb8410f57b2b038ef49135e7ae7b0c401e6c41788bea96229fdfeb36c6b457f069a5ee4197cbc3bc57d7cb22d552fd76ca95102c56ee66a7c9ae872ca4f02c8556f8cdada7fa94c950ab4ca357a49009e99e00e1ed3f81fd6e47adc0ede7bf5dbb5f1f9e3401e416cd33264e8ab0544e42f7a3515ad0ad61d89d9eaeb1d4834d968db7e5c6ea21b554a12c377da183e47cf6aa8d7e1e8aa531d92f373b1217bf1988ef9df219b8fd5fa752b3146b5d7a3a8e17007f63509b7925c78e4439389bb0866beee5006e5f2147a78b985d7fbb278d5a27aa1acab959affaaab95eb2f3a0662969c1e644ba14d9495fb6718bc8af12e0c56b98639a86946f19d3e2b6e9dbb8032c2df697078628b5f9bf0d68fa9bb6c6e5a2dbec8dfaec92512a80b5e5c59bde7d34d4bd1d67755f40fe34ff8dd8986eb1ed627df6f37f84f57c47a8772c5ca2b61401363f7896c1c7606da3ccd9b1f684a9a9b696811b9f0eac75e59c5040a54178eee5f065d7f86001da1738652bccbb9c3ba1948ea399831c0485e20b8d6ea7d8d4b590a72a49a7e5b0e2cd1c217f1af100823fdac56d4fd5a127c406184feb8e7cfdf53925a0645346f5799a2cc1bd321e507e890db9e4df0abaf072955cd93000aa3ebd5ee7b68139eae14ecd34a57ae1a313d89ea19eea45cc9b3caad5516d862c8ccd12feb73b2901b38269b7c5655d396cb4a4de0763570da7450e729859c396b6aadf640fdd14cfc66895e8511cf8a430a60f4107767354d7772bc8254529faf1aa9bec24c7c0058a7af024331ef88071e37ef780881b3bbaeecc2eeea61da8b96486c6a370d3eb1239cf93576b8aa39a8de9c2e446cb7e2d9c4dfb03b1197b5dd6f04dbea7d55437c9c326c0b8142d0134c5bb471fe382e40ee60e7ced915480a63ce0b3fb50b23dc7314c516d7244dc91feef48597da837ae509f354af978a52eed88dc7c2e82a59919308b70e25c283c601a59142940ffd8e48d65abaa3de7256b8602b04af0056d2ad40fe5be978c96452459ac410b3a8bdd6052bac6ade915776e28c36e2df8836f6bca14f3fc4bb20dbcfd1c15a02c7f8a6cd86a0ee9053afcd4e557d22ce0a1abac9149d29468fa539f2f645b714d83ac1954c477384daf2e0b13eec1dfac29c9979dbc4d38cfa123d2c8faf1ec1b2b0f46dc3681518a035549e0f57f75ee747c64c3fe290db269759989c4dd9ad712595e09813b85d8d5a85d092996ca661568772e026d676da0a4504b79191cbf1753d75980bf45cf639006b2034a207cba44e9a7680304402f52fb84cf4b791c6fc72730a696fb72ff8e13ab265a25fa4093b2632700bbb240dfcc985d9fd14127e3c362b805adf305cd75bf0bd84e74dd2e9ba1f242b110d6d783936e994669b69f0b4e610bca0ce2998b6fa0ac9cccc37bf67d4dd2e9daf8442aabd940344e2bcae1dc7838b235ccfdbf211f11713a5b0d935303218af789aabc2541831fe2cc4312d44b1505d048839966ba16fa7ba1a69ea4481187ddf0f2d464601a7fb5dda8e0ea7958c9e40b9177becd53ca8675d56b7b950063465c2801b9bfd7c7d739cfe8cdc2bd08a5b1bbae5a7caca71deba033160ee12e324482da721c7dc04fbccb1da82a5d9f4f64eaf575a79e5a5ecc6d9b40b09076b5defddf9cbfd27fa682770b0454404ae9481e7565a3f0a9995eae20f84e5cdf205cb4872a4bb31215c447275fd376d80f8d3347874c170450366718c609346d24f094d22a42e9d6e654383dcf071035d657610b49f40ba094097b970afa0f7a1e39c3f302297fb5a7f5ca91b96dad5d7563aa4ea41eaf5d8f2a6c17a3c5b341a26be71adc0309e91319deb71f2b56c3252b38814abc6ade941a3de5e171ff822c5766d12876b78578619d56126218844cda3e4a488c455fbacdc086e801870f92a71d463c9b03ae07769700e7876a07d6cf35f29829becd8e3ac37e4b255a6e3a0d72bb2dea3ccf27bff7da14896441c287443287f31f0b8e5433ea3ea4ec6bf9c9eeeeb1a713b1f94f8c8bb5792b30f8b5578551a4a14f874cbab117aeea89e70a7095b3e2cfa6312d03f75162652914a0a0463cc6a4fcae504bce9adc9d74b185d8f7507510ace477314eac0549797ce3f527072cc1a3babc5147cb51d3bbf4737bf584119327af8e73572329412b78dffc625f5f7cf813a5017193432172516da524c00ece48f7471c146fb24b2c5a1f3442f334ccd8de6c21de095717a2865590500afd78003212a439dda5bf35330297e59168c32875e60f8352ed2e35d9d314c3c9bbae238b81a9e26ccae12c9392d468ba4147c9b5a11e4cef05fe7bcb1310270ca401be775f16f2bc55736b924c01edf8675f542bea201c3d2622290ac0285f15a191bda1342b3fe65f76b5f92edff376e0a10641c8e939821dac365a85d55c913c97eb1a24db98c81929634d70904abe5fa3b78b8a6f15118d299c07269a5e7c6e99d29e909c45dbcce89c7cb191e82de617282d57002465fb098c2a8ebc7693263521e21fd5134e87f74aae2f8ced76734830c6f6e9e26ffbcec50fa07cdca3368d87a0409d3821143cdffa123cc745736f47586b111f718818cc97f2062eae196a2c1c7be0b66546ea69b0f3ea12d7728c3ee55202c7743e635b1051e31ce77f18bf07c0d3bc375c9739100ef2b019250ea6c05c021fa68cea45b91574d0117cf0849ffdec6f0e116bdfe9cd9e2d2aa222bc2db59c8c99f6299fd2e185169262f55fb6b204d80c6860bbd754b4226a0274c4113194736db6b13531350a79e66d8e70cbd507c57398f20ea1254b86fac63da0b4f26bcc316d2e885f2ef5108ae90853416982803d50e4264a8ab1ab10233e69345a035fa91a6f20d7e5e4727594e9459ea714a2ec1e30f259cd1346fdadb06d29df218b515adff1a2e8fdc163584c17c865837e24219ca6eacf47156116594ba1d7ae17527aa288b838a6c314250d82fc9bfc4ef33954f8abd0d0f6c0bd34f08c7e5a7d82ba68450b95e19d91a68c342adccf5242aaed93b933bb80ce48cb45ea593a03d00751f689ba001f6a0c640630d924a5f25540d3ebad5e2f51f35c5c689731d20b5e4dd31213e9a774ff1e5aa464e90efd49b30ca38068d87d0516f15c3676c26716f04932385307dd7cac714c86875de9b7c7e7b1c5139db8330944ecd6920a52aef8959f30397dd749c868e7dbcf2ac0f962ac1bf0d2b14299984a9c648fc3b9984f49a75c20f0f558878de37702d5cf62ad1332dcd0d3cde478210e5046eea830ba8a3df6da477d251f93987f6be0e0f2482d83da3eb4f15506ef1dc23710b64830201847d53ab84f8259f07807bda981facf42b650fb276aa220fef21a8d8d18ac5cfc2c3cd071f71b37a6c35d4286d4394d743eeba413953218d55497228b3515a27485ecbcc40f53ae6cbd0c07c420e48e75ae9efac78ff8fce99859ae253e6fcbb461ff886e451f834e9b65121bf1a7c46d13c1f8369473c0d7afc0680945df4c13b13577b5dd8c2c1655f06255def9ed14a07e9c4c095f222060f28f28b96e0fa8f41eea31195369016898942733bc31c9d5835aac4e09f4f42f14e7a76068767dbe0abc259da57376e70d5e7129caa1c4b61d2e7128264a24a75a4de1d7ce942058388ef7add797474acf0dbae6c12962a5ca0812550d87722edbfde9fd2a2b6508b13e7fe1223467b0856b760704ff8d035abde42d1d82ad9cd79c8b61f425c6a803382aa0c84febb6a69f39b865a3713f39affa4cfbde172182a67284886d6cbf3e516bc7dd49e3b2179a91f2ea8cf649d5c68780dbf944d0eac2ba73084b0d0db9b4c4a4bfe8d9467c4e7ad953a0accdfa5d41f82fa5f110bb48ab28282d078faeaed0f01c15c6aa8e59674bf7ab5b779ba4572d1b56f16fe34169d3b4a4e4f6de909f469428479fd2eb3c14bcefc07253cb313eb44eed83ed0c71671a0da961e2a777c34156b94d80e6252f091ffec971bc4665fdcca78fed95028e97a70954bc012a8299cd79ce7068c4e1356b6f56f8b92b80aa6db825a2dedf32b00d90c2531146ef74d783506088e6fdc349f1f21efb785f85ddfa22152edc829e616294547a6b1c443f6b6f902d07704ce2922c889355f7e94e04d21c553a93ade86ffc0b5df02ccf61fd600f515367babfb8f65bd9d5544cbac041836cc986d4fc419bf3942715cb573529a9be49f1ba81ebcc77760c5e5005c5fff5e7956854d601d9b93ae732aaee163204ff3f30f974eb304c3e1cb31bddbb9f81f1152e934a426b03a5256ae50808db3d9949df221dfa0199fe25e6248a5956445625a1083097b7f4f83a39f29da10d27986cfce34f1fb62d07dd6aaeec06de00af802928d0332d7e33e9a5f6f254c9fa48c30fb253cf90e02036466617f7c6430623bcb3e140c6037a582ca289de1e2eae96db93c3c52214160acb14721045b036373877175a7dc4962c4674cc013ade47fe71337a3ff4370b2dfd7fe4586df555fcc49841b3cec2baa144d0a365108eedc3e76a6cc997e877dcf5032e6949964d3c55b2a8093338f99f1b0034cedd9a9c0ac346f043b5c52fbfd4df4221b1688a17ce8c48dd0a9667b2ca9daa44511c0136b1df38e90f4cb56046bafc31db0881942a5e9d53c8ef6cafaf3a593ebf338270c658e4b743d6b7fb57a1b65cca925b607507ca8e6076008189b44335b04fc715023eda2c7e2bf7233abe361b842aa1acb7cc334fa098e9ad4eab9737b984af94aafbe3731bdca437adc9a0bee589dc373ebca5d1dd59b3c5eb828aea87735cee479d6d637b82c8dc4302be08b96201c8b90c52594d03f6e4ccdc4506f3f00fbf53e781f5b5473ec16b60082a85539fcb06d8a823b7ead099e8315914a9b7383be26e14de144b29fa9079471e70d3191cb9d0c2a4aa583617e767fbd319a82a228621613bd9e131ced3382efb2e238e8b6bd6da165ecf4ece91303784ac243bbdf5fb9c29e9438fa51b1cab2e638913e9858bdad7f14d10fe3219152797fc7069f76f8ae3194caac0c57a573cf139a92c74f62347a96c3725e07e61e7125f1c5fcf629dee40735ef2a2453c3f417abfad497d4178a0f4211fbc063cec5389ca71ad1356abce6a38414c5850e40ee5a47c131ddfb38989270c8961513bfcd7b0802a1a5c9fff261895745462a2a0efbc1a66fcb30ce1cac0ac6e072dd2e14ee82183f0ae45035a6b147cffad0ea7d4dc06fb94e8bd09386c998dcc8d6bf4aab518ddd1ed85b4983176bc9e3eba436b155b4bcf01e225e1e254554fbc08c0dc28b1133986b33f8facf2ea0df6a28bccba8b0c4df00873d337ad4370740166be3a5e3360b5fd919a48b4f5674ab678874d7d5ca4c09ce5c068ce6c4c7cc7e03b9dca384d017724a1879047285dfba014083bf2d711811f4fef7cf1fad71c56aa70cdb1e76b46244f1783ed30961446ac83332761f88e4063a18b6f8df030d46e6290d08479d716ba029235785ad9187b3762639d9f0a0492458a8119c0d7acd2b0f213aa46ea6b6c23e2de931a0b45a03f0b4b39f48a75034e0ae5acc6907b3ed0578c5420dabc83e4e434d7fd1f8292e64fa5f7ed53ea3a67126cf81e913cd00c269e224c432c83c9e86bafac235fdaf1fc91f56d40365eae9c14fe1755bd1c9f376910be286904938ba569088c95afcad9625af638e041f7eafff17da4ef08cea01ffda09cf598d4db0c62b9b48ff95966719151423d5c650e37887198268442b1b7d11fc7ccb6eb3472c4ce6361b8871fa56941742b7c0d39afdfe03de485249f623cb650ca34f0e0f32c52cc551ea6d52b7e25f46d5591f3ee113284fc98512d5e1418dfc228f803751c5b996973cb4ab81b0ba9b3674ef1fad2c866a2691fcf0a5f343fa4f936107440ffe8f064012973b8c58e4e62e364b9dc9ffa7584785c657fd6c5ac94db53f0adf4f235c60b0e07c81056249f469e21565e7b98e1d0ce26ed6b6ef06d32ed7894b9760fcb23532f7349e30d37a09d64fe2861242a4f0a8a8e691c8ed85b3c8d8b41167fb3db6c3cc4b28a4d0a3ba9b2b6808724dbdca47087e38f55166199ad1a575392b866e49b69bf989d3bc0945b35e294b3a9616126b7b213e3739b968859f567b795385ffadc4f6eb1748264f32e283ea224cd468ed8d133796c7bdc3e404346385eebdca2f232664ebef5038eb8d783c201d99c31587f3002e2e0f0ce0072054efc8685af79dd493c510c2043e01234b1cb93b2054db5fb5dabfdd5b906a181201fc569c4580029922f0eea6d6ddb42192fae999daaf213e2e932bbb883d9e10cccc041a06c6a61ffa61e0f1473a4ebc993b43831bbf583e1e730589662bb2514ea530f5f7b075e80ae05e8b22a4d981d1f78027a22e0c5876d64e11c11b5ce1903d8c40c4c24bbabdd83c1ef55a7ed8ed2f5fa007d27902530bb540167a591f671f7dde44a29887e155baadce8dcd6d30de1c9c72e95959ea06752119da954cd0ca442cc721cccbcf7af02b403d1c9be49240c5577a43e18df5a64d03564f2f08513f26a1054de70e2ae8aa4eb65b690fa816ae01a8bf4c0a6a322fc3f6d4849003e07dcd75ceb4b7153d5d658742418c1cce4d7ffa1634c7d1111b9bdccd7d2c72ba83f80c31ee376cc1c861c96e7b88776d4661da9495052d2ffa7b4009aeb48685857a942e8025ca4bce0cd55456ddb02eba2779851fea434ada5c8cc54f90b13dd5e25f53c5c5b7b04aee1f7602c1da3fa8d0dd375b37426560e1670732dbcfbd4841d4b15e61b4368736b78c86ee6607691bda576900d81ec7261d9a8f03497727cde7c5e1a282d7d75642345167ca9c1f5f1bccf68b1f88ea91a7a4addba6564f652d341657c7bda290a5999343fbb199b7284cdfddaba85964796bbaab4b60a3d348a35e2a430ea529e33167d8e127077582b77ed11e4a27b5519c6a26069c1ee11666622cb61f6362855ea2b69daa3b76c77496f3d5a248a1fae13180b4e88642a82eb804f68ed2a309b119c9ae91a92e7c410bc1f8b2cb32965d7bf385e49e12fa150ef381c8ead1b5dcd21055550dc972232cdb49209265edf3ba1e84ce0efb7e13537642c05e3bb2f7ee27244881190e8ced99b353ab687fa254eb6b4b0e38fdb956c33694522d55cf84fc7aad6516938a68681f82aec71a0b7d27a8e795ee9488d4ca971c3dd3411528622d650cbdffd249398be831988ca0558e355332aa35f94ea39762586e8ec4de7aec9556c812003e675dc9b86991716aa3aeae9a0f5745afc0cc77c0377b6f9fd70150b13fa08abf58a7d029760e4b10b5ab7927f05a55f535744367986d7222b0c8cea6f7136485be36b23846de97695e7da44e698fe2cc6e31778871821456ca60d661d3ab2a841fed34cd347abb67d7e507e2d59e773e69f86f93e9fcf8fea390a98ccb6e351e30d8964c67d66dfed292a01190437d73a23efe47b8b9a89ce99eb75dcb9390fe2c655c6927284033c77dddd11f0563b9adacb238713a2ebfc550aad264a1dcc80d97198ba1859bbf9fe06db2e7f705f84c2599143cde83655d586519d854a8a6fcdd716b00344915fc0ab5e42eb6a18a5e3ee40f9d070e1bdd5cb1bb0c56ef3a96ab893e94f5e462659137fea424264bd6db7ff01b06219fa064febb39cbb3be98a8930114e3a041b13f52e8e5236b7042634fb54941a0cd036664f17df95651bbb9f18ee374282f8fdd0452fbf098bb2cf43bccaa2cdb8d6e40467ff235c49d7c0e1ea5442e802d6069c5bfe3afa046b01f2c7507e9eb450e2234465c7015717993b4e8ef124bb4bcc7d2e31f23395ac6effe21268487c3bee5f96a852d4a589092bbbcfe000000000000000000000000000000000000000000000000000000000000060d141b2023252d0100",
      "utxos": [
        {
          "covenant_data": "3e13ed137e35d57c3a631f6f0e3bf0f0b6a037f8f82fe3c7f6e23674bbfc24c701c409000000000000b01f4a6f9609858d0076051bc9c805e63559db885a8cbdb0ba899e7ab178fbb544e844e63744653169668ad1fb71ef7fb18a22b3cc9c8e35d19bbde0cd46d332",
          "covenant_type": 256,
          "created_by_coinbase": false,
          "creation_height": 0,
          "txid": "abababababababababababababababababababababababababababababababab",
          "value": 100,
          "vout": 0
        }
      ]
    }
  ]
}
