{
  "gate": "devnet-htlc-claim-01",
  "vectors": [
    {
      "block_mtp": 3000,
      "block_timestamp": 1000,
      "chain_id_hex": "88f8a9acdeeb902e27aa2fdcb8c46ecf818bf68dec5273ec1bcc5084e2333103",
      "expect_fee": 10,
      "expect_ok": true,
      "expect_utxo_count": 1,
      "height": 1000000,
      "id": "DEVNET-HTLC-CLAIM-01",
      "op": "utxo_apply_basic",
      "tx_hex": "0100000000010000000000000001abababababababababababababababababababababababababababababababab000000000000000000015a0000000000000000002101f7b732aa2585a27c8991bffb54b62f337ce432bf9668d6b48e12e2e4424484ae00000000020020ba2b2fe4a64b4ad9d1cecd1f4344bc6bcb2e3465a33faa3bf010662b35bd56f01c001900727562696e2d68746c632d636c61696d2d707265696d61676501fd200a5f53665ae532c47ae302a26f4849ba200f5490c3c9b4d6f162a177c5789ca37b99d205e09c697781dbf05e906146316df45f992d78981c1fb97f97dab3c3b104f92770ad17d79946694e00cc8f2a69ec66fa37f5b9265745ab078395f6d4127d7b6f95bbec28621e1c0783f46123c774dab2bda58915629aaa0891a97832cb6ef4e01afae1d53cd2f5fb8efd78b8eb534c3380952c8e4ccf89ce5863ec6a240481b7e1a958f8cce5f4ed6d3bab3b6850d7fa648a9ac099483813c7c7da95988a53d31d6d84a6ad04d00f383b555ba61359629c574bf1bb620e2cc3e60d9bc2efde50f57958c9641cedbe151b7e114ec5a9306ffbc2931b8d2b882d23162c78697c608c65f33ab9bf92583b5ded48f4b78923caa03683bdb45d7c8f9558e3c062bebd008cd0ab912403f95bd0b050bcdebaa85df87a6c6d34ede09062a984c16c6f39119c4adad76d47430dff05247600f2223bc98dc2fac3594e761c12c3ae982073b2c002d10b761e86e9fc5a71739974419346d6a4a214c5c108ff8e0ba40191e89cf88e0797a87fb84973b66d721a7f1c6bab60a10b9a79015958f30a84d92a68406ea0e365256139183c831beb98a59353dce1752d9d85e53d1a467f543dcbab2ea7a7c7aa7efee9a94285dd8d4012f65115d928c254cb939043081d066dcfa0d37e430697d958fb5f558d3dd26e5211a6d0081c16036e3311d6a02fa793fef4e27a20a3dd631f345e3ca4327511217702661e07322efeccf0aa807e745586b5676b1cd3cff43bb29e0dcb4d03eaaff56e7b6e517f9f428260f838dd4b338f7e45bd5d2dcc6e08ff01ee93c525df65ba938625cd135961cb212ffb5e88a0838c0ea6c62a4febac4eb8bad7f9e9d4cbce830170803c252486e41456fefe892dee184953f0121925a44ab74d951e895bc56693b925d4fec11e711c1c9e58e28ee4c21ab20dce374c78d2175fd701d183e07f7bc0f7c00569ba712dd3088ce45ef35d8c1b1dfba36a8f81c1344eb360ca0b48afa034f8916cf5754fd8b9efeea065dcd4111a2c72c8340b849bedefc5f8481747e3091ec2fe296844a8558bf942601b1d4918f48bb3eef2e419cc175c99c031ab58c7feb40c2a041c09c4110f4cfd96e1974578ea53e218e8d0ba06d99e6d19f29faa710a90b9aecc403decf56279341bb4c6406dd3bead95293d7acade78ce881aa8dea431a9c4137329bf8efaa5846008e5e49d47df63520fcad2d9223cc0dae2f6d2aec397703808da6ff3a0b35d0eb0e405174208ef2a932bae6fc560a3d294522c130ec7212e4361511918beb158eeda5faea6bd0a467b4560032ac6a58cf8e8576ca84993792416d87f2f3033f9754979cc59d3ba97efe7c7573e238fd6ef5b38b4efaf8ece13af5f361eb35e426661f8cf281e0676122f8154e36e71de60499c22d5b72a6afbdade7f21dc46d339371ea0e4d8d6864a1f647aea77745ab7bbf701e761be62487939c4793023ebf73bacab5a83c33ab50a03eb8c835e2cc32f6c1317c7963d1a75df81aae1b26f296032658fb67b46ba35b93ed62b4ff7d496e1f37ba5997ede60b15d854134dc1f9feafaf28fb3f49ce1a7b90f723f6749a01a11c291b27125e923545f66d7dcaeabab78ede46b7eb62ea862a3978b2b7c7adeeb3675619ef4dc4daf968e8eff0f72254ab16413e3a564a8825b8ba4c050e9c38d55d2e978cc80a7c94ff497ffad06521c3ebf3694c1a2806b8db2c47dd5c46eca56f177986c082dd6635da413015aac5a93483d32186c836bc251da71d0bdd416c702abe02935dd3ba9896f4f4586921b13b2e061271cfd8d607901e0652f863abc807cf6e22714e554a6b990c55051a87ff1d6c8256cb25597629c90b00d041fe19878ac567d9f40c151cce7c5436d267b596a9c2b28fc008f5baa33e50e326f15386fd201fe87ea287ce58703b2bdd1e1f579865c5cb67767a2142c5bdc2d37288ad428717975587bdd2a0cd205390f375b36b68dfa0e446d8e16a5eef06291e820a7794c9c83599e19bdcef263692408a1081a28eb73ccae323d69499931a36a3edaf0451728c7f15d30dbdd7857a3f6ec8c9827c70f98dd35709fe7cefda1c9749a5083439776e8e11fdfc1a646514e49d0a69a4cf256fef5681be2586f988c02d66f32a093e12c7772d259b53862bb49685047f4a0beb24d81b05efeba28a716d5e97a116ade2269006f5d7ec385be4d9a444cef67d417297633dd0e7e26b6e91f95a7125d94bac770052c9bd26e098e470ee271872265bc8a3f80af222d03a3e6a9306a0b0cb5575ddf6c702d4bced7e88d30915e640b969a8e3ceaabf8fa3784dcb8288211e3723ef027681484abf0c63de1d3b56d3a6a560131502110466574eb6d06165f375f3192fc4a7356eca6b437a180832658f9b162460032d093747545de65321adce0ca655369dfcb58ce29f4e4a75c6c12b2071dc13a27e10f18deef8c4af89d407a73391f6ef91ecaee583c750af3d9bff80bf5ffc051d832a8451f98456b6862a37037dd900ff45fff8905a7a500ff23dfa6a79a25d2ae03b9ab436e82dea91b32049cff368f95f087289d57479bd6c1728b0bcd2468babcae1571a1cd92e62ac2046a1f1bbd2b13f720934beac5b968121e87435f2d38110d94c8fb5057cd9e08867d3255ca57d3910d1a5ce8592a06b6a2bba8d87888c92589b901c3ec4d800fd571b306c3f80e1ac01648507abc621f78118c140dfdb05718e3c1dcec288bdead1a0b0f71767b31b282ba7019e46a71b8dbb7ed2db880961e4a2a1e13b50ab2ce8a7a3973f905fe2dcf28a7758da08a92e0724c979478c3944d5897295e8a607c505cd731f93e9e21197c8fa78d77e799c2742a06b6c6673348bfe2b7a2c67440ebd4689e360d7969ebcdc7ebfc8bbd619adbffd747961bd89be5a420fa5e7f05c6a2cfd5d805cf25539f3ce6f7174bfc29be3027cc7dd3cafc189b4ec91b7c2fecf46b30ddfd4396cd7578ef3fa8f46c772adf2b39ef27c2b77fef7331bde665435e5b9353208695a4ede92a47e2ac74150078f0206e58474e733c8ebf160f8bff78beed29159e46ef1224959f81de958740a605a61025a91a2fcf9631a929dd9e41344f5aeecb3ee4d2c07a5239ae860ef193c7cf1a00a0c849c36f3a52240a083b8c1af2b02a500ed5b3716592be62d03445f545dc9638985b8033acdaff992d6b61fac532079b60401de87f6c239588494a233dcf250a82324b718c8cc6e10e5c6c05cd111229b8cbf9b69bda27817f81a46f1b81b9dc3dc2f893d0ec565fd3f3fb501d291cb77a0e0078d979aee864c50acfbf5914aa9374b3ce71347d11345a51bf93f79505a1c972fff0898f45780bc3a315607fb84b954cb6708ae0793a24ef01a7a23006ae271ba60aff1d316fc687cc733ccacc38bd5aa8b735915782931281a0446309a7be78623aa2f3ddb30f91c783aafd95a0aa3a1c72e33d76305f93c66bede6e373bc2f017cdb04f1a761a0a789f540886eca4a2c2caaff79f46b1b558e6c8629264389ae9da88dceb8a4e9880c2142df2b2a1a85b1e8dff40d33b26221c269ef6a72b0e0336cd8fe492d538d6ba88aaee2cbac1da0ab2c1f6b958b843978131b4d9d8ece66ba62e089f617aa0cc7af8c726cff0c41fd1412da1935cc32e5e6ba0b3612e6e8d2989364f7eee988acca70cfbc1c1d840c17956b06cf787d3b14e35ea2e1f1673870254ed8a2d23a7c08ce2f54306b6fe953d8dcde5e5bfc56206244c926dde52ecc8f31e8beee150a3f0f609d940e7b2e7135a7738008699bad25978c627b1ce7a31e051eb24575daa788f03f43161767cd7bb1aecd7d814a5e77eca98f1eabd998b2f5499f495eee47e4dfc66de962fcda8b8ba442c340da8bb94702f3e3f9a32958d0ad88c052d9eade096488d4f4107dcaf5e435582b9e937031f5210f65826defdf5be03772a0cfcdd7f75cea518204fb235786d619e4f0c2a3546114269914f839de9598259ec2069b13349f5f0085a2ff0570b50b730246d6a61755f4fca69dc5d9d8aeff28c34eda7a8abcaa458d3c0c40066c90d5231f0c74f3b8d5b3f628ccbcb576fe6e6c2fc31ea266e5659f78cf0a7dfdadc65995015b22d357c4170f9da899cea8c6cdbab788749b71dceee98944767732a7f46715fd8c9cdb0a3a1d7eb44e600d2235ffe3e376734089b0544d6ccc5b5d6eb6c8402489336aa32d475ddf62d191df3915cad3fc3cb7d6e62e0646c46f198759ad16cf093e8094d038adde2540e4996e928bace55f8955d6ecc5a32dece3f5162d1aa8fb248fe52a2d201fd3fa19e52b1a53ce25abc0f492119b934136e14928460d9b8c6aaf9c67b8a2e59d65befb121cf92be18dedab2d856131773d511f4055d56c6b23198aa5ad7a39f7d684bbb2f7bb09efaaa7feb0a4d1a57b0a07811a8366a3e4ca7ee40ca40d3a8c6c6922384454f9a1e8baae2edd8096c84ff2c436b0b9da923632628b248f8dc8ad084c037b304e14d0053e3e3de403e2d17abd5fc167c662f59b7d20b44e81c494aeea074bee82119bc26591bfa5c3f0c5f28ce947141624f0ccc3a4ccd85c3d8a3db22eec001ae7835d57312437bbddd624aeb54fb8643ef9435ce7ce39ef109198a8c28299edb30b2bda6f9e8b4fea99a88cc987b33cc86c7989e86eaa39b095473c131cb015df6c8c5dbcf896a429575edc98ea2207365d9e97cd1f0d27b7a537aa74e23e64c84a25d24f042c09711f75aa91582d0d74b43be43854ec3ced9ef195a24af003e38c477a838e7c5a88a33f5df0a073e8c5f8d507346598f4ca92b678ed7d0497e6e237c4961f3357f4264642d3c5e61621b6349301c96976447ddc7bf19017c5a2c7bbd7bbbe4e5b8b3a7b4d44e3ba6f09cbd311369458feb52606ff62ad438be76c7f710ae2eacaf07eec699aa19cba775066fc33a295bd26adf4476ed7ef713b433a94404d46d0f13eb43cb8fca03f2a9b9ef00443178cd07069e0b31928efbed4116db870e664b2b2b6c4de251112150ee7ba4fdab976c480008ab9a4636e50922bfae8be875b96da068f0c3602e8327bb554564cf769fdbeaf14a75ec00e8dc1d0f6b27d89406dc4385fe9dde273b76f6ec63be41edb10ec36da9c23acca4cee7e45a215fdc0c70f19b3b5290f94408558b41986a7dc30d0e963e09b3e832e04268f4332d50bb48c384e976445abdaa32811d8a1cefaea31aad5c49c39d9401941672f0976ef4836e07aa4b99a0c08a112a41e0efd4bf11e375b4bcfe9bf50bc8a23725c5620e608bb0a428fdf9f1963ef9ae6c28e89e4cae7fe37eeb6450c7cdfb0374f856179eac3587c31c72eebf410141321b6a8ab37e4031878cce9c8c946dda1f2bf7f037f61d91ee628b24418534fd8842f6c44d3b6787b131c8e7314bbe7171a949c69c999dbaec86c76454f70a5dfa53127b445b0e94afc8307cd7fb12f2290a312903c11516b93e424312e81dff24b8cd9652614fa67271e680f252852f6c98ad30b3c68aa1bd0afb887e3eab9b8f731f596a9d61c58a44316507741bce2bf8009da2266dd3c61e136fb06c40c8956db097ba0933349f0d5879f5d8220c5830d92f22c80e33a9f220c0ece913f1a5fcd20e59723ec6d9722ac4c7754212a8a5857ab50f84e5ce6a81e68c707917bcee160f36018c0e7d1701c6ccba38ed543a3aa552b414f8b46d7de9933df66423b9341ea542501209d8ebbd8b9047ef2b1fcadfb15be333c98a5fa3ce7038ed2bb0bbc20130fd9118ec45ce1fbf3d08ea8507587757317e3c4f50a78185c918e1ba557366be127b11c087e47e3909377f5aa35a58c98e38f017f1436adf366718c975a19d9466c2e7c31b183429e34a551ef899dec1eab57168119eb087d59e0e79aa08d73c79783bdf5daea920a7dbb5c08ca98758844364b06347c1d9f711f6d829788d0e8a349de07e251ffbd7a933c1fa0a039911f57e61e8bdb6b0da805a666b683d3358201ac7fecc491763c9b6a7d360b278c99a58c47e567118897a17f092b421f5ca2866be33ec72ead2a89de7761c85f4d565fa2de26519b3683b703c6f45821f6b9fbb7756ed126f6b137e8292fdd68076ae82f6fd01dbb80d62d476ffeadf77765b6525c94ec01615146185ea9b960999e204ffa398240cbd624a2a77721200a2d1780cbddb95ecca0b6c0de98718d66819422b4b4cdc2443694b11084bec062fa55c524e69709aa4e5b81f5ad9e133f8dd6c066619343a180b5ab23c6cc9f7d0725305b051e05237b507a90c870058f5847cbbc8a6e9eda480b56ae71cd0f4228e3b9b00c50422af4a3ed74ce3fabc0bb7f985597d464a233760272a9233c59ec5289bdaa6fff4c8f8323475f822f57cc1ebc2af40e5f2039d053baf52bc7de32a0a0e32c8322adde51c81f0a81b5a38c46697c92fac94a6852e76f80347aa2fb9f573105e232b1e5b7d170745f4849fb9a8ac8e506112568652b85b37529d62194972626e2d893a3e8999f02d013fc62e780b245e086aeffae2d8df49b752ad473b34b8182169a43d632f762cabf75745a511f7d26fc65a35a0ace0b85b63c4d6c040e88fa5c8e60ff300772ae057b03f7f3da02dd2754e363c42d88984efd8054dc15294797ef688dc68874ca3d61253f642d9c03ee085a7e31bd0c1eff973fa3768f223d569fccdb79f5749ab07e25c66cd5681a2a5cd1c07b136a2df43344c40a94b857ea152803f415672df37a8c7377842b73b4051f7e85cd14e06f9a9a70ee064773a0762b155882fc9a09fc071a4cd645062d51bcf3eef5736ca0e5a104495b3e9fe5224545e492c1d4bb206b22411d7242087d81bcdda36364abd7807659ada932202d1ef17e223b9a95082fbc90afd8aef9935b8132069f7abddb113b789695a42213e4a4ecec1f09a9783af746ec28bbf62e8d9b13b94106a701be3bfe2dd0c3c6e5f27cf8e354a6486f263ab6438d927259474f9a0c7a018f6b79f09ac17fbb3db9ce98ac8f386651332ff1815b28e03ac765876b78cb133a775a12cc8d5de26d2a8e978a2643f169e74251bc3b55c10912cfbbca729b2dc3a137ce49276bb34aca43e8fc5ca09a7ad7bbc54ea2ab2df6034e6ebef9d6336a184f19ffb1520017c052f2d76a7f59ffbf65ae21a67a3c25ca84e3355903a06bd2babf709a70ef00a97ecc8c3404d19322a37f4f6a055564e1c7d93ffa7733df9aab508011b5bc0c3202cc4190f5224e858543ad4e8745beaa3158f1c99c6ae07473889284c0ad4305262ca39f4bc9e26504450219d9d4dc1ccfc81245146b4863160d1819a8922f0803469466b3d875559188f716b1216dc4b088174d4af019226ffce671b0cb55b0515e5424df7d9b75b76c9eb80795559a7f1c5ecbedfc779477ed78a6b116169a5d1b63c23aa6dd6f94b3ca4c5f85b28772f8466ba53b4d7982814cd4da74307cbb37d2f89020b750c337bd4cb99bfbb97a2d549cfdc75eddb63444b7bb57400c8f24de5889224fd54afe3615a980369cbb1ae1a1017ced51a76fd80e2251a3424422e2d7b563b3b73ad9523be464266f48ae588c293b7440c7f851c62caad10bdb744b2687d6253ac65172ee2b836b58cd3412056ad80b0ab89354ccd671bb89a7132c90c2708cb62f347957cdfc1f19718090aec0ae91bc56ec16610684d520ea92a809673c5f28dca2a405203368f468e651b7b97727db3fd9b027e785ed01f5c35705c723fb66c214bb481624fe5b0f6924d556336524699373c01d48211fd7e9a77882db858ba01f08f8c115b032334b20f289c7df9c7cd74754a6e8148687fec861e86f1a89f7b6781597f04ef05c6b7e7e64b9a936d21c11a38580a4e22918b4cf3c5f9a9b2412f0dc1e1ac021d8bdeb9091b2abcdf57598c78eacf23c37c35aebd2ca1b3b3096acb01a6bc5e39750a62d3dc3cb0686a57dbc0907e7addb226c72240bc00d50343e40db2597029b992bbf941fd0a7d8fbcd34919c0cd5871a0a580e684f8a9aacffae799599583a5566e8a84f7aabdbb515a65fdca50ad2a3e3998769a70ee064ee09ebcc0ba9b4c38e05a4f95e0f317e392121f6d1bad53b62a46dced4d7c160696342527400cc02bec67105a43567ac3ec3991498f8275ca81a8316ca1eccc0f21c1b9f9ba4ef4d7486096e46b56b483bae16b2e7d956ef453865b4c3c59fee5b1f2f941299c846e7ef09a7b22a688431ae6bdf64a411abbeadf89a793eeab14032e440a3f268b13f3ce4d91a4c78f2060ca7d41f59f1e05aad014879125c5194e0c1616198e037a95a587bcfcc8c2922375b43719d29bd5b4058545c31d58dffa41d3670180ef401f497eeb40cf76a04813f8f519ea33f7c1222e76139ae6f039911d624b6838eaceefaaa5c46f95a47a91cdbf683fb80922e3104586b5d9e1cd521df3ffdb92e5d5031911dfa784070911eb98a196c2250bfcf763b71e73da127be00e35ba4362f588123dc305fc597b7b5c24ec2c175a2e62b293863ce9d5bb5d025d1346b343b0c7a21f9e5fa63498113911b3c2eaef34f43259b10c9d4f550a107e4dd3d8875d7f2746cc246ce3c77eea7568b1584116807d7418317077446d360b79d9816269ae1553bc7df6b96b253af7676af5642a25ad2c80348597e66e42a9af60a7053223cd76f85d925bdcfd42f40b9b7e33e7f0c9ba0361256ede8439a94a7f61f714b21528e6a9aeb24a8425d60814c6ce514e64ff99142d3fee99661f19f7e6df8afecee0f8cb00535ebb241456adaff60905189b21cc1f7ac9248d2ff41caaaa0c6d7714f15360e10a578dda3af96281ffc93e37d3f4cc6a4a824f6952cd477ffad6aefb6f6547a0282bb9d58560b6464200f5a6be61817de442af30518a4bc783dd28ed88ffefc5d199a64ad95f7d1d051d36008ad70b5b7ec3b9a5669cff5e71b2f5a7f338ecc7ab337112790d86e8b64aeeb5784d0088f0e728bd92e4b5bbdd79cecb6466c888ab036b2047e0542790d76df1efae38ae08a81d56b3b40d2014de6e7e622eeecf9bc958062794bb8dfcb74a546a1926b6c1148c4174b17084eb255719cf480ee72573939c095e90b5a1117549b48af589637d84424077b0c938d74713798eb4a9d2c2c632c0996e2d96e07833bf48537b804a1d6dd199babd976e8491f4f01a65208db1e3c9a1fa6d4239dfccefdd74571fb882ec893237d8c8e4e4210bcc1d5a8adfcc2308b976e6c03ba142fc516521f97f0379403288877da0b5f30a2e436cfaba48c76b8e98137d88d1baf2a379e0655de4c3ffc9eb9f74948baf3b5a71441be1173f8b1d63e5a0ec33e0c1c866959ce78dae74e862f042958679a3d60590131ad1621efcff54b95be2c5ab2c5648abf0063d362ef42fedf450e9c11b3d885b7ae761bd381c8d2518fe64031ed1920bcb127b2c33ddf4baf519d6aa58ebf50d0257cf5e58de6e44fafd2b35412342fa6dfa3f27334b139ae875e9aed12f45d101177373318a0b1f8fdbe49d2acb3d6c08e7862cf603bb4898324707816397c101b100fe33db3e7fff04cafbc3cb9e4577e507bf80d0fdb329d872d097dec5efebf6588af643c7c45b39fc49fa5b22d62ab76e3ad19635432f2ef3eb5083ee97ff9e6020dbe87a092cb11f5486cd190e16ee2f9d6ae033a10bc93168dbd90842d98a19928ec465586959d6b9db9bee79b918a85b73501d04dc87d61e9a1978ebeeec5fff3b61b18787adc7b28b47e8135fa0ba82732fd5e94194980e98d2f96f8dd9de82c22df350d8d42426588c867f48cbc6656d10a5281fcbca8e0531165caf98f24308e1d73cb9dd56038de867d94a123b0b282a788afbd6a66cba5a0f34ff7120b4a7a62a531094bfa0d2e62b4cbadc48ce81c9aeca1fcba910f6568d952449ac0af538947d911d6be11606a17dc5837b643f434f683b8dd2360e1db1542cf0c797345141fef544771452503af1d40e8ffc8364914070237bcfcae4952b7b65a6c771c74d4b34e65f3e77f608bdc639bb224f6abeb5c2042b98a4609986d21165d133725b14c65e3476462cb634da59acd7be06e19509d79ccaf7cccad54014e1145a62127023b95c5cfd8ee1f2c2d3a45566162abc8cdda0a1d2d627a8095b2bbf312587e9ffcbd072f7b818f9fa9ca093361808eb1b2daf00d1a207e8c9fea0000000000000000000000000000000007131d22232b343b0100",
      "utxos": [
        {
          "covenant_data": "3e13ed137e35d57c3a631f6f0e3bf0f0b6a037f8f82fe3c7f6e23674bbfc24c701c409000000000000ba2b2fe4a64b4ad9d1cecd1f4344bc6bcb2e3465a33faa3bf010662b35bd56f01f1c8aad56c59412e597e5382f99e7fce0c7e32d78adb9100eb50b3d63d11b88",
          "covenant_type": 256,
          "created_by_coinbase": false,
          "creation_height": 0,
          "txid": "abababababababababababababababababababababababababababababababab",
          "value": 100,
          "vout": 0
        }
      ]
    }
  ]
}
