{
  "gate": "devnet-multisig-spend-01",
  "vectors": [
    {
      "block_timestamp": 1000,
      "chain_id_hex": "88f8a9acdeeb902e27aa2fdcb8c46ecf818bf68dec5273ec1bcc5084e2333103",
      "expect_fee": 10,
      "expect_ok": true,
      "expect_utxo_count": 1,
      "height": 200,
      "id": "DEVNET-MULTISIG-SPEND-01",
      "op": "utxo_apply_basic",
      "tx_hex": "0100000000010000000000000001abababababababababababababababababababababababababababababababab000000000000000000015a00000000000000000021019175d2ab6022ec06eed11cbca85005433805c38f41f007877a2e52810c2b11af000000000101fd200af95804a37bf142577e78214a3428632fd9d59d45fac5bce0ff1ae55d9c6303323763bd7cb838c7ea87f989d465a347bf8cbd031c1aecc374233a8565039886e1e0254c6688ca2d80cc2d3bca639bec786309258b04a2033dc5b6d24dda3c1681e710a7336bf76c197c148d66ab1b0492221745448f6e92d832d0c04f05fd5f7dc517600409f3c9f150d2a671aaceef1b6bda73af2a5228bfe1faf2f04a7abfa8ab59ad3054ce0eff7db0015bce5062124b32944ec0d84d9d383b3916570a7fb8a67071aa04b666792d06216fdc92ff0fb305ddd0ad50684873b7f73d416fbb9c6425e0fc95cdaf7171098c5da98ba1fd007f9f81b67b7bc3eec64245d6dbc96139bde0ecfa8d5f08926694c555bb0415a2d40dd74e99f3ea0e7e6009a0075dd55d330003305b4815a71e481d06180532c9dfc2a5fc7a9c2465bb973a01cf82aef8d54f48531b99f32505f6c4ba4c33a0791b995fa691486de8b4e27022e5907da9d1a60fb852e6b626d48a51f0f39ac23c4dfcaa3196fbdbf20e82a8f630d16fdbd9bb2cc826ac1007aa759fc2fa13fc553d04f7e6872692475d2a259707467afaa7b6f8b4678fa9c6bfd9a64e0349f617b415132a6b089e3756edf80d9a1975bb7b94348e7000ac4520c01e78642f61c17910571f827cf33c3eb9af33a9b9e485085abe9515115c45b3f82d93dc48a108b1a8fd7e208d17ee627c1dcd49580de1c3ae82a2b7b3fab4a91c9d4af3af8f6532be01bbf2850c1addc25b2f4bcdc73d823273f0e00ab46b52e4c3f1eee1825b6e8cf2733b2fe58934991500cb5ecd7538ccfa0d03d3a5e2bc2170c1285c2aa9eff46939aae2dfbcac4e8f2f584b8584c0bb4f81d4c37060074e8128dc9014bdc9ee296bd60ef0766c103e457a0681956f461ac9f5fb23e8c175f46955d108859e51a9c5d0ef83f489bd7a9917b12f1d1b74b75bf959176c2be69cf269afc13a71a55d38253840032672ab597f30ffe503543dea68df606ed8ed2773212a04c655e57c3ea0f3cc20192bbc857931482bef6071653ef11b65375f30dea8e82d8ae7bb89fd34adccc497443f6f5fdda3b86bdd4a77ba71cfac87f44d530702b3f07adf4631210d3d3c6be4a9d919bc5674f1dce7b7710b10fd2643f89523cf6d354aaa62d815daac88109b20fc11d2df9cd99c9a3523b85117948736d0195418d10d34bff9a675f08601b883b86f30149a65a934f42de5fd23d874a1fae2a0c2ba6bf68f7a6e896a4b80ca6053dd3c9f21091c01952927c399ec5a9a47eef4a0957b20ab91dd7f44b3893916943565159b36c0b41cc9a4f1768f75221a3e3bab8c527aef27eb85822c3daa0e3cc272e76a30f7b7f0d8983d7d99b04dc61fb6ab1317eaa8ee05aadcc190e5cbb352c346e350f44d47f03dce0e66828e8a6222f8048d54c449374af1800f6c2c59d5dfe56433232c98096dcf823eb6003cb7ad64aa7eeb734e4104bdda7f33ddde148f5548f98329c12747e791a9fed375e68006af9f429df7b1cd5b1839a52acaef618f8bc4c834c03c2724277dd6a1ae8c62bd1d436207b2fc7b7b89fc375356c2645b75b9c3d17cb4cc58cbccd4589de2c30231ba2c2e9f43c6739270b0ef86ec2188a7ba6c71de30ea1fe6b546c0d581d1413203dd68227ca1233ddccfdc4238a78859cfc803965e9386e3d1ced569079b50441f1eb61eb2eef9f3c704fdcb0fadc8eca1a98d3cc5ab94fe2d4cceefdb7e6e787e9129e988b4ba3026eabbd58a655c40aa8d8f1bc94b23c727ee5e0702f780fa12ff7cf66c4d3912aa466a0a0788805f5a431123c22653d043fb255c79080f3aa9369f33d2b35c67c491cf9365fd45c9347c399befb8987134a4d8ed3323532e506b064e5b0ff2e5fb82707798d5d15efaccacc097b207b2aa987b6c0f9b2f5c837a4373593429eb90c40c7bd4dfb4c524dd21cf67326bc8865a2541098a766f9b9edb37cd95b6f22b2502b79fce6e7a00f5e4f36612c5e4decac38f4051ea95d52a257c5bf3f6f5a07f28597ea6cd5a90833f7435e2dfc29effbcbb118ddd0bd845964b1f1546622f8490573d32bc416c95a417455bf5272d36f1186a9435857073b3d5d8588468336e89ca6bca1557457801d3d5dfa20053190d22ab73dcae09401b628824f03979f9469adfe9f934d44c9ffa46f4da8ce3378b3330c2d7653a3c5c062a980984435e0ec887bc1faa50bf64e17f978f1fdc733d7935138a3b6729aa2397e167269267270d62730ed6d132aa5d65c64e7b8620d08ee7ccef4c16758b5bcb6821fa4ea7cf42460bd0bb62e53bae151ad13462975642f1c65832986847d96dc1bf9e74bbe2b44aec19b5f30e4e396d580809b58714aa2cc6c754b626e0028ebf496a67bcbe03337c32f875f23cc8181c82f673c3ef833e902d59ee609b22c4b66a648851bea3c0e60fd78c71c80cf01ca14ba56398a0f39564f5e1e448f60c4ae90dfbfc6b30049a3ba7bcf7c76785ac55dbc1bf7ac8bdd1700b576410335ffe80abb2b099ba4ddd26bae3a348bf38163f18e4425c3285c4d29d3e6805d1d1a8a9de5411276d8f5dd00d4c38b9397e81bf022002ed682f050ff91505ab19dcc044ac60482c5f45d6419121cee0f266cc8eb607e8030c4beee09fe8b9e8a75019dc54a1b281f9e7e7722c9f867f46a2807236f3a634403d232d68f67b8f428b0f84bf5c6e019ebdca058497b601acaac068c449aad5b09375f1ccf51ebe49d3d6cc1e365045b70a1830dd91b08d55ca2a05a0d218c0bdb4a76957745734da2240ec0098643bb3182faeac966ff0f6176981b49eb0bba70863b40e77c26ae428af000b8d9666b0a0698d7e7486a19f7209fa06f071882f452f6ae129acc625892c3cdb514d6771260b6e5fe4318a57fb5296a9e43fe350b860a770cfa10cc1b8f771084826e1232e05415bbf3cbddbe098e71a7f54596a72732feb4d3276e1357ce6d8b6efbcc71ec8e843bb15d1affc86a18407142ea756fd0d008157ce17cc43807cc7b69ab2ae83c499f465b3a3bed65dae95b03d1b72667a1993f95db9edd85580c0567aea19b98e94b8f33e5e8c80a1e7f75b7e41a1c909cbe1ab50d087309246f6599a13b7b02c6d1cf2ab7a8ec4f4bd64f71eaab43d25221a6901fe6a32734045c082455e71c76eb6c496e84e2a8021aee8a45a82afb25508a98097ccdc951fa7a863feceeddda9e1a10dc3c0f7b545289236d3370c7c0f59691d7bede4d8e1d84cb02f09dab04d87643f2331619e099d1dda5bca1133433c8eb8f5454d9afbe3296e3f1cc99e57255c53771daed36471e5cab9a209bd75252292498859aa608dc21bddcbd8012c70ce5bc656bc9804410dffd8c7e763316f4fe172c3f8d56e58be9a8977f129f5dae6ac63c1a7d1e9b099f15ca5ea4f386b30a6e2d693f5b98c9d6466870d5b9d6b9de608f2f1dd23185d8e7b3967c1ebed49b473bc06d1c17441dc20613b6c5c45c96ed25712d2ee8cf9cc4f864ac7de3723066907d79184d21135a315fab07f1fc9639014101b57ec39f063e8c5c2b990a29d1a20c2b792a0be6854a5f0a184d040a2b258a7638fec9927fe8ea8d7061a2ce8d11d89bb46a64251ace304f0dd0fa3f3801cb7bf46dd22d3e3ad170fcb74cd263c0b13f6043b976bd019c20afd1412686bfd202b518f73f88af3214782626797fd126fc3cca8813f84baa26e81143330ac6ea71bd7d610e6a1619a5dd9c57be674ad7c6a62d2dee535cee3bee455a15db4f8d98bff17148e8441a2a28db26d45b82a11949caf5ab9806a0414a7e19fdd3337ed94e5dbcfafd2c040d2cd02bcd343459d3ab561931e90d8c4b62fde0b76f88c18b414d2efb4d849f6bf9f064c3bb30df538c7aca8705cd3a7cd2af247b51c5120258372002504d8e8c6c05e518bfac7f1442c83a34d616fdfca5be485f9fb9f155b6e8de04efe1f120773af8b0d1822f3326893b748d6f3d06192ac01e341ce12441492887bf7ae0b5ef274951a229e3325181d46f3b269b71bebb9b0cc95314ae1710d9f18ca3e75b891de567cffe76d942aa7f95c4efc79b3e3905806d3fa8c10148406b05d8249ffecc30f283b6f7e5a928a0f22c22045193ebd4c508b87c7c0965f4e878096c8b4fc7aec731f5f4c6dc1134e24a483cb7a15b407e46dadb57f87d61886720b3ab78cba56379efeef631929e6328774db35e98bc532bd09d6e1fafed0374aa2a5930f1ec14d5623ea077adc821ed6274dda39ee1b794031c498139e4862e74ec2a4df82e0026b3af3d78c3b47c496ba98f4980c0624bbc630299e09e60d473736a927d6a7aab3c1ed7fff4d2d767655c1dc5a3e783db500b0356ffafe2ceea24ae4d37a30e2ceedc6906051d8719b4440b7e4516791af0218870e146bf51e3aa036b0b4d4e03fc6562d7eee13c1db9a6df7d8f857b20dfe68a49c3ea65bd64c2391fec563b859868ec5ab2531cee6e8202f42b50ce4fb6491f5825fbdb41370f61fb326a0e9c942c0d86e51a7ea16d794eead94c4c011b7a5d82246b688f8bf6ecd4305f983126f7249ef593f47ad389d3f427cd8548e8a6f164f5dd5502fc1785bd74bf1664ca8ee9c7f2cad7ca224946615ded46822b3979978873fdf1c4de14493ea36a5a4259c066f9f5e93b680330794e6e4278ed8c0945460d4363219d131dcf36b0eb15f892a11f5fb423bf2e9308dbb68634e200cbfcdbd0f0de3faa5909b34740db8a467c0bb4a669064d29c7b2e855ae294e2d9a07efa3ec0fba022bc9c12aa24e2d3bb063b4f798fd21b0ae8a40081b3abe4593d6f55fe061168f3a0d2e02f5fd94e0defd4817d958ff531755197d52b339cd9629897d7652f8f1fbc76e554967187b70d70c83eee30d0b1267d1b2f3d0b7fb0ad56e3816e0d2b4637bc1e04b75279cfe6931a47666c7f965e85c01f4b11a06fb2f6a80e8546dba420b60fcd3847437eeaa6a7e01b99762ec65a75f362e75f41ecb37127c60da59bc82816c8df135bdf29283191a00ce8e5b9276cb7b9f902ed90a2295c047248440695e46cafdf0842d39bed9bb0ae3c8306d45d32aaa48717452ed3e0d94cb8404ee12b4fb92e9cecee5f9700f80a54d496aa8a56f6b7aede3a0565b882dcad3e186ba336dd578b7d253ea4c544c89b9af3c212aef6c29876435af186cd5bd3d2dadf8a58807d2813398bef94165aa617e6aed82afa30259c131fc49e9301eb642f92a209a8deb333e919b17a322ba020e328e94afe23a847a3e54ccab7dcfc0de2650b9c20e5b980a9b6ca04c260526abbd5b9931aa24a120974b9ae68d03ef183b8872a5e50b128d791d95c7754a1dfb29cbf021f6eeca79ac55504e7a755193fb1072b3ede78df75b50eddf5d72a250b5b30a57214365dc53aaf7d55809e50854dd1b3226af1f0df9eb902b77fe50fb75e0c70d66ae080a07e284179328f071b43f471deed82dffacf3ff637943e7d348259aaf59366ea580334b9fdc3366131ce59dc3d2af51a79ffee5bb576f31e79845dfc69b62f1409b2bd1b9bbc24da50162eb11a38334d417c421661394eac8964cd30351add757fb9b3924b04bd25f1f410d58d227e472f6ce79aed0265c7ab6918f02c3e784299ab6a6cdcebcc25c20de7283bbde6c230bcdfc51bf67ad00c255c25d57623a32800cb83bb5ce9265ce32e68cebacb15a24f0f64bd4d991e2c0ce428d4ef1f4ea1292bb47a3720df2d836fbc4a65eb01f464dc3c61a7e08144d1dbf3c9172394fe1432a9c3a1c2dcfa114a24c6a80c11b4c867ddbb6c0cdd31816c725e158a487521a6226978b0544f64e0182b8dc74aa5319872f7e3ad67bfae643933dcfe952cf372c86b0d631be08a68a0e6eae7202b61acd45cf262f64882c39d3926936e47a9340adae8dbb99de1180426c2eb3bb55db97ccb3a69909ab35c11daebcef5dac0078ddcb8819789f95f4ccf1ba7217bcf746a5abaa403ca26405a1331c0e3d18ca3c4fdfcf8c1cb71d2b5791bb9a201328c0e6f649b4fe353d6b2fac0bc3aa6ec5a8577433e93aaa7c053401e3f853661cf10164480b29c8d9a6ef5a580d2aa75f79ab05894ddb8c76d2e25a4f51c6a4907c44fd70b5609ef2243a600cd283457a8fa2998a50c94043cf9daf7c1a9b4993df427de54a5b1d5810c9574517067f9cddaef814af0298e61c0aa092832fc8bff9c1b503f330f19643b975228cc6ef030b3c1ffb82af57b9d285844a32544e0ed805ae83ee439d319cadd441b516d155b06908f1061a8fe8badc0e10e519b16645623a0b65b2fac5ad3075fa1e7d9e8141f827afd63fbbfbd1636fd9dad49f5c9ee9c78af542dfb36a846efafc161a30d0dd940596a4de5097313c345b6a88e3f6d17fcc14b43c4d7a25be58f7a05cdd465e80637bc9b03dec04de012b83180f31ee9959f612bf593296f09c3aa8a6f72b3c74731924b75d014e3008a699fd3d8288cac4cd386448844b666d211f59e7aba2b5a82c41769ea2f4c11f77c7aa6b371a8dfb20e12472d3dfe116777473b5a3d223c33d1c926dff4da4efe59c0b181a32e7d92697eda299899a5328d3a464848a645b1a8ea9ccde494ebea04e80e39f30fec8f910fec33cfd6fc6ca621dd403d4c8fa792227721dd6fc88c4729036aabc50f6377d23f5c22b675c77ebef850ecc3e9457be7adb365d47bef29b423c8a817e596101f3593fd88ab4c448ab610b875c702068b0d1939535a9e86e09bf9a0a34d09bfaba50c38f49a0d8e9b0744cc5d358bbc547ec87c17952d07566640bac4b111f878496b919ce52e00cf9b1bdb11398196d363bf0d8c137cbaefe43e3f5539acda258828ee02db9bf1b9e5060df5192b3ffe1b4524ab9354845015b0a65dfec1cc28a8ddc429916881998bcf6b072a1909a5e3b965a06298f7754d905a36d90d9e81b944238608547623641d4beb8c72362e5e06502a715b5a764b57ac126b4904a23f3bea899d8a793e30eec8d8e1228d623e0b723530491d03b9cb7c020b6beb5296a9ad6f79d362fe31b2d0ae2f2f00ad474786cc7142c69e2420c96d44d2a7c36989fbf48d95c063095eb6300902c4572a2dbd50dbc9e279b23cecb696172a4ae3e0ad11f4589ea1d6fc010fee7c07ef6ac305347a6df5482987443e38e701200cef4e839911e3f6e60897cc99a547aaeed2282cd07d160f90b0ddc240006e5eb6f77e17c95dfb7aca88b6c25adbe5a1c16fb9c86691b3a97e2b05be38b7ab583044ee603b1dc72b59378334c2c82923063351f362cb8c3839cb002b5dfbfd31d35dd6f477119d6fe45152c0f5537449985adfe7a4ed352b382105524384b66d923d2fd59cf19fdac9dd63d05c1d1f3f364a3bd8e1a6711512ddfcc42bd62c323430e96c75e40add470216add4a836abd66e68d06e5ee9aef86c79229685767309ca17e5b39e45cace3f2953b141f8f3440a47e05fac66ac9d9bfa14d48f8b9f5d60c87edf36e1ae11d3b5737f0870562c71c42ca269c36135afa7d4856f7601ec79f4aa0bf56b2593c02a173a1440bff0045746888d745334cbc33fafe4adffbabd6461ddbbd6fff319272024e89b959c1814c9227006d492de3b29540ca70685a023e90125503e528158f7da57b95fb60d211d3ae4b4148032b0054270be8597fcbbd897d3b03380c54491ad9d44cd5f3c132fd3230598c8245791b264473a696c76d06318bd36b1f974f4310da85b99417768787844418da4c7e66a1f3cade35e1dcedb7f4f79bd41277c0c9a63cc368b4e7e279fcab24e4ae5bfac02a8366e0c9b469811233218baa16debe27bff2c1aa7902f5d32cb74180f6757276df4989a53ffdad9af40b2a970691ef609e0892d82c011859de7cd8606b7c14c3ec394bbb30d02adcf09353277f0e43220fb3185006bc56626de5f4ae78f2355d87aeafbcab3839010589620d51561c050fe3821f24403bf13269989d11507cf749dadf2deed1966d2c8e05ccaee0023dd15e214252b9e35670f3ae09793ab1f41b6af1608f46f2668b83eac20ccb8bfd0a9025618a34aa10f6e09852eed90c7490419991fd6a67d1503deaf6e7735658e9d70323ae349251eb16d43289ea777e048d2b842ef670d65e28217a1cab66a017ab66f6a634f15a3af254f6afccc4476249dbffe5b3ecac4d029f789f80f4b08c40ef0c0e5339e7c3a3e01384e4c6b68f98b30d8c8ced72816e55212a8a0538ecfbdfd38a6db9a883fffd250fa618c7e77967240f0c9cbe01d2c383c11dc87114a66441f293ab8f98fafce9d4199686945ed95eb4aceb3c12bf60d194c7638a80bf1e904d9a84470f66fb944acdefbd3d3efc4c364f5a4f634504efc2061b224c636ccf7abfb6d2dab21dbe7684dccfe8d10c5e2659c4fa503ad35c41f74d2b5c85396b09fe09f5cf8e1695775662d1ff8ad4b798477f961608173b09d86504844ab4e1ae3064bf668a9c01651ffb009a70c30a7e29103b8715a13b3b173541c7d12b934ff740e0f370f8aa7b8814fd63bc8e1fc86eee95e611a7cae466e2cb7a8c63303e261fffac34080d06e5e4bfa1b0eee6d2e1ce853c1490b3b11f7086e0a1d0a99c73d880e4f8a19c5a32c28bc8523df8dd7fe889078e39b2b6b4140f81daf767d4768f397ee81a7f96caf04a580f370ccde0e8dde3106ac9fefa93f8dd5769c69828bb6bb97aa107f8a6f8d0366385ef8ddf958529cb3bc18902b5b553d52afdb9489ca316538782415b47eb3d0f27b6ab64ce8f9ef66ab158ec265a1464087a1a65ded3b5f267ea4649a2b321f242d63ce6c5b73762ee850c3d587d2ca8b6f607d6405932a1983b9a09ba10bbe9bdc42257309a62001ef02adbf60335c0350920539e38d7a49238beee0622760e61e8e8c3a9f0f24e8c20b341678c5ac8885c03be55ee06ac8b9dc33e30ee6d71ce72b0983ee784bb481015b108f8592df09b0e26e85b67ec6d725cd5b783426f241ab85ffa353341468445e0ecf6107f816ccd745bf894ab90c925000e0beb9d605090a57bfd30a51f34efa644f7a8429c3b5bec5278d2c6d83a8c7ee3c8eb69991aba98da6c95db0b4637e2299b5956ce80569fd045ddcd3f05939cb44667ffb3bc6f9b9b67fd1e0f700de4568133bd9224a91d2797f285fd4880c107e905a2c8199b9510627da6554ecaf4ad3f7dba0bc2663d4aed0a95d41d0198972a3b50a5b0144cc7822d70db16ac97254c26d13e3a5c1f39ba7083a57e7b255fb23020f6008dc7de652f79b3394eb428b8048a5d0463c1b9077fefd08374902f2d228a0809abcd446705e11e4820a369de07be6adf62ea6969fe33c2923fb74564822c6d3696187b4faf65ac72db3d77b3c56e01628278aa64bf8c1bd2508ca2890da21e9cbe72f22fffe4e74f5348f0726f15e2e4a32f3247758e413ab41d1d613c995a7a3db8af9e1c7937758b56a853215f8b3363ccc762407291603dba30250c725c0343134d68817a6c9a7b3e1f3e07f43653daf6e2335d6230a1afdf14f85563393cee885415fc787f2f2deb5934b28d8cddc7ea01066b41a9f0029630fe0cff5f561502a4218b0f8341b7967254c55abf1ce59434e05b72e493410f863e616d1e2da99be57ce02b862245476884866e8947c2b4cb60dd196535c45af182a285c6d3e73329e9db191b30057d060913470a402dff08ad5be529a84e4dfda931776c047515d2b458c8c8336503c97ef952994fd925f60bb71a06ebd75bba8686f4cc7be1fffc531b2d4705ce66cbd131f548447355b079fadff233894fb0173e9fc7d5f503a38abdb6dcf345af888a7abbfaf7975a6f558bdf5e64e47230be5aa293e87aebc077277ea34f4828c1baedef71a794cc4fe308ea0a95ded846c0a6e4eadc39eae9c7d634b23784d9890e34f2b6298610d45d20325d02ff9247fb979554b9fe36082e7441902c537295edcd21d57fec2357f9fcf6bb21c8e77823206d5bc13503d400346745b9e29c5d9bbf01a809836fd32051f0b3d0583dc81c522ba2587c620e9a476d6ea68662a68ee9316ec009ac0b87f18420af2d573721e06caba062116b3c14dfbe3d860fd7ca4fbe99a982ecf68b371cd6185fabafd1c2ab3d0e407081f2c4c51a2f71da5b4baddf90216557cf6043338454a6c7eb6e7f9507ba0c0d9e7eff8082330344b5c7dccd0ed406f92ab001b3064e1ecee0000000000000000000000000000000000080e131d252f333a0100",
      "utxos": [
        {
          "covenant_data": "01019175d2ab6022ec06eed11cbca85005433805c38f41f007877a2e52810c2b11af",
          "covenant_type": 260,
          "created_by_coinbase": false,
          "creation_height": 0,
          "txid": "abababababababababababababababababababababababababababababababab",
          "value": 100,
          "vout": 0
        }
      ]
    }
  ]
}
