{
  "gate": "devnet-vault-create-01",
  "vectors": [
    {
      "block_timestamp": 1000,
      "chain_id_hex": "88f8a9acdeeb902e27aa2fdcb8c46ecf818bf68dec5273ec1bcc5084e2333103",
      "expect_fee": 10,
      "expect_ok": true,
      "expect_utxo_count": 1,
      "height": 200,
      "id": "DEVNET-VAULT-CREATE-01",
      "op": "utxo_apply_basic",
      "tx_hex": "0100000000010000000000000001abababababababababababababababababababababababababababababababab000000000000000000015a0000000000000001016444602f9e0cf3553aafacb84cb742c647665aacc9ea25bd7dfd4142396eb702fe010175fefcc0d429eeaaca6683e47ff792d6cadc51c98db70c87f1bd4ca22ef8b95701004285b274774997d65ca6b81901d32a38d37b5fe397c27bfb34aba6b86acc81ad000000000101fd200a1d0d1898b04f6c4b3a414fca25ec6b7267b2b3c850af7b43909f2388e1fffa65382a6da87486773e49b6d19f5527b0873a718f8a14fbad69d1dc33c9f55cd72af2589af6ffb52a1660867a7a0c84beedbf6a103120403b87503d81565ae526924a1f14bbc4befb67ddf6231b1bfc1617b45c18287883a26f433f3a18528d1a01579338328774bc765bad6ff874130eeb40c4aa98bf023c38f45bac4805768b6ed648778f2181b5758fc27261c7a71e576d70171f02b9e0d28c8e09727b26f9df69bd639ce6a6b9192b191faaeeef89bb18aafedc3165b379eee5474f4e51e2b88b23b98684c492402d140e0b989687a25daa8c37033cc5720aca0054f259f4546a11e44749bff135bc4b3849943da7c37628c4d364e3029b3c91a8425f62be1cc27f70f6d167726693834975a17700f922e2585e50f7c9f1aa68b8c4419d40fa1d77e6ae3aa83d38e7b85e2792b92d1af4c18e680ede9d0c8d0cedf2eecf98db8c3735d4a79803f8dcdf518bc7babeaf792c4c79f30006a68030ebbdcd83e6d68252f5afc90636e7cc0456064a2adb92ad7dc7e52bd2db718d3bef0b514d33c9b71de01848dfb51ed398be11ae1ab84b97d2c1f335b98e5de09d2c1c6316b33c6aba55fbae5f735b2a3ecc90fba5804a70f76bce85d05a92edc9ab1732da7f64662412e0a4c692fd2dff40ff681d8fac56ab0084fa2cc96961cb40cd02a11c7070f6208ddf7530603d9745d716ad249037e269fa737fd82fe3ad437eacb1f800278494fd265c2ca5de4863a24cda6680f3ea579a7ee719072c2ae4abf281eb1663802cf7b138f8e8cf0639095172858da9dad6f05660f547d18b65fe2b45334ae994d920d38f3ff99c9a87262ba6096d41ea17a127eb6d523d670f8ca4e05285d9d8c2113bdf6edb1d90fe7cb3ef3854bd0ecaa458e5ea2692b060b747461bffd07e4e6019153ca990b56eafdfc672b1972ab85fe4a05da161b8261ad9bcc49699ba78770d429d1fd1f94049eaaef8f2221865932107fdff52d004315dd74e372e6dc8a5701e2114bdf95e9bfcc3b4883606c70301650c99c24db0bf16be7fb0858c2b6cb012598ea8fbcc10d7b24bddb34e81ad0ccd7a7ff03db949a5e238234c5112389ece104301420010d8b0f9080bfd3d67cd1aa374e5887b01745a1a3ee3353a5ba0825be73608700e08b9a61948a93567589b28cd50d7b2c95401c86f511f08f2a12faf5a9d7832d6b18a385438ca15e22fc0155024ce474c2ca84317707291da10fcb4dde630bf2ad4b4224c08b4c45c404790ff26c78e0094b03c4566e3ce4bb5e97593a9b7db0a2c06555b58892f82236d332c727cc03264d38480f22b7e4c39591d0c00338c2eed385205836df82bdfc7febffd274d4e81916ec5a8c6a9b98e06267bc0f1cf1e8950560503985f43073552e80730b6beacc30e92eb067c85a93ce2cb1e9531644c0f438f0cc092400ff5e936fae07572b8bbab3aebe6c3f116875b6a3f9028820794f9c20ad0c103c6b75a137a97b90913b70ddecefd8d239cf6804115817dc28d256b20f2f091528726a0555e2b9d9c0d9a94ce958b3d8b13608545c5c235c76ff0faee9b7b16f07336a14f6b6c59c5303f5dd1cdbab8ce9319db425ef2831de35691e5102fd239ae566d621b62bad5140a81e55d0fbeddeee0e84072400f3b5c47a5e5ec7c2db30c8221a355176209aeee8763d98db674dd4a908dcd662d77c9ec203e41f8bb0507774b9bf87ae0a3d15431390cbc503bd24ba2c74251ee2b31ee33cc6af4b6811ab528fffeb24aa21621c5cb24387d68723039a1137eedf4df71f09115d6d5b9c1004d2831ff17fa184365d5ca9942fe9014449bbaae732d0d45a4f38b99daf99ae2d492d3d4bf3b603312474dfbacc61821914646653a38a67c8f8de90bfb4f91bb642d44e008b4a5ed71cea8eeb067c19e2c9770a015af3bff0e3aee5712925d1d83563918581a7a314311e6cfdad88ce43586758e5e382631a55dc20525a64cd2e46ae17347fef262f89ee1d8cd0e65102b7c8b9979ac2a05e9b823a00348914e27da2a252a4d13b8622703f7ca00a6cfbbd21612b1ee4b8aa958176a3cd31cb24261d557ea14d6f8120698d60fd1c03e5eb01ac62d4a3cd7fed7feeef67d743b8bbc21298e14bb7f2bb091c869fe214e715337da9fa868111087514df61f715472007c5b6557d39d6fd14d058361036c1bfb9378f8797d6cc84ecf6db955554c4a3c7b02d5f9a9b21f124591a26e3377118e4df53be789ba568690709ff533b030594ddece6129f3fb06b6a8234f1917d3be64aedbbcc15bf21b5975aa511ab23f21aa12b9eb24ba3d0ba72339a98373319b0ebf7b5ec59a29e77268beda1a53d12e0dbc97ff26bfade2025b3a0dd599eb967109b0abb87fc34afb10781532bbfbd2642a699388f2319ec051e9078f4a17801cd609277d794823227b43ae2a7f9310c9addbe19a9caf7f6aed03ddcddce285d21ff79f8a3eb11cdcb931b4d193b6646a067b8ce45e1393e4e2b32f819392283fa5c79db8664bffd14039df47c1e2c2e8206d06043ceb183c660f8336e384850d17a635e48d69a94dd0c908c50e8b3a40f6a1b9b15624cc097e69eaf20421d02f4fa2533fdb8a0eb1a7483993283944c545cba7dc59cbd468078c692d9a9c9ec273f48ea12e94651d32d7e2311aec8857567f5ff92c381d75432493b287c0b21a7e4ae8dd463829e9485d83ada107d20c80ca67f8826935570c426f60350278ba9c8ddbd0f3d1c6c447b77ad4af9043e168ecacc4c05808b30b495615d47cbe9b949110a6d1cc68ed2ef09054afdacb7949f596ab2bb7f1d799a33219babef8ab25e49963b66d296c2e4e28ca547e9f2038ade278ab2e4327d7f6fe50f999eb2c12b2696b9ada8d0b378a27945c47a2da390165a8abc7262c786f8c378c95a6d55d58eea96be8a9aac01c8bc103e85b879a6e187b1c4d1068fb226de93051dbc406b2ab6358440de983213259fc253c69633ae6e234567bdb999d516233d738377e0bd9c4b13dacf0f03843d43c51ecff54c79935a9fe0cf7d29f63f6ea0af213346b6f63b053f863b9f5425a4d5be642529b36ed1a199f6457bd356b0ef625eac30be3023e74b30df08e6eefd5b9d9519f61938a7a4bd5d566293ac915158ad4409997251d1bef2b0486075a9aa21e138e946a35387988d1d98dc958442f42407aa114b27dd674a08f78ae3e630df0af3dec33187674b500b79ddbdb3f0e79c9a25121cb73241a118a0d0f985bf0a358eece29c338384035b941d3486d182ceb3369b50f0b91057db509296b7f7b938260c38bbae84d88368d8702b6908a02ca5f919f4718ae8063747b7585912940e3a26bf37120ab5fb9d472333146d39a6d84fb443641e113f61cce03583aa57de23003a84c889d54791fd39d41e7c5acafd0ece3db2929de9782248188e95d007bab3ea80b0266e004de62955f796bf48449b52ab675de860744a16f4919d58544555c9b4ea2243e893c2c9f8bed34989e1d0143c4e0c060429dd43c85aeb609ebe62c6ce1ef9ad383133cb9721053edd05c28114f3b8a311107b6177d691a06939a7162a03baf13869598d0c85791790d7fee70437a211fd3be3cc40aae37fe0e5e77c701664425fd141228cae5e5e54bdb34b38fe74e81fcc7eaff6d7729fa2674c21da6dc1e394437903010296837afba1ffb92b1727f964eb365cc201b03cf0131a3c22d309e06998efdae5edaca9db5fa0d26d0bbdda56b5636fa0dadbf607710ed6494b16c5472c6a637b08c2b57b42228fe8811e8c67715c73f26821a1fca61463689fee3a2f60d69737b29d1aa6a98602cdbcebfb6ef6bddf3f910779d6e85a5b9587528fc3d2dfdab63740081d3b721ddd7506bb3b0fc71dd289aec46fe13cd131c97a9c2a1b3a465af0a001ccfbaae56980118b8d1d54e1abce0ab161da908037d62e635f6e2f1a702464350d7ad965ad1886ad7d1675ffd1ad3bb17425acfde1edcc371e9a3ba8783da20ab526090fbf594356081a88552615420afa74cfef18859fe7b76fb15721138df52f7e2ba7bd8ce2fdbdd03a3a27de4a331fd460aef5dd42aa4e4bd9915fe2b6293fb2d5cb232abd7748eef6a1d789a923a398c7705fdfbab591452624d9685288a5cbf57b832b994cc6bec22003041d4c137ed1ca1c82fc47d9679a79f74e9503177caf01947cae90086a3315379313524afdeb5dbc62a33f97bab27f22a96d4146843a903ce7c68efb5c6587c045eb4c09b0e3a13c707aabd502efefd8d1a10a51476d1092404fd7dafb4a34d9a8109e88326d9bd259215cb192a4281e45e4499096554da5656d4fd0106e11fb2a8c81b2278012b213af14ca3319becee3f85a2e6e4d71c89e75665f88fa87f92320c4bd88bcb5d2f0417498fc93ad185a7bebce138b66341b2fe1b10a8a577d412f82d733ece088ae2f135023e08b05b07cd43680aa710856436f7d5face0a473775ded7f27039debcecbf0da366417e238fea0aef1f7786a54eb35b941c692afd2d31800026bc0893f1a68d643b2129d2f4c77b551efee14acf51a71b4b297fae9046f206618f2e91c711b38b65b9e016a063c739c76234dac912aab16c690daab5f9d27513cf5353972c4c95a22d1d3fb065573a3d3e24045c7ab3b842a1a6e3986ab8bf89ff58fe80efee4cf412db1a705bea6bd3aab8b75f80745168eec34a3930d0008e9b1d2e3a23b732b904e514953a88b7d6563727e8f30e9f309a5f7547cc157668c8f93dfb5ae4cadd9ab9c955d3ea095fc96ca321b117fd2d2d00b05339a69e40502e6a051c29a9d9b7b4b7d2fbee1e29cf0edb1020b5f4be94982a5b526b98ff9ce6d7d9377f27fc740e0acf179f560c550caa2cafe99dc5fbf251e27a2cab4fcb1a086fd0339c80ada3d839b88469fe538ad4bb6a1374959e6ede81761028676b3b56b3ec2f9ab370603ffb32f96cb72ca5044a05f1dea6107f3e4bad9a11fefc14dda0d2104e1dd237cb5490aad90de67f5e0f730a9853706cb410abcd80394098e44fdb838a3f9342124f28da9d5fb52814d5d69a2c0458db4d29c9392da02cd270c4e0cc081ca89fa94eea1f2a1c220365cf1dfb2390e30a00dca70f4cd20d16c673c3b8fedb00ccc227864a24e2511129e5f3ba5f170880a3d85e60aec47a97aa968cb9865d157124f4862487d9835cc35e5fcd81a99a34c2fd39d4d3fa3aef2e4f06543be00f6c19bef561e0783f259fce1f57819ebca6cf4e79cc49b4e003062a3a3e63903659866f49fe749c6b439ff65a7839af9c65456bca2eaeddc2dbc1744137e2be3b103f516379c56efae44cb756af7e4d539020257d6fa2d013d0cb47d66b8243a0a2052bab2c8c16d0a7c72ca400280291583cfaa6e5e919e8f482b75aefe3638a144e29073e52b35167ff93f1d7da3d4ee2e40eea927f18896bae210599daf40d5af44a65800172f362d9df12fb29d1fd16424cf0e9ad8131c3886441afef788199a69f08f8eebe458d068b3e3781593581817c2d62c2ff4ef93d49f767ec60a963d77f0f782fd418c38e07078e5da3e097ab098cc18cdd738d2a4456474d52435059ee0102a3a6e4d75305a425deff78537ff60117ed3e47ebcda0beea172e2238dc7d7e1cbf5aa2503890a3975bfcfa412b8401c71b4b24cfde562864e20aa3f31f7a5d0924824de4515aebd60dee2d44c5b25e3b14dc70d1db1ea9ba8b0d22845f8b485fa0ae0227bc0cc530ae2c6c06e4997b8f168051ce752da8975e05dd5dd1e6c40d7cba35f192cb95f7b6ae957a2da552ff762f10c9f8cd8d98668335d6e1c4b21244b7c7bbfcb00f18f6eeef5419c7b68f5b7b1edf79991645673337e3ffd009344d296de19aeaed288387d3dee05f8203e1c1837df2aef3ff2ba103300f1950dced5a23df88e097cd3c01c49786e46f1c61dc4e06bdc62bd32c8b94be60316245b466bad0f7ba5b6c3f02bd771c67b8d36d4ad4d0831af9dd5b669203b6641be69185047b14232a6195043cd67ae29cc1d830415ecfc717c9760d42a6f647703a3159d5534f8801e2cf9a8850955eb89385e26f415533f4f142380c445fae4c3cf80b5ad8c7aa01185fbcbab414422330ce0b12cb687210c464caf29e30f34bfdb181e0bab53fe2011013def5736bdf491140df1d28789792e0ca1cac82820e132df229c975701f8c0bc489eed5deba7e94195509e22dd0fdfe38c8fbbd5dce2038aa11f98cdd867e514d20cd0bbb2e2e7643558bd8487f5accd87762d8269211d96cddb185e525f309bc9cf8d4bd7af4648eec95a6296bb3182c283c17eee9bbecd8743aefa47a443238303d59435c68dcbe62b55682b50a03c88a118a89565454b1f4d08c42f129ba52c2ed86d3600ea8812bea6e55493be6612b81444430de4410104b787a416ede1a1301fb859940633a5ffa61323992d043a6b88fe4ace09a58c25b6e9fa0b49f0c0ea503bf164d5759223cc373ce5c170bfd2bcc6df381e7f611ff03cc0bb8021488f6f2153faa2a2bdb59bc6d07983c07ce81bb7eff15d35d3d4aa792ea8cc94c07fc11e1007330ca1238e7de7a629dc4efab94cb0bd6a2b34356c3803e4eaf161954bd5b46de575ea0639116c06b47e0cec1efbc5a4d578a46ec1fe429a79e10c035ff57219d4b80b20b9c7be34101c23206889d85f5d83ad8e520a36bfcbabfa82515951c7e7fa20441aac2d5f692d2def87ba7a6b7302a0f38e663a464644505be2fc5021cbcece789a5573acc772c666aef403b30e2fb51b41bfcd46b5ce9282e68fe439faca3257bfb2602e28a395dbc4c8f30425a799876f3d95e33549796d4518adede7ff0eeb2f8598d43a8010bec0ff213e5bff817130a742417475020c5d85b65497539f2dcaacb5f222feeba3a808741f0ea0c66664369ff83dfd07aac97d1ece7f5a9cf9c5fefd5e6f47ef9bf0d16189a01b9bbd68f655edbd32b8d0b37c10fd4b9a9f2c0bf8e265a8c2e0ac85337dbbe23d10c8fbe392bbe3a7ec99cd04e59102023c604229cf0bf19a90b5784c8eba0fc1a17004b6883a8a9ad4d0e3f7a125757c873d86ef03b34f98f4f3324f408d558d503ede50496176e2d5b56f04a96d4ad541fdeb35410fad2ca37c9de4f4e138023b5533aa8f62aa42b302a3fa3da3c61acebf5e75d5b4974152405bd4a8743eaf85561728cea3dd6de8272d9df0ee85f0c5550ac64f0478f56d1a31bdc5c7c74bb7f34afca500999c12428c1bed910d5e06298abe092be60c0ff0eba5b242ad72b49817dcbb6904873e65b7350914d38c1eb3086083b38e4a99637c8731f05f5b6aeec670f5d82635b6fe356247580ecff78b9ba5675a1b061ec7f2cab33bd7567a4cda50dbf340ffe00669e0589d90e4246185c7fffb691bb5822c9891791dc7398c324de97cd406ac6c57a9219bb924cf3013ead9e694ac488e04fad21e7fd358aacc94a421c586c9bd1d25543bbd9a512c6e181645f6db6407072cc72ca9bc1cb18fe15e91115e95774ef49c46c6b6d442b593a913be7c837859c39d1eb41fd5c1f651447e77ae79415c6ea9bcfbf27ad28a0beed126f87da3f31f97f12b2d5890f9be557cfc0fdfe7a529378e59805b985dc9d3850615466d51076ae65121f79e92673183d200e83547f37c44533a535fb80427879bc5062ab4ac7091a5b6d77f9a321608987a765221decc21b59edce11696a2048feb5939acfe4eda865a4fa419db84bdb481c5e23999362a536dc5b0ff4e7b6e1e588fb4b63e98edc6bb3e9e3d9d1a2cae2828b4257a8b9608df3dfb447af851b7f91eaedaeb6d1e1b2df2d173e40efa0bf99ce41d953de5cebd3be2f42ed7850915b1af965887521d323d9d699096efd16ae160bddf412d7e1633cb8b6f318d11db2b284c10ca95be9ed64016e043770bb77bc92ba118a066704b3750305d8a9b152afc82236ae9b7677ea9ba99d6d16c7c78343553e52d33e096c3f83b4ca43bb60a5ff5a304fdca107b7762ceae5610134e896226d873210098569ae4470de36c07bae8c24c2d0901d32911cf1dd4fbfc530f313666f095a417bf549a408f8c5840bf0dbebcdf45e834051a48aeb9133b541a084bad6ed6e996cf5f25ff0b684ae8d406d31d1007bd3c697b47289d920ea6acb2cb94fa25842bdd480c495a58954459d1d83f54f85635cf9d02bf7b50907eb41805840e0c58d6dc506dc6e56b745143bcc72016f8c249c574c6c99a2f837af4373c42b99d606e90dd03cd86a2e1d9380836f29d9bf1b12ffa75d8e049f48dc8ebb735bb244ca0e2cadd770d71b446d39266624f264bf03fc2026a03258b0b885a160d1d5cf343f5cce8783ab6a416b64cee34fa521688e96d9bb4da85b978996d6f141c87c6dc370534876866e9cfc89daeadabcc7a6a955774d3156f75a3bf1a387bb531a1f01fce8d64b02ed65dd478a7ac70d4f88fb7e91a49e90361e3593931fecd4afb44c7519b30d53f9b5916e1c987f46804e8470647a8801f09dbbb9757b86f878249c1605128000faecfda0c2bc9128d1c361f954ed45b66a52cb57500626273e3e02cc3c18419ec59b66eb4528306090ebaec08e22de3d2d90dfec7cfb398c2d9e8cf3a77d135e8c3ba41c08624c90ad46291e34a0333cced61e73b81a7d9e4c7533c9380a7479549705e124edda86775613c8bb08ebc6d66507104693c4bb2d9ead90ab192f3e55aa77bd14ee7cbeb17b6b78eca737bea2bd4f2ae77015f3880d76f2bb24602034f7b251988d343bce2755980089523ae0444222947942ff4119b03946f8b4e2e37e0d98594cd503bba568774121735f63d7fa991527730a419bf048bc6ab46721ca662ee59a0cf4a696026f324f752fe2255e3f0f789b9d9631bec290951a7cadfe54f551b9a0c53dac095a68a6cec47cf2428080068f8e035c5d8b0a43bd496a80d3b8ef6edd40a2308d620cb6894a5deb468b561bd7547af15a2ba40e174911d1c71ffeb6ae01e635f0a1ee5202b8d746c60d1c7862f3d8e46ba9907abc5be113421d02d0ef114d9b09795b91c9a8b52d78c75077fe199d94f380740877b4cbd0654fd0d206c46e873db0e27cc9a7c9103ff196424a69ac571cf83acba39732dfd1dc62d0c4ec508b814dd59a4a9cb1b269256cf22444edc9417598faeb1bfe3eb983e7eedee9ecf8a10f5f1aeccca84d916a225553cfe12162b41f1bdd86c0ef17f42d496b8e2be3f4b7e58d337da4a2d4baac2eccc372e36e52d3fa0c147af6d3c560d4f3dea4828cb693bb3cf10dcef2ceb96b678d594987f3cf781a76591e79582d264f04a821ab48818082ccd566af12a7ea70ef0462b8339bd6bb89608caeb59c6a394e72665c10a0aedaa02c5b7dd5f00aa6fd01649301dd995d76f0ea01e7dc3b97a2dc474c8d737b6412057b529e8f73b0f3916f341f1bbc1d2d0b5ecc20fef8cf3e68c4b3e6f21fff935a87af192d11aaad3f5603058a3cdd5a87626c38de576d2af7072006c2f51905c8a2efe19fd9ca21b6c41e088eaab8df6f55caeaa63c3dbac56003309657130df699bfef2a2d5a3ce5955ceb74d2a1ae4335abd23ed449ae157bb568d381f805fadc6dba55bb8f550638425b6ccc5c7720c3e5ed907ebc59925cba7287135d5efdbe6547f8298f2b7963783fa15738344351385facd24e9d10ec01a0dbe2c7e22731f2c5c3e98fe1ffb72bac791926cd28ff785cdcd469ecd0859f7cf8ab4d19ed755eb204eb56f63cef9ae5ecb61c4312783e71e196c312da4fddcab53ac37db138209a7a9f793effb73bd90013d1128faf361dedec8db739de043e4d3138ed39d5c52fdbf88e7ebc0efa73e27149401a237124de7f269527f8dff06286fcb6e3300b7265d3027cb6eaa4b9605dad43d322b4a09223a0b03689bf3dbcc2a874eb25ade3704b295b7ccf721bb37bad400c2ada5809e3fc37bdb6b57493e2907288e53b7c1fab4c11068e3093b27d9f5a33f4a35bfdb229724c1c965ec3334e41d140549e94d86f53198b9d481f29468c55b1df51e1aae3d503c1385ce6d03afedd6c02ac92099434df021ba27337cefa6f5267b1b7bbdadbeceefa77989eb1b9f51a353f4044565ba2f60f1213222838414f5e7376dd426469a5d5f5497e839af3fe1a2b2c48696b8ce0e6f6f70507587eb4c1c800000000000000000a1019252b313c430100",
      "utxos": [
        {
          "covenant_data": "01c93d374920700a5a9a7d24e5dcb42676aa0bb34e1edee852f043e385567cd95a",
          "covenant_type": 0,
          "created_by_coinbase": false,
          "creation_height": 0,
          "txid": "abababababababababababababababababababababababababababababababab",
          "value": 100,
          "vout": 0
        }
      ]
    }
  ]
}
