{
  "gate": "devnet-vault-create-01",
  "vectors": [
    {
      "block_timestamp": 1000,
      "chain_id_hex": "88f8a9acdeeb902e27aa2fdcb8c46ecf818bf68dec5273ec1bcc5084e2333103",
      "expect_fee": 10,
      "expect_ok": true,
      "expect_utxo_count": 1,
      "height": 200,
      "id": "DEVNET-VAULT-CREATE-01",
      "op": "utxo_apply_basic",
      "tx_hex": "0100000000010000000000000001abababababababababababababababababababababababababababababababab000000000000000000015a00000000000000010164c2516f7dffa167402e2b1cc525671e7f97052191b3d056d18ee2536b574d6478010189ad785eddc7f1b81ff17e53ad8da514c22a55f732711b7ede1ed838b3b368bd010088572f0c81a23b398e0fd965932e7c97bab947b6f56486c73652825be23bca77000000000101fd200ae14d054c200dc4418da11b949687c9fa4f41073bf65ee92899ccf310c51f5f3b229a1c63157e5b1f236581be2018db5f7296dd3a1bcc02936252a5def3888184d1a257b43c5e81bcf03d0677947d3dc267ff8fcb2590ad45277010c3501e10d330509717f7df817cb0ed00a3bffab9937ecd25832f4c670db8a2eff139d1a52f779cf7d15690d6f53f1262619fa0a80625cd3b3745b60fd01841423f1b619d9dbc926a10712bb4827d9ae5498b1f68f2a8fc19bffd93973fe12058bbb8f0161ca5c1af70b86edc2e1e01959a1c9d529d983346fbc7356538880abfb4e6e7cfec14a6538f71e353aca98ad58549354b493316f03ff1c656f1982a800ad1289143675a1c6187a1df3724708af2f2778181c342b239583b5c74378ab3f6727c4226cb3c26a4eea0b696c23e7e59c3d1507c9db960dec02a052e172a4ae8fc0719ab9571c9f4bda470ba6aabfba640262b0fd96719e756984423420480c4b58b300f62c608a1e887fed8ce90fb6237eb3067beeb9a000c771e1e5203bf90a67f8fac864fa877d3de016ebc5ac88cbcac247d911d34f935a4bcea9525734d16bf4c58908cb27ba78212a1e8d8f4723e8470cf33f41335ed0f39090ca4d708d9aebed303ae438dc783410c1098e7dc0a3e3c783f64970842d6b47791d694a352bc380fafb0c53bf29a2d19861ce5cfd50ad5063c6ab4d0ebbdb5fcb86eae663adb760ccf8ba9064731d5b248d4b99a7baf26193d26257b1aa865d53dd1d64be94596703cae6835a64ebf80f10d0179e56c4d84006fbe2748df8798a9dfdad1017d697f7018b8d9b773c6a6da41589888d8548bd96a9cdcba9d4942350d3d1f5a292abbb5c368a5380a02bf7e23bfd825b036e6b46aea4a4d3c4d2fe5188e36699d477bc28d1b724d26f9f32c8ff8959d18c60bfbc3cfe53af92f6fadfc841e7fba2729bddab6cc84e3522c6d4092a5f9edc22daa9b615ba7c2a57aef08a9238c3ca378baf2d82668d7d884c528022dbb7404b910eea3f187629783f89465505438469c914a2e9cf47f460affbf7604962bfb5b8e0986c382eef05845a322a2e8d7cdbb96a2d15e48f30e5e1b479383ba9131848294bfd6e15c63da0f89c4d698ac2a2fe7cca598378c93a0ea7c8e356bfe2a374e62cdf08651f905651d3d1b06db19fc2ad18508b8c3a6ccec7894e53a78e7d4e0e45e632d3591a46a33519d7287f821c96987547b49466544e670fcc7860ad76535a763b31556661957b7f55315fdcfbe16faddd9280e45ae3d8739fcec22f4813164dcc02f1c652c720c945709d105368cff8982718ca2f0856e9216c4f3ea17f9c9197504d38805fe854df16e28ef7e3199db7cc2f9a219e907cfd2fd1c79388283606bbe871e8803220640d0882b8af55ffe0730d287965bf005979fc6eabcbb963bd609b108adb54ebb5964b0229cf75fc1c31855ac2924a928bbf2c6a50077e30814d5e4928d6c90963155421baa7357928e87529fba4fcf4e0f2c3cc9de63b2e40a55e95b9dbb90c5490510a43d64ca805b74214b64daa38fc6fb700da8bbba2bc8fecb3a2e522e7bd2a0ccabb53c5d34c10aad988dc76664d39c30e5e3c567bc15a585a5a2998b34fd59613e066318f5f799bd4b03501be3ca12376392de5ecfc3a8d6dbee2b5cb1a9359ea56c4d69588d6fa9c8754422a3d0c44e495d7184c17608f8d15b8e180297ac34baefdf4f5049dea99b580decb59dd00e8952593d920b34fe1a57da48277135d92adb9eb193c5280997051fb8d388a57b19fda31aeddca209386e67bbcfb67c6e0dd2bae37a08ee5860bafaa7378b5e54bf07816ac3f198c4d913b318d4d1a7f514bb48e646f67712c2562116a863fb71efe22af5322fa4f35f8c6767e9bfabe391b77d589e20e6c9e5cca1eae5fad9d7cb5dfef7f0d98c466ef6154e1732c98fff5a5606ef1c5bd7f18974f1ed8d2f4d52a6446bc22f800974b62fb6b372e7501f6e927ad0faf638e67eababb43c1750276b93a4c9e0cbf19265b8c351a77a7d715da8c6e9619d9b86f0ea99fefc89a7b6a572d1ae1fb60968e8532ff0645587fe72da05b9ddddb229d738352a74f31d149b0f7c6e1285c1bf3ab3411dde8a7e6c5cfd227853d964be5468885c5f2286f5271f27cdfdfa6ef40fcabf1aba47672e0a14aaa89946417587b416c6e07914e5f14b4995c7404d296313b87d2bee74dd8a693b7eea442ddeac5373e6f68dc9c893a5e0c2b8c7929536565af5efb47f1c30fa8625942a3e01eefac5d200f88644e96188ba3ba5a55a65df899fb56e351c882fdbde7a9c7be4d7b8b224c026c874d4bfa21b6bd09b413a89a0e32244f952d2ecbffb96d9aed48bbdbb4dd03d21bc02b0628a70303ad82438fd9ef441b667d4f58f730aa3096b03e05fbda6a9908633eb600f943f5f658e72a8291a4cec3ef6fcf1c885f8f9100b6f29979c0fb2d894da38d539df29e1daf1e7008921011f5cc63703d1361aeb802097bddcc9dd7eeceb82497b19bb1ad18e3f3b575fe1b26c4eaa439975f0a46c5fa88f931db0a3df4df37ff824a42d8b115c903d9c836fc52a984c094c00206cc690cd2fd72ddf1548aa56b26c6050fa9903159f90c0142528a9ba7572ff60a3599879f1a0fa54f18265673bfd63ca0a1c66c52b314d05cfe6e32617bac15fa89bb030581e8568110c2d23872b35b377db28e3ba614c6e4e5064c94506de518d28aba2367d68506645488843bc2344558cc239bbe1f3c47810f07fe744fb61d3150ea78e5add16649652b98d25a6cc047735dd3f6b566a49bdcf5823303f78afd45981ee1df37909958874b317eae51c1f7b58f4a25afbe723cb69b85937713dfedc27e7cd46094c50b1f49656cc55bf7df8fe116622c2eb02f0d37cca1a1d5eb70d61c7ce5195c156fd7fa8d050673fd3646874a85139c466c13e9c0d00144bb30214c2bbd09862a3101631de2833967575d2bd4f2235f9fb9cf8fa500f4d43d54ef4aa4bac79a27f78fb01d5a99300ba672c5ac6a15f6866b451a2611d0d54252cd7cffc43c1ae94e0d09d90d21f0b33865e537cbbdb095852a22c57f366e107f4ff6025490ec486197c980c42709c8802624c77523678757eb84580466dbc4b103c13d1091fea2aa54031f695759e2f3c2ea2dbce809a33fa7679ebe1badaf1ec3bda735b520d658129a08ead6df0ea70afefb3b345c3a32b48e919acc48721371bcda38ca73c07a19b8ab0be8fb0fcb995a4f3ba8a6ba705453c3b88004bd4779ba80860bcf13ea2039d730a50308de5f23677c3c65a81f4bcf429e010269990e6916111f1d2465fc2f10e518e40712dd305f8c6d5315d85a9ed75e0060d8dcfd2cf48a10e9dd41f44d14e020c801e1bc7ec39e68c25f36d6600adc04d64c9e85e1db8352e8c867490842c11647dd33a8195c94aab65c1fb1cc19fda335a43a77dd501d833e87d11473cbaa4722867912ff42f18d6b39a17ccfeca6442f8d69b3cdc3d858469ce323241478958e9a6d5df85c9ee8a4f8afd995ad712332d17241e00759a3dbd242b99615f5e80979d701eb4f52b80484e5d903f55d6d558b4a76712931572304538f265f009e6fc16099103204217829ff7761c788dd6cd9c7ab2e5c7bdb94b87e79b49a44d941ddc40d5b1129ba6fd14122b76945a2405c166b7e3b19d61268055133027bba5b1dd321cdab08dc807b9330b4691f9a94aaed7e310738f61c26e10877167a47a32391f37161822459200672f75be0a58e2b5efde9ac4febd97c77a547e9d0fc5f6cdac7dd62fd3142925b12347e51202f123e1cfd355002bf6a0d94f90bdd460add838e0bb977cb5973168826bdd8f36fb3a24d90e3a1ef622c147ed4170e1b0d67acc40a3dcc191a39723b4c3999d4463ddec5d8e4ba40d8fe2644b6a504ea60e272294c6dde1dac1ecd28217208758f3bf4085595500fdda1dcefe9880f0646d035c996327f5dd078fd7d51ac3e4252ab7206e94b79889af1c4df3e66d048cb0e77a54f4266a01b5b1cbd90ae8d6b2b4992a060f3aa86e1722927e04cf0e64b30704e7257bc317d03517480953a582a6cb76255d8cfe147a3a7111a85a9206dfe5b5d22dc4c992fa84a2add951f39596967e4ca64e8479b6400d8eeb053b838dabfc57590f0ac2fdfc332fa16e42bc3c813a7b2051115ec062bbbe70951ac9cf085c22d6959e9f9d1178aa1412bbfa07af4709884cfc629eb69c09909d33b9816346fc4e605cff10c00dcaaf897cb2105480771775dce255edc2c9d3bd33f16ab9fc3ef4aca851e1cac1c1ca8f0e40f65eb82fe02b2d6514a7c7a14342d996bbb4df0ea787e5034a9f137f4521d9c7f2aa20ce4f57c52586357594dc8218f3bf52c9ac0e8a0edb3ed4d3cef52f5548d1123850caa0a95b32523a9f4aa13f25a975d35d28aec9c856645f1ebc4046b741891fe5114ace367533f304c00dd93d995ec7f49f36d2be668d2903c0cc5b9709e4d75d2495bd0108c3835b70b3247a7573e50bc820aecc671be888b9c610ae1c48c51d0d89634aae99d338fce4a599595914a84372ba9f750ab77f3a8c04141c213dd4d5fa1651d83908243a36e96229023337423c0b6bb3dc6a86b977d58377c55bf5bbe93b95c9e65dbb99dc31888b6ceb3ebd031a6c6a0f316247d203c7e10376ed6b7f306ae0b5110b59d9a361ec801f4ab3f60de852f40fe56363f079535e1de1bce4b18486abb712fed0d3eadfd2a79b4d6351f078031a258389973ebd1d5f6d06e97541e5cb913afa1299e56c43ad3293ed30e16845b94b0c27da1867512b25a25401ed8804c5b468ccfdc8f2fa84e8ebcb88b750c17fe9692b4462bb08cbfd1cfdb682572f1dd3a937a78d43305cf405b043efc724061cd8144e87fb84096bc32418957b26ad9f77f82737af3b5136cb838e15db70e439e631d68dd7d4902e363512f6ea37db074f847ab583ac993e4997167ee91da7c1e387525e7f4b64efa6c1ff7823d01a7a1951bd8f4f28dd1f11797776a8b0e7a67a99b4e3f3dcc713d18bf46cf4e45bd4c0d56cef41bb786e172ab06ee86a86b6331a15ebdaa3a276ca8d7a023687465461207c8c06db769ce4f906512cf04185ebea0bbfa8a196006f977a2ca874e930ee69732ad047fa277247adec9da042054486c4adb29a10eeaca434318a6d72cb85576bc1199d0c732214de5b739f3ab2c59a3b1723eb5255e34f874be80a646e49df6844b94c2e7c69c5b92711af7964053772ede20d58b4cf4ddd8b3f68788495b27ec8312e40a878c6b2c94b40bcb3451205e75e4002825722c884d97a52bf6d8eefae1d60c347343f05634464d6b475a363092eb2c2000f7325889917c5a2d2669e9630835b07a2e0332fd347b2e93e7189ad6843c7abf3ab7dee5f31a1558c6c872051591388daa418635c2bfd993d5efd06eb1529072271b9032a0e8b7c18a56e746e2aa5832de05d48c0ba8a9998cb373f92983873d94d065ce1bf32210709d6783a44ccbbbcf1a2e51dde5096145f1005e6cfd61a1a8821572099e90c705adf6bd2b9361f8e7f20f389741cb74c188d62df07e3e1b8cf421d921a527a56bc85030f9ef56bb4fd8b33701af7cdc26082b11b11dffca6edbd392343e44818d8139d27155d1a5b4a4b545784cad71ad16c803d0d5ec5ce4277e9ad1a600a7d98e8e62d20118f3c8b3c333f4eacf1428afee33a18f708bc95000a60104cade106ed5b221c7892314897579b77ff721160768b28d016945a1a63b397fd8c24c88cb8583464378cfd565edbb451e6f254f5e8dff7479725cf6a2b1babc0b1d32361770a53fdf3da13cc0a2a56c5344700cfd2bbccb8bb38c134fe5abc607f89a206dc249793a62fc6d45834d24d239b6213628bee456d6e3e6c7f9a2816572e2f77612844d74e83c94962a2d80d0bb414337a7b4f0cc883c0f044ab7c8fab21821dafb3fd651b2e73caaeb08f7bb42e4e54a76dc6b39b33a6144c27fed547e6d1996e321393f952d2384a30e43eff6e0b859128a9e88783233fdb111233d1107e968f4064c3873b87a6e92f49f4f17e24437737d6556f48b37f39299b055f1aab378df56c399c93eafa9fe08948c476fbfd932a7a811bef332a012eda680549a79bd896f01fdb228c9bc33012029700aca88413361b24b81dbb07137b7201d7b2e6ca3a1a929a98cee94dfd31ea4d262448d5e7ceda0731eadd999673a456b4dc3d1d926b645731b9484db02ae44ae580dfb0d04d8539a4b50f8bd50319c39f39e39ae9fbc7faf42cbcf2b4a3ca0dcbd50adea95cb1ebaf79f0fd64f1cf6a11deae6dd03a6c581cc377a47e7d45586994677849b261acaea5ea9f25537b01a40cd6c39306915805f5383cddc27006b37f4e25b1a00edb3d12a107d3a54adc8e6538dfcb32a428fdb7a88ea8689ed321181c8bb3c3f54d7461e04d54459454b2888a939bd883e5bff7926c281bb324d4eb945726fb969a3d43d8fa666b3d15aba31662cad02baad0010a242714c8b2f66577c383e576beef662e507121af887809463de2e37bd111fd2ce07fc790b5633ded437a1d393faadd5cc938d3fa3b7fd7e0dcd8de68aa4eb0cbd6ae9f9d351171ca9ec08e2b569166e70a78eb9ff7c41d0c7293e0574566bc6333667ce0668218e992a33b53b7e2ed52da9fd0b54d3a1bd55f65c241066601fc7a1d141fd6b9d5c375184c69baf8f96367f0e556fc0150eeb68b680a6c5b5e1fbf6864eb0077777b3f70b8f3478ec24cb30cd3cbaa2c2fcc781def44853a1061f7df9bfa66ef1556d41a31945787603151d84041ec898bd1a74c95012d442b3dc93243eb9fe8d19266b1bf693d969cb7bea740f34a58381450660b53775c61924dbb9beb056d910b7b598adbf6521cb79d55c2d983c601d74db7fcb2abcdfb42b9e77a0165a19b292524a5b4a3a09ef33de3afb05969c1fd26f71308a166261c42063c8381f395712786e52e56299897fd568281346d732f1fbb66d92d251102ebde1508421e4d719b11a887d73978fd02a23ed957e2090a24a2452400c03d6df7e2d528f128525c4e44d8ebb03ad8074c9a0c13d99b59baa4f8e818f677e4a5f7ffa753d77022fb16aeafcbbae351e5df7a8478f767d36383c2d2d82be7e6217d3a32779795b1693c2234f8824b1f7843ce3ea624421c6d1972bd6249003523fbcae0946cfc64fc672769888eda82a14e6384a47ad8387e03da5fb138e396443a7054395927cd74973af661bb759e5844906257a6b275011431003077562ac5dbd4f9f099c8253528dd73a7d7a767b4dbe57ece6e2001d3dfbb905db915453e9dfddfc1d02c4b314bbf91b12ead66ffaad6319c8b0672182427fb9dd2a817ea0b51e936317dc98a8331440382d626488192d8399853de5c44652374c345b3b2a15a6b936363bd65177b5d99f6eb975f64f07e741df8c371d28c61b82ccc8dbf1fa0c3767c00d40b86e7989e488e7bae24a371fb9d9cb24df9cd71f41bddc50feb8a7afc7f8ffcea21d17de226492f18e60df5d097a0b119187231bc6a580d7046e78038bf537e35ceab5afce5e8961e11c55bf8a187068191dc4455adfebdc53196c9cc25879dda9aa68302f477a7f59e5d42bed53ec9cf39e0c324310a771d85457a1561349f5d1281467eac54f781f9bf664b4d49f35408d1cb2e6088ffddd2f09375be22bc4481c6453bf084dd7deb6e437bd07a4a7d52346aa741c4fd223f649dc10bd3c3ed8e976cfc30a713760c7a0be9d2c7da0bd81ee77d70491e063ec8ab9a88affe07cd15679f61e38c791f4dfb8f0a890926c8e9d0c98599117f0f1da2c00aebd3f1c01e468b7251a733bf3d39dc137d94fcb3487bccf7bfe0daf353197dbf6906e2047ed52b89fd49aa7d21859efc499590bae229af7dd6b4d4ea4f5c988aff138c803aa732f8615751868429407ac414a63efc78523d1392c08f9f3c779126c2cd167e8d868dac16aeef67e95a01c59532b9314afa7f2eecd58d9d0d554f938736075f59e807ea2eb5bd2578c4c8090f9a89945d33f9d3b65265927e50acf212c4cbf75e50e64d36db30cdf7c36002c8c8d3a66ea17ce6660d66fee53a84f735abdb5f6341f28dabba1e357c8909349b959b2e8b84ae0e6a06eb7e61e57d8a30ad495212988fc15dbf68ce28f61b37373092ae8d092bc4471d8fee36c1ea92c495810caa8ce728da086f8161c419b7f7f8209db17cff214c80ee860176210333c1a211c81463a009401eb73f6502dc9e1ff775c3929440a8cc027dc51e0ffdd51177d11b18cd34d1851a77705d7debddd460b93281d55743396afbcf8e2ca436185e9378bb0236f50bcba88e7828c058d4f5fa5911a1d8503910efc8f34d5e7d900bde8665f4dab330740939d7a96da3135d389132e2ea1c71bddbb3ec4c8d6542c07020a3f4f6f138ece143dc311c71b0541b40f2de3b13fe5d23d372612fa5d426b023229ea405d1091358ffa00a1f31608850496f3de39c0fdc5f79040c9d142fd965df809a53188babf37ee128d1d4eb6012c0c8dac3552f2410111eda4c912723847bec6385bcdc5fa4dbd746e35db663d662cd242aa95bd7f783c677da0f285109ae8081a88bd7c49be7bd6957cafe75988ad1e723ca51316af580aca362b1d225d56448a6934bd0f830ffd2f020eaaadeba31f25ef71353611d658a95912c3bcb3b40ed129162472e9b6663d4182205e1c96997e149aa13a61f35d0113c41b6ffbba3404a8ccb1dd8c967c930d22c9d09ee8c12e94dc6224074315f2ce9865c4a003d9264d5e06c00b531043c5dbf454835c8c2573a2f49536ce1fefa05f8b27ba36dd17f725a87846b286d0181997975e1d3fd5da0ba0a5670b45a65b1ee77b1cc5961cf199fe3b61eb0aa627cd0011cdfe578270bff5f6efdaa0d72f164cc6b4d36695861b54f9c81ce172c347c17ceee3dfb30b5d714fb05b930e824be832cc38f76e5df883fefb068f4a4ae3d14b8c8281ecdc40c116fa1a351fcc2253c7c5f18d8f57b4635e7b28b05073559f0b0ce6f119e165ad09483000da41a42759a434d05b4056dc5e16a8d2ad5f0884c1d1688fe582f1b39193406a8d6a7cb54b0ec971aed01c41ec62cc105fd61eb08d1d94fb6349c6c35d2b9f8462ae4c22c38959d06d50c7329e3a128b429d481489bb9dbd3d85cf266d41e9da999c87312c78567a9724d3a3042bd2902c7ec24f19833decc48904bbcce8e65c8802c10ea94809f85b0f421278078ad2a08d1e1829f9a457c92d9e1baf354022df6c423010b2a73a8a4031cc2bd670f47b3621c227c17d4cb9e852a6a78a6a0133644fa6428a289ab839cc290e9eff0b90c6034bafa0e8231577d01892d60b3a25cee7011e1944dc43b0c43fa517240ff76cafc3fe9e82257547eee2888174c5752abde8feefd8ba9ce196cd6eb58313f6aae3335e362347b170261a99444076ffa47e7a6e56cae3aad6ec725a3bb9166b968974b0fea47d119601d06a6e65feb5cbe773bb964f44a962b0e8cf3b2bf312e8e65920b22ed70890c0803bc5a6efdb10e85640aa08d544c38776b331bb9d3ed2cc32fc58965306fcc9b219d45c7fcecd3a1804ea380036bc51739be70c64439bdc2b21c10e491ddfdc8fb9b1c3ef35554693fb837cd32975ca5047d7a51b0ec5a1ed23aee7bf112f79535ad3305258a348581bfa5379242a99d7a2011df18053fa3e057dce84f995c1d7a5f5e75a5be8d031ccf5265665e6b4210183d52c17c6ccc9a57c4a5f55b6a95043d262b992977b581ce32319cc6c649b091e4ec4a8fca067e91d823469f1ddaa73b70a6e45bc8001b1a342ac03f9dad9b1523f61f128c421c00182673420ede0f0d929c96c349c36e2cdf71e281ec21cc508498b1186c686e3e885988b517ab4074a4485a8901fc6674e63791c5aed293d88f16c484dbb602c4d7ed678b20a92b0fe7cf834a38adde9cf45431423d3262a4e5215ffbbdaab1e3dedb6abd02205d8487d3c630723fb3f6fff9254268b2dc2ec02e9eba7349b9c6f3c54f8247cae6ff23f2ceabfb9b550d85f3f7bfe7887002fd02d7189f455774e5bf21330450e1048883020c1043798a8eaeb9ca487fb9cded323e48778199de153b61665c6284a72934546f9fcfd31c2f31525678ef284580969ce1000000000000000000000000000000000000000000000000000a0f161a1e252c320100",
      "utxos": [
        {
          "covenant_data": "01e28b2d8bdd9b46cd6024f76455437667dda9a7dbe3a790f3b3b5675a12ea8b0a",
          "covenant_type": 0,
          "created_by_coinbase": false,
          "creation_height": 0,
          "txid": "abababababababababababababababababababababababababababababababab",
          "value": 100,
          "vout": 0
        }
      ]
    }
  ]
}
