{
  "gate": "devnet-multisig-spend-01",
  "vectors": [
    {
      "block_timestamp": 1000,
      "chain_id_hex": "88f8a9acdeeb902e27aa2fdcb8c46ecf818bf68dec5273ec1bcc5084e2333103",
      "expect_fee": 10,
      "expect_ok": true,
      "expect_utxo_count": 1,
      "height": 200,
      "id": "DEVNET-MULTISIG-SPEND-01",
      "op": "utxo_apply_basic",
      "tx_hex": "0100000000010000000000000001abababababababababababababababababababababababababababababababab000000000000000000015a000000000000000000210196658cbe0a27a369422b8632a3a51be12161c933264f0e164d6aa560c4829265000000000101fd200a135b7fc22b1216edad312acf4317355b92571111f55c7e2d43256bc66944213570536c00ca065f228b75b46de4a32d55e946f14ae54df68fd54451e87ce7f5166446fc35a09e4e177b174c5c1938bd2416a61a77f34ae4a5c93517f7440c06a9d4235f155746cf9da747c83e99ec2cf834e75587bbe9ae1b587522b076939b931ee8840618a9e8bba13c2a2838217f06e342df7d005ac12972c5569520da23052d578cbb02e4b6806a6e562e3f496e9aaa77264c6ad9385f5a0a2b1d9b793fdf5fa598e12af4c111951ff20b15c9ca5b849d9e984105ca6e1c2acf0f225dd2bceef3bee8e908bd297c0f4d73fb1f837f361267f231b02a6da7d738e83fdb239e7da294878e600040d14cb0e3a782a115857c0a2f16e7de890647853a7e6a8112ea2652be69d3f0a6d82140911021f8c6a4e76e55c178a524c6c830f188e3aaa770e882877b4058d11dd166a40517c5f32292221df156c0d9171ffa8579727f2b3d226151925d6d0fa7dae306283ea74bc304abf9f23f1d6a49b0f756b3ba9d729dc3123f26e178fab42768763d0efc06b6545302c76a1358fb54b968c298872ce59e021a8e0c4ac4e223041c2ea31a98fc8d4f3cb3eea0be1f9b56dd3b76f226ed0f5c8e2fccb8e53fc2965f063ed3aadc54f59cf97653102360e8905b4f8868dac6d9126830657eeb5978b5e5d08b9f550b4f730fc31e3043f77c1b941946f9eb29d01d23279ab138c37a8ee432cd345c2e25fb438c4d88530338628cb52d415e56aaeda7fa361ecfb327b2d5c332180f20d3dcacc481227ba1ac2c674c78fd168a728ebb1fe770758fbfc1fe72b5def36e4ce972aad03774120544845db79f9a2b6e976f54e6dcb45cb8ec520bcba047c91e81254b9699dfb76119cffc3afeed7a15ef13c1a6fc75e26346ed782718953c21bfcb4f9c4afac3f93ba0a214fee4c78e827f05775fc36a1ebf413053bfbfdc36fd839afab0f43e13e05ddd50e2d47246f0c5e0918bac56fd9803d49985670f9abc7330a726efbddbff6288b68d89604d11db66759a0e4e270194cfae1aadf8eabb886889fa22e13eeebeb5969a8c284ed545d184cac7f87fbe8aee5dd19ae4be800447c89fb96aa047f15735ed3c70fea0712a1c719c6f5a0718767571fc92557449e0b6bb0a8fcd522b19af5493f52433738903830874c8606543e416ca974bcb27939eeee4aa6e948308a3525de4f13febe4d721a0506fed7a7b7c9fc5553ffa3eb41d52e32a767ef0193271d86a2e2bc6ab6d49951321ea8ab4b7be25d072b14d0fe55411776372049233627f05081c8ffa616a2b5af0f87815ccb214a544374beb53b4b365ff7a809215c8dad0a28acf7584b8edbebe7314b7f9672cd83cd0d4b90eed65c4a52e9a8d90a981fc5833e7aa675b6bbf56bdebd1f235c625961c18da73003ec034ae62ca72e992de17b00dbcdaa71c99b9e6a472f83f696ced9e76c369884e47cc23413acfe260ecadb119d5f03eacb16cc1cff316b1de1ceda306cb600783902f5b63b1d180420de187c6e93949da0afbe94b5d557403aa7e9c98a4edd987bd97cd46a9a3aa9580eda9528c986947d161a8187828984aa4983c6254c0b1cfadef77149c8cea0f76164ed6c0ccedff6481ffab676efa6768060175dd489b94f42fd303a8469885d7ebb3e319e403966c8dcd541801d06dac3ad3666b3664f17e667b3e6132415b034978a9d641201f5500cf52a0a2b42fc11713b101ef03d27778c4b25fc6b92517f89aecb5c6a774a3df2329c7ec976e734c4c41e42d6923dee24edd12de38891b372740d301872a038aeeeef01ba2a59332f9f7ede1ff88b7bd4a3f579fbd10eac282fac67b59cf01d86b99e290e458b01e16fb0d41b83bf46602d680941927adfec7fcf3284abc9a2977f33a1db2656a4ce8ef1225df8e83fb6d17d8108e0e6595f5540468352f5b44b1d60089426610fd86a07973af5571204812be996c3343130374213fff915defb7cdebe444907e2590844145878b1909187b645b90f2a36032654feee97205a3dd9cb9fb90ff752f7cb530cee973460079acf9d8a59205f12d30e934a95b147dfbc0ff4cd8945f14c87a5c8f59b982ef98c54ac92e38112f1bcd7b8f2b7c7d5b28dea1f826b314c82d746161dda38c83358aa07abef8c5bf6968f6f215c7ec37ef54e21ca5261156a8e322fbb543ffd6916f9fa7204086008da0450937c74f07eb85f7d30a7ea75b434bd7b98c8639f0b8e5fc26b7d0c9cc9d39c1ff0dd7a5d780d5683b05c86c78ced56e89db010aca8b65fb492fad6733996d5047bf6c448148afe6c71e98be9da544332bee212a19042992fb7cdcf33a77463a6d59b3e26809387dcb4b5e5ab2cf304f998030fcd95121546d38a00dfe296ad6e78af0bd55268da8b53b9325ce585f01c3102c3a07ab5759c29505995fe8925d28d65bc8498193d4ae46e9aa2019f52d25034a66df0c015f35133718f80509cb251c5b80583720c23c1eccc839a598be064f15b8bf0cc56178a1e33f30782462b94745e1da1e976e07be15d9b48487236b0940c4ebe099c38225c94ec34d494273eebe7aa01401df7c89b8ddbf880e9146c678401bd9377dd20fa7ebeec93a3262266a813cd4aed7479bc519c98aba8730332db3cc686baa2f288755a6c48badb4fc440514fad37db4bf496783155fc4719c53070a133a64c7521eaf582d65123c4d4d6fd36ca03b4e22dcee719847e56ce8c69263101ef62e71b909859dcc3b973a2651c50b18cae827c8c2aab3f6312626ceb0c4b9c4c81dd8fb8a0e606f71ff8035a7129dfb605c139a6b9d95e59c096e88dc7516427b2e97cdef5fcb8bcdc9843944aad0a89fd5d90c3f1bdc8572cbec60bf03989705287734971017b00a91fbc39e45cdff5f986b3a95d294d7d13ea8a569c62e067143e08b410e805b10d74364d09fc1f5661f2c3aac7ed08683815e56a24a30762db64f3facaaf83db90c084e85b56a9499705448010a229531c5bbbc18cad9f489c859a981fdefecc164adc80f5a851ad2a205c2c0d29fcdfaf8e4da2debb66c1938f05b8785e2ba866da3be66916648a13f8dbb4f640d544431e75dc562e81f26e424364dbe920f5b7a61476158ef9ce4b519392d172edb7594d571323d79d3de30b01e7a1fce43705749a13a1aee13069627eaedca437e1d3dac5baaa1c2fc3e56e43533f27b086e54d191646e58e8c9f92a0346040ad1df3fc6e0a52b439dfbeb2bdaaa6faacc006e98096fd806b0d2de74e098d7b6e4d5a35d2146c683caeb20ef8998b028a91cbbcfdd4d5f1d7fa07526412db4f06713197a5c9bc2d33a2567bf294adfa4252c9a8f9655f97cc46dd13b8f9f8a7bb4836234bb2212fe72a8cd9b472c4acd43886066bb4dd18d1ec63f4d44f3d295dd153d6531f5e991695146583e08445cda7be63cfd250b841e87311957e20c720ebfff444f2ade057d99a5118e3a9c81f6ab32aa7f31a73c78a0f2878b75d8172d4fda290a4e3a1183af58051a458cb83250fecbe3cf0479e61f7eb590cfcfd9885d78b0c5e55690b95edc07cc1e64c72f0a82a5c7e203a04682ef6f02ce3c1087dc8f93b59d1cf45d73701da3b2cc6ea56b158f4fc0d87237f72d02a7e6a7e7cd774ef2b6f91a91130cc5d8fd14120a5289f562fac769cea85367c693d0a76ab1942a4b663e8f7a99828bce8841f455356db469ed8bbb2d221e77b55c5936c754569fb604e7e7cabbe151e8fc7d9370fcccc79dbb4e05be9e2552e082fa3b869654483cc215ae84c94b89c19c5ca37e6c192d4bb5a9f7dc99a6d455d15ebdcc445b89c010119f99bbbbcc4b576f1eaa3bb51ecda3f328b4712842af274817922ad562b7a3894d1d9f577135f96b21e488c9c2708fc6929a1ea3a24f3b56365b7b8a436ec0289468439c965754ede767396ece6f204f5cffb4d9f9c7ea99daee6c6f742eddf9f9b1fef75e4623a652328d1a2a6dee7875fc2169828f9c201d481b835e55f98cf0309af649b30f165b0e0aa9578ed7d98c1a38e1bfe89c8902109aea75148b47d46665a3d2a8bf499b9c30233f813e6eb0a8ccb84a5fe9b50268d550678138dcb2a7d9662fb5e0f23b0403072ef63fa3bedeacea57a40659e488d217b231051cc164cd8353ba6b1d2b004bac64740276e0084caf4467c79be3dc65c3fddd34d755950dd09a334a8b921e2a7d93e0faaa729e0755e660888012408e4d3e35ed299eccf02258163ea89a9916998b79d3c78cf739a44343f69c20cb31740160abea7b274867736156feaa1e63b7cfa07ec938d3bf8336944e451737c9c917201779afb81638f574f8beda4715c54601306a1aa083bba942cc759fe27aaf752c9b34080e1c5d83ec4d5939ccc610c8d70627ef0aef67889c00c6e93684d27e1655c3d4537dac5bc6cfc3f3c48240373f58e57e0438e33eb2d5a1d25357f5088b77496367692f7e30ff92594cd8bffc4485c393c9c6cec41a52540f78a1ee8dddd37db5a3b11ea923d86c66acb1e8926a42ffb9aecd19e5eab6a89605d333b9cb5d33cbb1487fecde7c20538eec72b41939a4da2f8586db0b93e08b6b19efd0eeb4c348eaf5e25d377b521a375915431cf9516738482ed44c9f2124420b99b886d64f0c5629244c1515b9bfcff10e6762508638549675852ac7c5a2258a1e3f7764e013baeca1240a8d0e55d086456a4fb9ebb493b1e7d1cbe581d0b7a92a4b20df132b35c2f92792b17c21d9240998c46fcc7e3a8436e8b3cf62f0f0b93be7485a5809824097032a7ca02af987ce6f40a91b0fba55501e8c4de2d8c143e873e26dbdae479da3818d28462b2731fcd23d9a80bb04907c8f1b942d2387402d1deec1262a3b2a6349fb917029a1089417fba9f5db1696cc8aec1cfc8fa45eee7861aa61fbcb7ac5671177bc2e313727ad181938f29db8d87f20b70dcb684911a6ffcdf3acc971d268304c7ce22177293023b73e3fcbd003a03beb2a1e4337ac059f05ddfb41e874063344b42b97c65cc5a7be019c3ed0832b2042c6b17fe64a2d18888bea14ea13575772f945803b044da17275f23729d57745ab519ef2a79e7b1337b78635304e9eff414e9b2bfb05cd71c7af2f6ad562c8844039468ea7ba22eb3aae13ce639cf2da7232be81416905746a1db371500d9058f11d8c6bcefd54994968eec16f42ef2018d8dabf87c4b9aaea2d6352453b8f8ebf73603a896f4fe76ce07a6b5b4bfca7901332fbe170b422c28c93c594dadaa9296e6321bcc5b432369dd38debdf878571b7a782fd59a867bd96d4336c874076e6e6e6a49c9e8c26886b284f81090b3a6b5cf5fa3d96f0434016702c4acc3eae7856f8428c20f8f9e528cf51438117d046b4872b9cd426689dd21940ea990ac9c28eff81c791f7fb13705c5e55337c52d1c5b96bfdd83520c40a6b480439cf5f95e96419c3c22df1a46dd07598c78868e2c7398313c678afd27f8c57809c5f6549046c27784fc30778e6cdcbb081f098f64ccaa5bb999e7c1a948096360cd71047ec8440aad8f4707346fb4072a57630ad948eea7676b6ef834979dfc201546deb86aad6c197bc27d8eb6eb58eafe167f9868828aea739301d8bc433c4d66afee8de5aa44779fb1a49ffb5cbc52de2fc2a19cd3a750741d0dd5b6c5d18f3797a387c2e0a1d5f0e553c23ab3007488dfd546957324eb39ec7dce3c0e1b3c5a6b718e351a525f9c416315848a5b691c8c25aee0129f88e2b11bc1e405070ff2e1aad285e0af9b2733acadea887f077a7182f7f3f37c84beb8a95fb2a2e8c29e0676103252df0f994314ed2f6869fdcf41b88dc056ae52cc4fce499d2edefb9f6da8c23554fb3c4416918086e5cd16a41a8b28aba7e2cb26991accdf79ae8152f745870570506ebeb272bbed2ed0e1b565058d2f93200ba8f1c9738a7dc90db8711a2c1fab2336e0b060e52b5ff22e65afeb0ae0d22dd3326b27f6f3f6b17699888e57190942d32476832e3dc835e952ce3c3dca8fc4514c05127057d09f121435e618edc42b6252bc3f70b628c9dd4f18ddc47b12a415f637d98965f5a73d4ed550c635a69d5f67388c7d34fd7a8e559c202ab670d563dff3cf983d06ef46fc6ebcf3d876ba6753e1dc815580e4523e6ccf63ec22df719b337c99a421fc33d7b59b7701392aaae61f1949451c95a603b060905164ca6116321495cd9f47d4f241f20ebf8464704abf5dcca9c78453300dcc6083673be1b3f0f4634d071932bce1da9874e313281baf4343d4cae11cc15856e21a28f091288ea20aad3be3fe8a2fd13c832a39eaa3fb08ee36fcef247213a85a86127e6281aa7755c5b46d8fc382ea9e220485d1e7086e29818273c5ccffac7ed8886c4b92916418fcdc5d6a530dd9ab0b9f8e41ccec898d15314ec51c1087c336aba5017802d1d12bdc2c972dcaab780f875d1ce7b3da5d9dd0c73d3310812c0e2800ae17888fa6c63ba74407e6ed27d7106c83316d808cfd0a0c0976ac615a07b68318acb6aecc0a14a8508145d83ce68d85baa27b292f3326ee6172c2ec41c995467a9d11ab2d43cf4902011b3cf258e24957950d439b9b547fd117549210e590063dc896e8de8b600f26a6e602776d50f0a23dd4cf648fc974338f88e8367b8af473adb0f18a5d98ee3706641ff1eede8a70c219e6a0eb6f4870384ca6900a35be7b40b4c78e9bf3189024bff25134f2b05e91dd34a43a51f9d199a932cb52c32ad3acf13391278530a27e7f6ab3c2020fc19d39200716fe54c6adb814ad789ed468252b200fc0abf8c176a45c0e8688e82a16445a1eccc52a4b0bcef3b73e36e25917f51d0af2e83aceb7a9e4b1d8e7a488837f32e3d3887035a2a81dfb1ab269f4eb78e57ab5ac92a75767b5ec0ddc57d7319c86f5291b5b4a95738c7dd370b63dd2e12cb8170a9336b9d1b238da742074c6973f8ab9c4035b1dbeb5a491969a7d3fd54cc230ef7704ff62702b383856aefe23c5473a10370ccb0acdb3f7950f1d34a4e615b41becb785d0ade172d827c09dfdf5b8311a667141aef68fb9a6d1d2f7cd792f4451194fc2c62328b23b9dcfc3c8db926d7da5cde444c0bcb1723afb04ed75f07869526dfd56be7cdfa3ebcfd79f023534ee9afb94d31002500cdb05e5fc23c62cdc599dc0de39cf184aaae314ee1a5adae36a2becff1fe882969961d574ce6f9d1bcb798f6e3b33220b023dfdb3c21ad9040d3e19a3c855725479483b8aad0b9150a89882b9ab00f5e905bb5c82b003ddf97d69e12a5eddd6944bca0fc5a0b21123594dcf030a01dc05a3bc0270dced0b82a58183224adbc07fa9b8f70038c9001c3220f4d74f6ee0a52e92d27df1c057d86acbc71d5026857c0be4b95161e952cd5faa726d4b81c02d585c311b81c75f446e061760da13e2f7e197f752088e7693477a617b964a06d5aa04acdf1bbf6f91d0d2cc1f3c77b0cbbd72babc51859e85f14f5af53a5c68315f301130a4e4a922ba8cee3c31d190a89723d99635eb8e03029475f9aab4a5e3510aa36371c59e9a82b676f14724a43be09ddf7a7efc71865fdcbcbc7e9d7d5b7d5a6d0ae36a850d3577916f5364688ca3aa224b25c81d941a038c1ef8ca53df2146d35a73780083822e34ff44efc775f1e3081ff26ccebd52a2a00715a059c3a970d1154a2ccbd74f7ead98dc11d51723b7e55a8e3fd7d07267fae2cbfb08337e5db8223d7972d5383116a646fd0de2b2e6d2b10ef0d08b327c6c9b79f26cf1b28d782ff265bb68ef636cee7a1bb269f8a04b2bae121de4fedee1f41f5ca9685db3cd7b3d6a802834fd1557b6211fbc75f5087c2af1b01f4a116ccc031b2e112ae5160a863d6072b982e502a453799e4084f9ca784ae929945c363e55b2cc160414d4c7cfdfa7f9b2ab595713ce059ca27d5520f58e18a6b98fbe9fdd215c580eb7c9dd71458814db53a07465906407c5dd52602bdaba2721d6b9a050e1212f2c250ce91760a3e4cca86f6bace1d20615ff40e475a5814cb14083c85b7991c439e14b6cd5c0ab1d2cd5a472f84316ccbba32b3894775fdab38dd6a2525e7c50d410f476ff8fb2491079565e6c4546e3f51dd54f7e5e41996efa8fe5192d41029fbd53fe38d1a906efa801eef7eff0ed9887ed36c0e7b87bd6348bb3503349b657609c52cc91d177ae6f859543b478fba2279f67dab9f932eceb0238c5fd57c5b251439c4e29c612429d952af6d9cd70ef8e86a63dd5df485cc5a1a25fa37f95e2974ba721d77b8a116b831fbcf6a5cc193378d3e3ded8b7e28e15d36b0f0c360a0fc0c89b24402fcf62828c15d6a18accfd7ac8b3b7fca4a8e5f2697031d0ee3671d0767fe3fac7a0769b14875f5b84439e2fcecd86695aa9cf8667efc3be80fb0261493b79d3d98810b96a91624892d72a9a54c4d946b78a17b69bded95d64d673d5272a61136770a1568413848fb762f6a0489522bb46f25b24ed17c2d752acf783b1640d25596276ccc98b1c25f816034c8c225e816ec9d4b151928b11a7668d26cf2e7d22e48766597974608cdbfc46ada32e229ed0f5ac9102d9b3794d6446fd803b6a7cca1e75d04fef9236d8ccba9fe16c392de9843a1417a083d84a756a823f1dfdee66e5962ad1337fa430dff8e1d26f654ffa772f6b88855d0bd84233a467fb2b1f02892dd2206b99b66b82156fa1b9c3f53d1a2294452d1638d418ceacbbb41f70d7b464c6221cd81a4653461a65aa035ff2b781f83ce849c395d39ce10c5177f14396533926b00b5976ae52358144b0b7a944d123ac8b03914126a0f41f8d4bd8d70d8926403868b4f8061ed82815f31c584ce9d219bec8d92473879db2a509242a569d22e9a1edba95a6f31070406dd85d7bbe6a9e4d8dfe774625798bcfca259cce5668c4c32c5ef6294b64885cdf5716ff3fa77798339db9861ee91d1d5c040d52ac292aa653bc5571e3954dc0d99d7ffe343a318dc350ce57cde1a422927c1f3ace82bb2e93dd0dffba36eba28f83ddc9b823b50fc3dd01fdec71818f87997b38bafe9a7b6f09a642141dcf19b2676687dc6eb7a68cca94849e61c7554756c725618e55606f5706682a2749e15045224900c97742f68abe3db5ba709dd3fd4ecd9ae680ab42858dd7711f85b04db2f19e8652f66a7443ba8f8025f372d6cb1f38e7e5475a3353750a938f84b80d9f1f7709403495d5cfbefa031977df27095a8638a04231b3aab4bc3c220d816b2478fb306b990c76cd26efedc9ca9d1e5cd927db6601c0d03b1e0d7b59aefc79459f87dec00a7e3a660099c41c059456f74a4f1f8ea37878bf29f52ef624038737c0fe9f9366c2fc60562e4f6d19e5973053a8153072801d6c65eb370dead8e17de9fb9d49407ffea68745e9eb3a21d489bc6153c887fd2ecc998d062d83e0cdbf84ccd593a54a62badf4c55745233e88474592ba6d22396602d1d089976a42536fc9c0088bb411346df63e7f0b9a63d5942294f0d22b35654b11c69e4160a4927d9f3ab9181e4321b64e581f90c75c2454f1dbed59490c7a4fa58672d7ecd5227b2caa97e55587f730864d1cb6e9375ec61ac9e691b0790c9f3258caab36daae3e8cd11edb9ca340bb6cd3c3761a053f65a0c68bdbf2e960ddc054cab1f8fc50e62ec88dacd9bb74162b54f452bec04c4c5ab73afb07724130ad16085464f8345c005e56e9ad51034e896f147ffcb08b7aa81b9b8bd7d717ec99c3712f950bc215f137967b51382938bdb43285b786e53c6d0ed9b3c42ebf6be1856013d8cd5a8d443874550cecc594f36472dfb22a14254fe8327349fe6150dcbcc5422f9bd4559aafbb64597fac1b7d94f603c510c97010394f1d2dcdc074d888b9a11ab1fe1e7e2bd499ed325f944b6968ffe679b59b71efc1fbdc44ba43da9f8100f4d2fc79810fdf530356014644e2f9ddaafbe2d48a7f3dd4314e48d9b3254e2cc57716106abf4339c011ac470dc930cbce19b36a4ac315285b1b63341f55667761619db19f0cae1a0d4e9b9a8d7157a793f47efac9b95e959cc4d97762c004109384401bf94c68e40fc7a74e876755a2657f793c347e70030b6780061b333941a1a3bbd8282d3c4a52546f76939eb2d5040a34498796c6d1dc29518cb0b2cde5252c4e58788cf9067f97abcf288faa0813282f47576d7ab1bce6f100000000000000000000000008141d242b30333f0100",
      "utxos": [
        {
          "covenant_data": "010196658cbe0a27a369422b8632a3a51be12161c933264f0e164d6aa560c4829265",
          "covenant_type": 260,
          "created_by_coinbase": false,
          "creation_height": 0,
          "txid": "abababababababababababababababababababababababababababababababab",
          "value": 100,
          "vout": 0
        }
      ]
    }
  ]
}
