{
  "gate": "CV-HTLC",
  "vectors": [
    {
      "expect_err": "TX_ERR_PARSE",
      "expect_ok": false,
      "id": "CV-HTLC-01",
      "op": "covenant_genesis_check",
      "tx_hex": "010000000001000000000000000001010000000000000000016954e89e15c3eef53f39d5e758fd47dfc84f15f042cd83edc0c93723e93b7d0a83000a00000000000000b3ec7cf4503854f1f691ffb3c0bde5e22af4705161edb20ede25a62e3209a716b3ec7cf4503854f1f691ffb3c0bde5e22af4705161edb20ede25a62e3209a716000000000000"
    },
    {
      "expect_err": "TX_ERR_COVENANT_TYPE_INVALID",
      "expect_ok": false,
      "id": "CV-HTLC-02",
      "op": "covenant_genesis_check",
      "tx_hex": "010000000001000000000000000001010000000000000000016954e89e15c3eef53f39d5e758fd47dfc84f15f042cd83edc0c93723e93b7d0a83020a00000000000000b3ec7cf4503854f1f691ffb3c0bde5e22af4705161edb20ede25a62e3209a716740f390c63f636b67acc3cc7a09df93e5c53804af23e0c70c074bd1271322694000000000000"
    },
    {
      "expect_err": "TX_ERR_COVENANT_TYPE_INVALID",
      "expect_ok": false,
      "id": "CV-HTLC-03",
      "op": "covenant_genesis_check",
      "tx_hex": "010000000001000000000000000001010000000000000000016854e89e15c3eef53f39d5e758fd47dfc84f15f042cd83edc0c93723e93b7d0a83000a00000000000000b3ec7cf4503854f1f691ffb3c0bde5e22af4705161edb20ede25a62e3209a716740f390c63f636b67acc3cc7a09df93e5c53804af23e0c70c074bd12713226000000000000"
    },
    {
      "block_timestamp": 2000,
      "expect_err": "TX_ERR_SIG_NONCANONICAL",
      "expect_ok": false,
      "height": 1000000,
      "id": "CV-HTLC-04",
      "op": "utxo_apply_basic",
      "tx_hex": "0100000000010000000000000001a4a4a4a4a4a4a4a4a4a4a4a4a4a4a4a4a4a4a4a4a4a4a4a4a4a4a4a4a4a4a4a4000000000000000000015a0000000000000000002101000000000000000000000000000000000000000000000000000000000000000000000000020020b3ec7cf4503854f1f691ffb3c0bde5e22af4705161edb20ede25a62e3209a71616001300727562696e2d68746c632d707265696d616765024011111111111111111111111111111111111111111111111111111111111111111111111111111111111111111111111111111111111111111111111111111111010100",
      "utxos": [
        {
          "covenant_data": "ff1c29db1f4da85ca6688c798e0ffe6c8422f6a4390b9b400c12fa9b674b2fa4000a00000000000000b3ec7cf4503854f1f691ffb3c0bde5e22af4705161edb20ede25a62e3209a716740f390c63f636b67acc3cc7a09df93e5c53804af23e0c70c074bd1271322694",
          "covenant_type": 256,
          "created_by_coinbase": false,
          "creation_height": 0,
          "txid": "a4a4a4a4a4a4a4a4a4a4a4a4a4a4a4a4a4a4a4a4a4a4a4a4a4a4a4a4a4a4a4a4",
          "value": 100,
          "vout": 0
        }
      ]
    },
    {
      "block_timestamp": 2000,
      "expect_err": "TX_ERR_SIG_NONCANONICAL",
      "expect_ok": false,
      "height": 1000000,
      "id": "CV-HTLC-05",
      "op": "utxo_apply_basic",
      "tx_hex": "0100000000010000000000000001a5a5a5a5a5a5a5a5a5a5a5a5a5a5a5a5a5a5a5a5a5a5a5a5a5a5a5a5a5a5a5a5000000000000000000015a0000000000000000002101000000000000000000000000000000000000000000000000000000000000000000000000020020e1a56f27a58e6f5778390d6c8ad36ffb6371c68bf46176a477abc6e8b23f107f16001300727562696e2d68746c632d707265696d616765024011111111111111111111111111111111111111111111111111111111111111111111111111111111111111111111111111111111111111111111111111111111010100",
      "utxos": [
        {
          "covenant_data": "54e89e15c3eef53f39d5e758fd47dfc84f15f042cd83edc0c93723e93b7d0a83000a00000000000000b3ec7cf4503854f1f691ffb3c0bde5e22af4705161edb20ede25a62e3209a716740f390c63f636b67acc3cc7a09df93e5c53804af23e0c70c074bd1271322694",
          "covenant_type": 256,
          "created_by_coinbase": false,
          "creation_height": 0,
          "txid": "a5a5a5a5a5a5a5a5a5a5a5a5a5a5a5a5a5a5a5a5a5a5a5a5a5a5a5a5a5a5a5a5",
          "value": 100,
          "vout": 0
        }
      ]
    },
    {
      "block_timestamp": 2000,
      "expect_err": "TX_ERR_SIG_NONCANONICAL",
      "expect_ok": false,
      "height": 1000000,
      "id": "CV-HTLC-06",
      "op": "utxo_apply_basic",
      "tx_hex": "0100000000010000000000000001a6a6a6a6a6a6a6a6a6a6a6a6a6a6a6a6a6a6a6a6a6a6a6a6a6a6a6a6a6a6a6a6000000000000000000015a0000000000000000002101000000000000000000000000000000000000000000000000000000000000000000000000020020e1a56f27a58e6f5778390d6c8ad36ffb6371c68bf46176a477abc6e8b23f107f0101024022222222222222222222222222222222222222222222222222222222222222222222222222222222222222222222222222222222222222222222222222222222010100",
      "utxos": [
        {
          "covenant_data": "54e89e15c3eef53f39d5e758fd47dfc84f15f042cd83edc0c93723e93b7d0a83000a00000000000000b3ec7cf4503854f1f691ffb3c0bde5e22af4705161edb20ede25a62e3209a716740f390c63f636b67acc3cc7a09df93e5c53804af23e0c70c074bd1271322694",
          "covenant_type": 256,
          "created_by_coinbase": false,
          "creation_height": 0,
          "txid": "a6a6a6a6a6a6a6a6a6a6a6a6a6a6a6a6a6a6a6a6a6a6a6a6a6a6a6a6a6a6a6a6",
          "value": 100,
          "vout": 0
        }
      ]
    },
    {
      "block_timestamp": 2000,
      "expect_err": "TX_ERR_SIG_NONCANONICAL",
      "expect_ok": false,
      "height": 1000000,
      "id": "CV-HTLC-07",
      "op": "utxo_apply_basic",
      "tx_hex": "0100000000010000000000000001a7a7a7a7a7a7a7a7a7a7a7a7a7a7a7a7a7a7a7a7a7a7a7a7a7a7a7a7a7a7a7a7000000000000000000015a0000000000000000002101000000000000000000000000000000000000000000000000000000000000000000000000020020740f390c63f636b67acc3cc7a09df93e5c53804af23e0c70c074bd12713226940101024022222222222222222222222222222222222222222222222222222222222222222222222222222222222222222222222222222222222222222222222222222222010100",
      "utxos": [
        {
          "covenant_data": "54e89e15c3eef53f39d5e758fd47dfc84f15f042cd83edc0c93723e93b7d0a8300a4420f0000000000b3ec7cf4503854f1f691ffb3c0bde5e22af4705161edb20ede25a62e3209a716740f390c63f636b67acc3cc7a09df93e5c53804af23e0c70c074bd1271322694",
          "covenant_type": 256,
          "created_by_coinbase": false,
          "creation_height": 0,
          "txid": "a7a7a7a7a7a7a7a7a7a7a7a7a7a7a7a7a7a7a7a7a7a7a7a7a7a7a7a7a7a7a7a7",
          "value": 100,
          "vout": 0
        }
      ]
    },
    {
      "block_mtp": 1000,
      "block_timestamp": 3000,
      "expect_err": "TX_ERR_SIG_NONCANONICAL",
      "expect_ok": false,
      "height": 1000000,
      "id": "CV-HTLC-08",
      "op": "utxo_apply_basic",
      "tx_hex": "0100000000010000000000000001a8a8a8a8a8a8a8a8a8a8a8a8a8a8a8a8a8a8a8a8a8a8a8a8a8a8a8a8a8a8a8a8000000000000000000015a0000000000000000002101000000000000000000000000000000000000000000000000000000000000000000000000020020740f390c63f636b67acc3cc7a09df93e5c53804af23e0c70c074bd12713226940101024022222222222222222222222222222222222222222222222222222222222222222222222222222222222222222222222222222222222222222222222222222222010100",
      "utxos": [
        {
          "covenant_data": "54e89e15c3eef53f39d5e758fd47dfc84f15f042cd83edc0c93723e93b7d0a8301d007000000000000b3ec7cf4503854f1f691ffb3c0bde5e22af4705161edb20ede25a62e3209a716740f390c63f636b67acc3cc7a09df93e5c53804af23e0c70c074bd1271322694",
          "covenant_type": 256,
          "created_by_coinbase": false,
          "creation_height": 0,
          "txid": "a8a8a8a8a8a8a8a8a8a8a8a8a8a8a8a8a8a8a8a8a8a8a8a8a8a8a8a8a8a8a8a8",
          "value": 100,
          "vout": 0
        }
      ]
    },
    {
      "block_mtp": 3000,
      "block_timestamp": 1000,
      "expect_fee": 10,
      "expect_ok": true,
      "expect_utxo_count": 1,
      "height": 1000000,
      "id": "CV-HTLC-13",
      "op": "utxo_apply_basic",
      "tx_hex": "0100000000010000000000000001a8a8a8a8a8a8a8a8a8a8a8a8a8a8a8a8a8a8a8a8a8a8a8a8a8a8a8a8a8a8a8a8000000000000000000015a0000000000000000002101b958163328ac9f45542608f579cebfffaac6aace38ab870617ceefbff0520147000000000200207698e262219f458eae79f34eced55e5e1b9ae6fb47529e44a716d4a0232309d31c001900727562696e2d68746c632d636c61696d2d707265696d61676501fd200a45462ba34a423b07ca8eafea78d85555e708cbedf5f8e45f86230afa17d1892031bd48f96c74662fd259631d5c2dd6095a094aad0ab7647f60585afc2df05eb47b354642e1a531aa1cc73e11dc27868c7b9f6aae697b2e0a7d83af240706b4686015d910aea8109611589c1947ed30fd327eda3725145b267b05e9194aba33fcf350200a4affb9dd2ea01ad5dedfa125dc1c82bd6da470eb83f9bc9383f899940c8c6169f05ff4025d06e0beca9a271f51144e59a35227638f8ff0befb819d75c373f043394df22191d3dcb9328cc16d770fa50e36e9b8989fdccd224b31430cd02764bd8aa6b08ec6a9f03d5a8ecdd33b0a0e28d0d6077a407a037f7e02ef656f67bbda7a1da0e78fb47aef134be16c238ad85537b89adfd766e4688c0f0e18dca54705d549d918b08e8f808554ea72326d89487bf3e3f848e984b0b7f81273da4f137679c5c367c4b6ed3bb59d9505c38b121131fe6eabdaa34dab967665ab4f60a0e31ec935247d7f7b094c27b8237606fac766823d9cefde4ac818afdb096197ab3ca524445cd4383a6ba525e6e17c0c02f4ddb843ba8bd23d0b5cbdc9c968b45e34395c7fe08d1aaa80a9f4b2cd61c753ae261b43d98806a36a4b97a48471832ebc3a9b0b44f9be4ed28ef3e5bcb75a82341e243d98511f8b95a48623d8fe4527225b1a4ea09768c59f76f95c10e75556ddb44dd94145d116014b822730798bea351676ccdd15ac6b19fe816201d3c559a09c2e6cb2cde6de10dd29335e8bf21f74588eade8c0f5c3bd18a432085a2cc95437c4440bb8dac5be1b93669a547d88c74494f27597617e686344e8d66c54fc88db5e495bcb9f496a7adb517174ad97fe0b86d3f828913140cd2bf4b9349c9464a5afca7206ef0c7f80148d3d1a78c90906d9b4e89a033482a923ebc9c2f246131a73dad7b713fde10e0f13a03b5a357fc621807049fe2cb034fd0643889d512fe32ba0d9f009fa9da9441571e2144baadbd6ac5e54641274a3ac3a63586d415b24c6a96bd7e60fdf56840a71da8f4b4efa6ae4049b9a4ceadd1db028a7c5b6e7462d273b741594f3bad165e4c4c22e1cddc4ae428113e12ee231a37d87ecd0d750c757022d8da7b971adf12435257c8e62b28a857798727e8ab0c26dfca1d63657d24a476978f5e53ca3c6db16e7c044fdc59b3b12a26e006351676fe9d772d087fb3e934c8ecff8cbfb7602d954843070b35cbaabf57f60fe8b831a57e33301b33f276162b8ca5aeb4b4086c2bf844c4f2e8ba8a874f04715a3dc5c77f873cc1bc5fdef2bea62dbc3d1b9705c38213e6275053eb1d66fb42b26b207bd66fc3cee1e908c4f5cff8d4ca470cc3850f1a8bd5f6b92a2ba16480e14ae627d4e1fcd5498ba42d82833bafd84a9280681e67ea92b2739043c8e32b126de19b0b1936db2ba9338d55b472967bec7ffe8cfc4cf350538265470609f267c1b177d49353eecb2d179b7aa2cd2d46d51d343a57d127eebfe9bfbf478c21b26e5834aed6b2eb30346e63fa2fa295a318dcc3fb06d64fbe4d5cbaaa95d0b662285278ca4898247f4482e3bedaed406d7a6cbe9a919838b243fd4b2f039c7fb73f3a6e103fed854e4245ec761919488d35395e042bcea60729ec384f8b50278943dd53e1b1cb5b45a85941354c4135591e5081d476fe64ab3da0a1810bbc7b06ded0ffdb176755a158462f108a78186d8b8cd3789d9cf1fd8a71f9fcb5f22875166cbbf5c1c83b7dfd19002f254c93ef3071e58ab2a35c6ea1d5ce7bdf8a1424ad8deda7421bf95f33488ca39fa87aa72bf3f8a6647769fc109f28520213ed453599a4b8b2e7978eb36f9540fa4fe8cf36148a23bdecf0b2d91bd704ed419264902e29f18ecfecfad065989320878aa0c47961ae31f057465e7c4f7c8cb9043b19b4f134d5957442f28af46047ee735ed195cc99132f55fa71c8c5b4b6ae733d28dd927bbf6416f797331987e3568e33bce4e08797d8cd71fc731e151a6f4a306998928bc4888205d18e0837896424b5bc436f8fd0c3b21319bd89a9248434bc4e81e4c956799da73022f91e86cd4ee73db3a942cb92ca79fd6762a82050cbfbb2b91b3278a6dcfc20b138f90a6291ecec35e44bad1ff805ee6b134c81d34763945d66dc91f11d28a59cfb39bfa001febc8c55d0c4d0e5b5bf83ecaf194b03aa68ac930cf7f9a99263b6b97319778f1bcfaf9f41bb8bad7f48905ee329f04db1f5c3f8700f8c3a7219c5b3686119e0831ac5712cec506cae2d26ec78b647734bdb253103372dcae992c6ae735ed4e5c298ff02087b652344f2a63ab816b60d81705819ddc7c608f833ed180b79aa3e708481ce9495462ae162a18c7c59e05da943156122d9bb51c609581950b9387aa1bcfa03bed42e9743f342bc1fca487941aecdd56473d22bf5118654cbfa403e7e634835bfa8c7f0830883203ad8368e39d61ee3eab5edac428fad1a34894cae42ccc455d61bcea4955ec0598654390aeece94aa59b1759e50809b33c0f2eb1afe5aa632295751667948b5ceaceaed68135a1f66d77fa12082d81571e2e9fef02538c7f860b08c90c569235eec4d240fb9f49e5d75a2ac2a60b3195df0df54bccb753fbef7d662b11594905f4a7297f8900ed6a040c8ecbcddf215e2224c57b6465477b29d6979f349cf6e13d0aa935f0e4dd2d72d4d541814a8c2f6d377d525ee5418e3d95f6ec04f8cc789314f0200b761e1c2e13f5478ac4a85825f85eb6dc7a574c2e3fa07488776146c28830e1a19a252a6109fbdfb4fb4df8f75daee2b731cb80a45a055f6d826b21a44580081175dbe3347b1a4bb4ec1ef27c81ee528c252e6672a9dccab28348912fb58623030e82917caa8137a1c8924a0e6c91c97b08efea5ad98edca569db858fc255f5c19c5b1a53de29c87935affca34d1f626e044ce2342d2de187a4d503cf4479710e8a4c992f312b4c60d500c8793bf0b715fa1191dd2c2317831a5c549a1ee5412b4cd0caed369a938e606d00795c176d5fa56b91b36f1a14f9a7cc94ad1b21a852892176528baa7c416d2d0eab82aa243f972364670393c98f1918ace4d86566174e1a234bdeddb6cc9cf5112f65aa8478b934979ddcbb3c582f555d961d2f5d4543e9592fd9520bcda6521c8df808c7888fe4517e8288d711bf75114fda11c7d2b9e03013e7be0451ba02c461a417d16802b70c27049edec310fa2edb39f3e11df569473403edcac578c605549af683be91e1582957b8239072475fc5934b86aff25a9124abf99852e9912b7ef965d3dd16037fce25852cac1abd34219e3ba9dc4c1280fbeb0e27ca913cd0c02fe41acf6a36975688813d923877536a77122d112b4903322dfa67d0ac2276b6fae69d4ace3d46158cc73f7161779a07d640b89e28f3a97303a9a84464d8a31c505fa602aeed3a399400e949f10c318f4e25a5183d539a93328dcbc5e0d89bbd3b2b6bea1bd83141798f24049d4fc10433ec2f81855f368c33e0b0be2a60c1135dccc9783481b5fcb1c64897617364bc809d1cb842b53b40deff3a35f7f63cfb7f8557482eadb7b61be7b2143a15ba07af40032d4507aba38b99b06d39e53f0d714e51eec3ce4a5d27c41a49de7863e4a9605b9376d8061506d9b3036f44d1d47c05dbcf4ebdfafd1412c93102bab70afe3a61403ab5691a5915f2fb58de5a7b248895ef718621c7b905020bb08fba02fb77c7cbf1710a8a8ad3d932bbbcd11b9e35369f3f6aef83c3844828ce9c023d957a6379facec200b188fe3edbf6811d830cf21832eb0dbf2d3cf1da4420c6f077ca5fced4efbd73af4a6a31afacf258c989151aa3367c2b0737fa956bea7283e503c4b471659a3beacd054b08146d9ea18d355b5f9205a70dd155aee4b735663d2c69c5ad8b2060bef3d630f01a14af19717356e3ad6b83236398c4de145a3ad69d585b2c890a42f451c65677fcc76b186ca546636139b2af8a06be10c5c9ac094d5bd2e90ed1705057c708e4799d5475835962febb010a899f4c3b3c714408c7c9301ae86e136b5ec9ea0c2e80ed1bc56315e36a8ee804273e68784a31f90f6fd766cb8f54f196610729601d5ebae1af324a72a8886f7533a0994e94ea0229b60aca99c82a3aad863d35d3da638f642fa63cce8b25ae78429f09c5aa95a23ab64d012c5341ab0064cc4add52cb21e6c17e6f7240659feb731bcc9f4c61bef0f2d1988edb3371aaccec345c5b33dfce508f028ffae55855ab78f8e8471ea5cd67bbfae44b9edbc32835bc0470ed8a9416f20c7dae1ba2af133eddcb9dbfa1209752da671cd63a8bfeeba650e122f4624e3c773255a3a9180b30674c5269162b181f6a498e06352a8d1fab0a24d25565b5bc369bd4aa02610becf93487b3633266e1618c4c3fe97b063ee4222c6e3f51ca98110bff270865418342461ace05c82a16f4b15d26e8df815583da61c1ed3efb54d76e6735c5a669a0a73f53862f1f84b5713d2be7ad2d960dd5b8501ffd6682b2c82468a127cf5aa9389dfeffe5eeea773d5615c70c7a5a6e1ad3ecec92caafeb7f0272928e2f579c8d2083fd7abcda12ffcfe185ee9236848b96abac8b9fefb0cb83e1c61c1acd9fd87cc7eb4b2f128d9a19f295eaf037343ee4d2c4e051340e7041208cd472f29fb8c46b06e1deb9b52a6f7e05d4951062969d7a7288cd57da4c949215f85b0624b2eb2ba55db8d470efea75bfce1b7e53128a34508bea6e78586e5e3e6fa96ba5b786c9edaa3ae71ceff0ebeacc305d1fc45dfd3918c28f168a2fd049d86865e3b4e39898ada54a5349ed75255888715ded6e29a89e6d2e9f21cf2d0760e97d98dfe70813a2c5da9186eeabd9bbe8deba002cfdc11eba87fd43ebfe86facc0063ce39bb0f1adea225bf91d607665a64f7c728fb278f04c8d15d2b7272a08a0cc884045e666289e2e558222565a5035bb88e0787b69aaa12ca0ccbc1bc6b1d5b1268f4be0cc995ff3ef471e514a90850b0f08ca6e2e43f5538a7d08b80b27ef0abaa36018d196eb75372aefda31e688b70ac14814fa4412569e9e6088127a7afcc91feff1eace0dddc1ec0367d84ad1f5180f3bbfcd7c7c35f2b734e3c529e0945f165ce6195fb3a98bd2210a83ccaefc767861a96ea18c02cfa5a59dc45a3695d81b71a9850f1f416a34508362aec93348bba58959e6c692c1d114998bf2eeb0f38e3a00dcdaed282b9712daf55fdcc38ae1d2f4771b478b3dff318706e3acb532a63fc29ce46eefce8f6dd019575fcb239775771d2d02296d6572c19128a6e9d4d8eeb6c0caf30428dc27471609451f520e5f6e209b7f49e04d9782018548f2e6ef09bdee8928df5ceddf9f84f2790a381d11f4ac9b314035240b846179938f797b4fc7cd91e6fe0575f27c0631e41b7b4e1cf293cf66362323c16a3e130e7f813f629a0fd8ac4057f0686c169b59f1f5985b68ac7e37cb0832afe97880362983f157cd48f499d9181e5cfd2bf0b4fa39d108f55fc66b7bac6f9a32aadd4a356803278f11dba017a0ba5ecda5e7257490e96181ed5ae526ca0449923d97f5b44d216aef9f74539abe0de90b1d15342938877b7410e526df420d536bc75a02c176b801788a2ca31d90e77007f69a7eb6d30c6d4583e7891bce99ed63d0f64bea94a097de330ae0c2cf70915737230fc41bb96d3db722b9f3135af3b2e4f007b4308b50f27bfa277d48356e67256f667feeda2d729e0423f3694b66859525c7db64d861ab71ebd18286f4c04a8d8d64eb39e2dfc6d06f73b02ffdde3437fedf4c753d55c120c1c620c55f4866049f94655d40652a9e0198b957117966cde3fe3ce69e12ff830a803195652daf34115374d62f40c06b31a610a2859e6084d01c01a6f5d3d4412c8dc6e2b0e606c0da17e2fe87213c74505b0fcc7f06b8d401cd8d667e0a07c43d729556e8585d7592240825cbbe14bd7dee4eb6e88cc9a7068422aac2886512837249106be9a416b62a6522c8c216989825ba08beada0ba6cc2e7a8b837a0953eb2919253ec04189f2dc2430b94f96e28061a4adfe4558a4cfea947fea5ee342e3560e0f770b9d22c52faaf96b3b84771f55da6ded7d79b2db82fabeb1f476f175f9a768040a910d8b25f63d06636188cb197c9776abf6fc731c9fcfe8a40e3442c0e4c9e7c1ceec42970d4d7bd631ce39567d262913d59402880ff997c29bf0adfeebbce755ddfcbfbcfa201f0c237cde12c4b54d0e1cf8170f0bc1c307b6a2b373a21629321086101c72d9e69f8023a461ce0e319b4c3af3c63960855dfd1a35e380db6c2653b0157a7ae21fa503787b97020cd70076728e0b4603037375e3431fdfbc3643106b2269ab49de7fa5231a947bbee5b16d39c55746375e00bc4ed95fd38472fc3b6ece93857c2b2f6b51f99dcce73b4707838b489e8f8b3eb8c3ef00626da0d21763a15b9dccad095e6c5ea2ab9d71fed0995b11a20a7b799def94631079edcc45ab0fbd408e775834f980cf94e678a893d7878447594d76504d7023621e39e660c80c71b5ba1583f7c3eaded55b9c8df704eae9b1b915ccdd332d1950d3056d0abacdedcd0407d1c608de87f4be6775b961a54adf507c46335dd08e5a9c6ec150789d05cdcbe3e837f738599484c6a52c96eda70fb26caa406e8d1c738f444a0795d51782db7e378f9bfe0fb607e04bd4d962caeaa271862aef4cd8a7fff38452cf6fe7b486000c6abed729b40f87e101a78a35e191c66ac8e01413a37657c4cce8832f9f26720077f53a188c7f39fce2e31cde0c7dcf9a6fc54de1f22c12a2c0d5ac5c9465f224d554b5e8ea2a6e51fe5e1f14e8216b1f304705bc641cb9f96b71af15c47bf6f8f4986a421ccefec1d78891147f76cb3356ce768d72914e7c8c38fa7c540b462bb0c80dc069e7bc0832350e594f4f7a4585c81eaab5a523998e17706667187648fde671ec0bb4907cf4a7dcfd49181389f0ce18a018fa78a0e158002556187274f69c814125c05d42d188642db70f5d701c7fce6e936f13e99b91b5083dd27e18f7436fc717485aceea53ab73f68fe8ab2703ad3495c7de4aaf5c1b562817e323431db435ccba872930f339db0b97ea24d6cf520e09fc972e69f9b7a8c642e7db4d21b0148d7b741b9c486eb1cef4e56176da8c24a4030ef730013515a6b8487571c72e48da29821c1181b9a867d439250f4ebd0ec10704f4fe2aa04779952a070f7fb5c2ce8f9b085069335959f66fe5567650170f4b2a58f90b3390cbcc362efbdfff84e41e0e029008763d45eb3c00d0da088b854e77afc397318cefbd25c94974adbeeb2e00ae3da1fcdc68b05c627a3c945ee14ddfd9d68cb76e7324bb876744964f40f0aeab93a3574da70ba97a4e29ea39d38e2b31344c65efd72164d0c1b84109231cae35fcab4d00b50b17eefff336601c513c8d45de39278fbad30f709530406b62ef084ae68720e1d83a075f579f74c099ea0008ed0e2f8f69099be71dd2ada83a91b7b89be084e3c662b31a293f562c78487c1ca3cea4ed3c70bf7658bc123ca946c2c8f92a282f0f30fc99f2a478af359bf84089fadd7d2b4c0cafca5e09dd2cdee44af1a2866f3754e6b98a7f3154c01d81e5678561d5c51990997e1dfdddfaf486e2d8c3a93bfeaa21b7b08bf9dd643e430a02e6aa4cc2351e5af2f7d2a80551492eb40737e2374bf3a8298736358a2411c3fc6b223b653be3ff16b172aa63386323473caf68f500cacd5b87acb1f76c8d6646325776e6a4dac6c537d77b12318c21b8d4d554296eb22431748e48ca856c7ffe7e06e6b7ce418cdb530b95132ff4def57f01e77f5a17a090757319762a5fc02eab9a6309b6e364dfe0186758a66e15e4605c1b0f3b2a1455abc6b519c9167dc88bbec4393a9b2e9973b1dd6176c1295a2a06ae2f4b4d43a0903454b00ab22de8110bc884273b7e21e264637e09b6f2b163c12dcab224f94982c21f58c982e5db56cacb7d57e557c3d577de5cece0710ca9ce91ad61888a59a66ab1ff8bfae4f0b5cfb22036e8f3e7f90a75e20fa2c7c3473c412d758765220c9a7b8771acb68c6ba5deeb7813b739f28d634c73cd6c5fe34426a92400d1ed0e9eb3d4c546a07677b0eef03800466955405caa39f9be30ee3edd7d9ed3d0acc8541af76274b0c1fc716a8e480f9ffb623525a593816ec61e1abe9a7c9579b2a6313b040351b5c32b4959b556c63b335b3ce930bb5d7605316e08a96a80954db4bc675f0040ccdd3235133b47803208221fd7555cb9212096336020442f70ba8a64d30a7422914965a22abfb86ec111484d900d7a54cc1db756e9f36a0fd08361b4dbcc9e74299554749d8663aa56b5ce64c91e633f98767099d527001e78466f7d6d59c7a2c8ed87a2ef26790e612a07ba7400e74cc74e9a14e47f035c8ad9e6b1a23d59a01fce31fffd1757e507105f930b31be4bfbaf84f433599f2e36c1eb167be7ba8f699a01eac12ed7a42c4389ed280041b646901259487e8432704721212dd4e30cd9328cc1181e7258433718930632020bb58772841b0d361f9215489e8be6fd1765284f9efb6d1a1d4f7e373bdbab613fc46175d8c1edba1b973ac6b3855c5504f6548ba86c89fbe6a23191e271c56e7676ceeccab1e4b750b045d893463d9d40e072ada370752fbb930c045c9560347d0fcf6e359741a5f619acd64ddcebc46981379fa1cd1f1442b408ece6d33d4398e8360faaa936e77bc399174ff7c89ef916979ddb9c35e1984afa70b4f162b3fdbafe5d466d035b5dfacae5094ce56fa22a7954d200d6bf0ca9504f253d5a61dfcc179696b3815bfae0ed82fce4d8a864f8552e2d2d50dfa7ef2708e307134db391272dbcc31e076a102479e07a0c1a8d6417b50f13638a188989e4eeec13a69156270fa0c6201ae21d4d290624bcb3cfe89776aceae109be5222a98b899855a5fc24c640948ee1207deeb6dd052af387e5f8b50f536c03cec7b9e7668181a3f980ad34875632fb62f4001e53c9b05e5e6c1fce176411bba49ade1df121a5de44f42ee9590f2e2f2fa5bc097f241fc59ff53516052b9636723ee573349bad2dcca8a0d5ee7755fc089c6f892e331f2b7e98a987be83eee953d9554ca9bcacaac22b6edf73bee334c895bdecad7d75e1dea16a09120cca0751b12670588c83cfadddc13fd935ea7d3d74e7d17b697abf994713f32c75a309a6a6fbd73403bb8cc2444d36523b4704e1e23b6f1467c05542841f49a3c987fe969c690b47c8a3313f0b3c623fd34419519c2a7d42412bafed183913ccd93079ae9049eb4ec194d6812bc3a3e3bc8b464ca69dd8b9843ac65166b9d0fe81ead50534a04da546957ff21b484718db1f82251946515a872b3aa1f0d7faf0f4ddd0602bd7b2ca704ade4173868604fea919ca2357c3b0b383403b45e9c5c3c366e4c00f3225f287005dfd2d5dc283819b0db0dbdb8b015650fd8363e911337e377f910df87803dd48279ac14f2b583ff3d294a6e6bb1618331e4f4a053c29f84561f39ae17e93fd55d5609e2b1ddd576860f30e7dfe0a41994bbc7dfe62c7039e1bca262112e31ef326cb6fd8c91637310d60358751c0665cd55b486150e31210c76fda3ab16577408d02e6b801fe3df4cee8203b0b468a641d69634e554132ca53f89553b02764a8df9f040ceaea4a765cb9aa3b5b19f9e2732a84a5bc94dac67a41765e082f43601cfa71cbb11381e98923c3c5a1a1e0496fd0ca4d40340d643feb204849f0969d77833960b6c180226e06ff8bee00431478799670b158fccbfbc98b94be0883c24a870d5c3d3c8bd03699567ddfff34de6413c8acf147400f79b7a1662e2148bb21048ed6039ec6c6ea44b8ad48302d84ecf7977f06f724befa37eee2613eb2da2322dfeb63407fc765e9a26f6e04273dd676e3ed93cf77a740420f984d0af9de3bb3b36596609a345280a3dd4930f262f8d39e622f43a31005e51e0ee540e76263b4b736130ff97725013c552c3376af9a748668419fb645e36bc4dd41691390f80f6265b6a817936249d634385eed0a7ca2212f615b9adb3b05a79c953c52c0bd9514dd684f85143c3e3f48586e7b8489e212135da7dd1a2a428296a2dbfa3f4c7cc2c5cad5f94d4f7abdcbd0de032747696e7bafb1c0c1c4c5c6e802284b548082b8bb95a4eb00000000000000000000000b10182027353d400100",
      "utxos": [
        {
          "covenant_data": "3e13ed137e35d57c3a631f6f0e3bf0f0b6a037f8f82fe3c7f6e23674bbfc24c701c4090000000000007698e262219f458eae79f34eced55e5e1b9ae6fb47529e44a716d4a0232309d34f052d5e2c8e0053162129dcf1dd2aa2602cc2df1bfa2b4e9b0253392689ad16",
          "covenant_type": 256,
          "created_by_coinbase": false,
          "creation_height": 0,
          "txid": "a8a8a8a8a8a8a8a8a8a8a8a8a8a8a8a8a8a8a8a8a8a8a8a8a8a8a8a8a8a8a8a8",
          "value": 100,
          "vout": 0
        }
      ]
    },
    {
      "block_timestamp": 2000,
      "expect_err": "TX_ERR_PARSE",
      "expect_ok": false,
      "height": 1000000,
      "id": "CV-HTLC-09",
      "op": "utxo_apply_basic",
      "tx_hex": "0100000000010000000000000001a9a9a9a9a9a9a9a9a9a9a9a9a9a9a9a9a9a9a9a9a9a9a9a9a9a9a9a9a9a9a9a9000000000000000000015a0000000000000000002101000000000000000000000000000000000000000000000000000000000000000000000000020020b3ec7cf4503854f1f691ffb3c0bde5e22af4705161edb20ede25a62e3209a716fd0301000101aaaaaaaaaaaaaaaaaaaaaaaaaaaaaaaaaaaaaaaaaaaaaaaaaaaaaaaaaaaaaaaaaaaaaaaaaaaaaaaaaaaaaaaaaaaaaaaaaaaaaaaaaaaaaaaaaaaaaaaaaaaaaaaaaaaaaaaaaaaaaaaaaaaaaaaaaaaaaaaaaaaaaaaaaaaaaaaaaaaaaaaaaaaaaaaaaaaaaaaaaaaaaaaaaaaaaaaaaaaaaaaaaaaaaaaaaaaaaaaaaaaaaaaaaaaaaaaaaaaaaaaaaaaaaaaaaaaaaaaaaaaaaaaaaaaaaaaaaaaaaaaaaaaaaaaaaaaaaaaaaaaaaaaaaaaaaaaaaaaaaaaaaaaaaaaaaaaaaaaaaaaaaaaaaaaaaaaaaaaaaaaaaaaaaaaaaaaaaaaaaaaaaaaaaaaaaaaaaaaaaaaaaaaaaaaaaaaaaaaaaaaaaaaaaaaaaaaaaaaaaaaaaaaaaaaaaaaaaaaaaaaaaaaaaaaaaaaaaaaaaaaaaaaaaaaa024011111111111111111111111111111111111111111111111111111111111111111111111111111111111111111111111111111111111111111111111111111111010100",
      "utxos": [
        {
          "covenant_data": "54e89e15c3eef53f39d5e758fd47dfc84f15f042cd83edc0c93723e93b7d0a83000a00000000000000b3ec7cf4503854f1f691ffb3c0bde5e22af4705161edb20ede25a62e3209a716740f390c63f636b67acc3cc7a09df93e5c53804af23e0c70c074bd1271322694",
          "covenant_type": 256,
          "created_by_coinbase": false,
          "creation_height": 0,
          "txid": "a9a9a9a9a9a9a9a9a9a9a9a9a9a9a9a9a9a9a9a9a9a9a9a9a9a9a9a9a9a9a9a9",
          "value": 100,
          "vout": 0
        }
      ]
    },
    {
      "block_timestamp": 2000,
      "expect_err": "TX_ERR_PARSE",
      "expect_ok": false,
      "height": 1000000,
      "id": "CV-HTLC-10",
      "op": "utxo_apply_basic",
      "tx_hex": "0100000000010000000000000001aaaaaaaaaaaaaaaaaaaaaaaaaaaaaaaaaaaaaaaaaaaaaaaaaaaaaaaaaaaaaaaa000000000000000000015a000000000000000000210100000000000000000000000000000000000000000000000000000000000000000000000002002011111111111111111111111111111111111111111111111111111111111111110102024011111111111111111111111111111111111111111111111111111111111111111111111111111111111111111111111111111111111111111111111111111111010100",
      "utxos": [
        {
          "covenant_data": "54e89e15c3eef53f39d5e758fd47dfc84f15f042cd83edc0c93723e93b7d0a83000a00000000000000b3ec7cf4503854f1f691ffb3c0bde5e22af4705161edb20ede25a62e3209a716740f390c63f636b67acc3cc7a09df93e5c53804af23e0c70c074bd1271322694",
          "covenant_type": 256,
          "created_by_coinbase": false,
          "creation_height": 0,
          "txid": "aaaaaaaaaaaaaaaaaaaaaaaaaaaaaaaaaaaaaaaaaaaaaaaaaaaaaaaaaaaaaaaa",
          "value": 100,
          "vout": 0
        }
      ]
    },
    {
      "block_timestamp": 2000,
      "expect_err": "TX_ERR_PARSE",
      "expect_ok": false,
      "height": 1000000,
      "id": "CV-HTLC-11",
      "op": "utxo_apply_basic",
      "tx_hex": "0100000000010000000000000001bbbbbbbbbbbbbbbbbbbbbbbbbbbbbbbbbbbbbbbbbbbbbbbbbbbbbbbbbbbbbbbb000000000000000000015a0000000000000000002101000000000000000000000000000000000000000000000000000000000000000000000000020020b3ec7cf4503854f1f691ffb3c0bde5e22af4705161edb20ede25a62e3209a71603000000024011111111111111111111111111111111111111111111111111111111111111111111111111111111111111111111111111111111111111111111111111111111012200",
      "utxos": [
        {
          "covenant_data": "54e89e15c3eef53f39d5e758fd47dfc84f15f042cd83edc0c93723e93b7d0a83000a00000000000000b3ec7cf4503854f1f691ffb3c0bde5e22af4705161edb20ede25a62e3209a716740f390c63f636b67acc3cc7a09df93e5c53804af23e0c70c074bd1271322694",
          "covenant_type": 256,
          "created_by_coinbase": false,
          "creation_height": 0,
          "txid": "bbbbbbbbbbbbbbbbbbbbbbbbbbbbbbbbbbbbbbbbbbbbbbbbbbbbbbbbbbbbbbbb",
          "value": 100,
          "vout": 0
        }
      ]
    },
    {
      "expect_err": "TX_ERR_COVENANT_TYPE_INVALID",
      "expect_ok": false,
      "id": "CV-HTLC-12",
      "op": "covenant_genesis_check",
      "tx_hex": "010000000001000000000000000001010000000000000000016954e89e15c3eef53f39d5e758fd47dfc84f15f042cd83edc0c93723e93b7d0a83000000000000000000b3ec7cf4503854f1f691ffb3c0bde5e22af4705161edb20ede25a62e3209a716740f390c63f636b67acc3cc7a09df93e5c53804af23e0c70c074bd1271322694000000000000"
    },
    {
      "block_timestamp": 2000,
      "expect_err": "TX_ERR_SIG_NONCANONICAL",
      "expect_ok": false,
      "height": 999999,
      "id": "CV-HTLC-14",
      "op": "utxo_apply_basic",
      "tx_hex": "0100000000010000000000000001cccccccccccccccccccccccccccccccccccccccccccccccccccccccccccccccc000000000000000000015a0000000000000000002101000000000000000000000000000000000000000000000000000000000000000000000000020020b3ec7cf4503854f1f691ffb3c0bde5e22af4705161edb20ede25a62e3209a7161300100061626361626361626361626361626300024011111111111111111111111111111111111111111111111111111111111111111111111111111111111111111111111111111111111111111111111111111111102222222222222222222222222222222200",
      "utxos": [
        {
          "covenant_data": "1e32ea402d10178acc8522425d261fd5a5d5c6f2c091c631c3d9f80bfee96e76000a00000000000000b3ec7cf4503854f1f691ffb3c0bde5e22af4705161edb20ede25a62e3209a716e1a56f27a58e6f5778390d6c8ad36ffb6371c68bf46176a477abc6e8b23f107f",
          "covenant_type": 256,
          "created_by_coinbase": false,
          "creation_height": 0,
          "txid": "cccccccccccccccccccccccccccccccccccccccccccccccccccccccccccccccc",
          "value": 100,
          "vout": 0
        }
      ]
    },
    {
      "block_timestamp": 2000,
      "expect_err": "TX_ERR_PARSE",
      "expect_ok": false,
      "height": 1000000,
      "id": "CV-HTLC-15",
      "op": "utxo_apply_basic",
      "tx_hex": "0100000000010000000000000001bbbbbbbbbbbbbbbbbbbbbbbbbbbbbbbbbbbbbbbbbbbbbbbbbbbbbbbbbbbbbbbb000000000000000000015a0000000000000000002101000000000000000000000000000000000000000000000000000000000000000000000000020020b3ec7cf4503854f1f691ffb3c0bde5e22af4705161edb20ede25a62e3209a71612000f00616263616263616263616263616263024011111111111111111111111111111111111111111111111111111111111111111111111111111111111111111111111111111111111111111111111111111111012200",
      "utxos": [
        {
          "covenant_data": "54e89e15c3eef53f39d5e758fd47dfc84f15f042cd83edc0c93723e93b7d0a83000a00000000000000b3ec7cf4503854f1f691ffb3c0bde5e22af4705161edb20ede25a62e3209a716740f390c63f636b67acc3cc7a09df93e5c53804af23e0c70c074bd1271322694",
          "covenant_type": 256,
          "created_by_coinbase": false,
          "creation_height": 0,
          "txid": "bbbbbbbbbbbbbbbbbbbbbbbbbbbbbbbbbbbbbbbbbbbbbbbbbbbbbbbbbbbbbbbb",
          "value": 100,
          "vout": 0
        }
      ]
    }
  ]
}
