{
  "gate": "CV-HTLC",
  "vectors": [
    {
      "expect_err": "TX_ERR_PARSE",
      "expect_ok": false,
      "id": "CV-HTLC-01",
      "op": "covenant_genesis_check",
      "tx_hex": "010000000001000000000000000001010000000000000000016954e89e15c3eef53f39d5e758fd47dfc84f15f042cd83edc0c93723e93b7d0a83000a00000000000000b3ec7cf4503854f1f691ffb3c0bde5e22af4705161edb20ede25a62e3209a716b3ec7cf4503854f1f691ffb3c0bde5e22af4705161edb20ede25a62e3209a716000000000000"
    },
    {
      "expect_err": "TX_ERR_COVENANT_TYPE_INVALID",
      "expect_ok": false,
      "id": "CV-HTLC-02",
      "op": "covenant_genesis_check",
      "tx_hex": "010000000001000000000000000001010000000000000000016954e89e15c3eef53f39d5e758fd47dfc84f15f042cd83edc0c93723e93b7d0a83020a00000000000000b3ec7cf4503854f1f691ffb3c0bde5e22af4705161edb20ede25a62e3209a716740f390c63f636b67acc3cc7a09df93e5c53804af23e0c70c074bd1271322694000000000000"
    },
    {
      "expect_err": "TX_ERR_COVENANT_TYPE_INVALID",
      "expect_ok": false,
      "id": "CV-HTLC-03",
      "op": "covenant_genesis_check",
      "tx_hex": "010000000001000000000000000001010000000000000000016854e89e15c3eef53f39d5e758fd47dfc84f15f042cd83edc0c93723e93b7d0a83000a00000000000000b3ec7cf4503854f1f691ffb3c0bde5e22af4705161edb20ede25a62e3209a716740f390c63f636b67acc3cc7a09df93e5c53804af23e0c70c074bd12713226000000000000"
    },
    {
      "block_timestamp": 2000,
      "expect_err": "TX_ERR_SIG_INVALID",
      "expect_ok": false,
      "height": 1000000,
      "id": "CV-HTLC-04",
      "op": "utxo_apply_basic",
      "tx_hex": "0100000000010000000000000001a4a4a4a4a4a4a4a4a4a4a4a4a4a4a4a4a4a4a4a4a4a4a4a4a4a4a4a4a4a4a4a4000000000000000000015a0000000000000000002101000000000000000000000000000000000000000000000000000000000000000000000000020020b3ec7cf4503854f1f691ffb3c0bde5e22af4705161edb20ede25a62e3209a71616001300727562696e2d68746c632d707265696d616765024011111111111111111111111111111111111111111111111111111111111111111111111111111111111111111111111111111111111111111111111111111111010100",
      "utxos": [
        {
          "covenant_data": "ff1c29db1f4da85ca6688c798e0ffe6c8422f6a4390b9b400c12fa9b674b2fa4000a00000000000000b3ec7cf4503854f1f691ffb3c0bde5e22af4705161edb20ede25a62e3209a716740f390c63f636b67acc3cc7a09df93e5c53804af23e0c70c074bd1271322694",
          "covenant_type": 256,
          "created_by_coinbase": false,
          "creation_height": 0,
          "txid": "a4a4a4a4a4a4a4a4a4a4a4a4a4a4a4a4a4a4a4a4a4a4a4a4a4a4a4a4a4a4a4a4",
          "value": 100,
          "vout": 0
        }
      ]
    },
    {
      "block_timestamp": 2000,
      "expect_err": "TX_ERR_SIG_INVALID",
      "expect_ok": false,
      "height": 1000000,
      "id": "CV-HTLC-05",
      "op": "utxo_apply_basic",
      "tx_hex": "0100000000010000000000000001a5a5a5a5a5a5a5a5a5a5a5a5a5a5a5a5a5a5a5a5a5a5a5a5a5a5a5a5a5a5a5a5000000000000000000015a0000000000000000002101000000000000000000000000000000000000000000000000000000000000000000000000020020e1a56f27a58e6f5778390d6c8ad36ffb6371c68bf46176a477abc6e8b23f107f16001300727562696e2d68746c632d707265696d616765024011111111111111111111111111111111111111111111111111111111111111111111111111111111111111111111111111111111111111111111111111111111010100",
      "utxos": [
        {
          "covenant_data": "54e89e15c3eef53f39d5e758fd47dfc84f15f042cd83edc0c93723e93b7d0a83000a00000000000000b3ec7cf4503854f1f691ffb3c0bde5e22af4705161edb20ede25a62e3209a716740f390c63f636b67acc3cc7a09df93e5c53804af23e0c70c074bd1271322694",
          "covenant_type": 256,
          "created_by_coinbase": false,
          "creation_height": 0,
          "txid": "a5a5a5a5a5a5a5a5a5a5a5a5a5a5a5a5a5a5a5a5a5a5a5a5a5a5a5a5a5a5a5a5",
          "value": 100,
          "vout": 0
        }
      ]
    },
    {
      "block_timestamp": 2000,
      "expect_err": "TX_ERR_SIG_INVALID",
      "expect_ok": false,
      "height": 1000000,
      "id": "CV-HTLC-06",
      "op": "utxo_apply_basic",
      "tx_hex": "0100000000010000000000000001a6a6a6a6a6a6a6a6a6a6a6a6a6a6a6a6a6a6a6a6a6a6a6a6a6a6a6a6a6a6a6a6000000000000000000015a0000000000000000002101000000000000000000000000000000000000000000000000000000000000000000000000020020e1a56f27a58e6f5778390d6c8ad36ffb6371c68bf46176a477abc6e8b23f107f0101024022222222222222222222222222222222222222222222222222222222222222222222222222222222222222222222222222222222222222222222222222222222010100",
      "utxos": [
        {
          "covenant_data": "54e89e15c3eef53f39d5e758fd47dfc84f15f042cd83edc0c93723e93b7d0a83000a00000000000000b3ec7cf4503854f1f691ffb3c0bde5e22af4705161edb20ede25a62e3209a716740f390c63f636b67acc3cc7a09df93e5c53804af23e0c70c074bd1271322694",
          "covenant_type": 256,
          "created_by_coinbase": false,
          "creation_height": 0,
          "txid": "a6a6a6a6a6a6a6a6a6a6a6a6a6a6a6a6a6a6a6a6a6a6a6a6a6a6a6a6a6a6a6a6",
          "value": 100,
          "vout": 0
        }
      ]
    },
    {
      "block_timestamp": 2000,
      "expect_err": "TX_ERR_TIMELOCK_NOT_MET",
      "expect_ok": false,
      "height": 1000000,
      "id": "CV-HTLC-07",
      "op": "utxo_apply_basic",
      "tx_hex": "0100000000010000000000000001a7a7a7a7a7a7a7a7a7a7a7a7a7a7a7a7a7a7a7a7a7a7a7a7a7a7a7a7a7a7a7a7000000000000000000015a0000000000000000002101000000000000000000000000000000000000000000000000000000000000000000000000020020740f390c63f636b67acc3cc7a09df93e5c53804af23e0c70c074bd12713226940101024022222222222222222222222222222222222222222222222222222222222222222222222222222222222222222222222222222222222222222222222222222222010100",
      "utxos": [
        {
          "covenant_data": "54e89e15c3eef53f39d5e758fd47dfc84f15f042cd83edc0c93723e93b7d0a8300a4420f0000000000b3ec7cf4503854f1f691ffb3c0bde5e22af4705161edb20ede25a62e3209a716740f390c63f636b67acc3cc7a09df93e5c53804af23e0c70c074bd1271322694",
          "covenant_type": 256,
          "created_by_coinbase": false,
          "creation_height": 0,
          "txid": "a7a7a7a7a7a7a7a7a7a7a7a7a7a7a7a7a7a7a7a7a7a7a7a7a7a7a7a7a7a7a7a7",
          "value": 100,
          "vout": 0
        }
      ]
    },
    {
      "block_mtp": 1000,
      "block_timestamp": 3000,
      "expect_err": "TX_ERR_TIMELOCK_NOT_MET",
      "expect_ok": false,
      "height": 1000000,
      "id": "CV-HTLC-08",
      "op": "utxo_apply_basic",
      "tx_hex": "0100000000010000000000000001a8a8a8a8a8a8a8a8a8a8a8a8a8a8a8a8a8a8a8a8a8a8a8a8a8a8a8a8a8a8a8a8000000000000000000015a0000000000000000002101000000000000000000000000000000000000000000000000000000000000000000000000020020740f390c63f636b67acc3cc7a09df93e5c53804af23e0c70c074bd12713226940101024022222222222222222222222222222222222222222222222222222222222222222222222222222222222222222222222222222222222222222222222222222222010100",
      "utxos": [
        {
          "covenant_data": "54e89e15c3eef53f39d5e758fd47dfc84f15f042cd83edc0c93723e93b7d0a8301d007000000000000b3ec7cf4503854f1f691ffb3c0bde5e22af4705161edb20ede25a62e3209a716740f390c63f636b67acc3cc7a09df93e5c53804af23e0c70c074bd1271322694",
          "covenant_type": 256,
          "created_by_coinbase": false,
          "creation_height": 0,
          "txid": "a8a8a8a8a8a8a8a8a8a8a8a8a8a8a8a8a8a8a8a8a8a8a8a8a8a8a8a8a8a8a8a8",
          "value": 100,
          "vout": 0
        }
      ]
    },
    {
      "block_mtp": 3000,
      "block_timestamp": 1000,
      "expect_fee": 10,
      "expect_ok": true,
      "expect_utxo_count": 1,
      "height": 1000000,
      "id": "CV-HTLC-13",
      "op": "utxo_apply_basic",
      "tx_hex": "0100000000010000000000000001a8a8a8a8a8a8a8a8a8a8a8a8a8a8a8a8a8a8a8a8a8a8a8a8a8a8a8a8a8a8a8a8000000000000000000015a00000000000000000021013e7f5b23078179ddc93eb50b97006929e0bac9375ac6f9a16e70407b65fa9f76000000000200209b1b55b0a4c97366a99c70c6c5231893a2ab43b778731f7ee2e8a2b6458906771c001900727562696e2d68746c632d636c61696d2d707265696d61676501fd200a08fabc0a20ad2d1a409823aea1b18b87ca504722c42ca893b0e9bb981a6fcc7475262bb9e412d77ef14956b02cdc7f18afd99d3c72e221a07936a66f155939d2934815ce30d7be17758a800a0e6a28331639181ce18a6f15b0179e550f39826affe8c435d8a01462e134514b7a9a981924f8cb8748eab2a3f275ca40f3d0cfffd546217ae0fc8644f055796747cd5c097c7dabb3af4d4092f50ef5108ec2a2d3f744f0f355d7a765c5265373ad616ef58849dcb4478619e3d53388ea32cff6fd8640f28d033160067c387a0186706ff2db234a2dabe8320a110bd7730b8b4fed27b0a5b1f2cc7741b43869db5f2cafe57a253912c67de607705739415cd82e63369ad2250ba8cbd114d17f0f0cfcf716013932e65f8a6de560e78105b7aca25e34911f5531201ac604dec44668925f6f1a0fdad726220d976b18695928db98f6138257cb78039497b1b2b78cbce21d6583469fa529e6d73d287e1c5045bd7799a6ad6a5fbaa625d91f7decf45a30053d50508a0055b6ea1768cd894341d45fc705a032e0decd01395cc94e0b4735ae1d7a2f782f89e6ac672a678ac2bab3d9a0790f5784ab055f93275607523277f7472016fd5da58f11c258bee212350b9970b06d0a5e4051b9d2c5603dd29a9e2675d80cc9c1e6b0aaf580c97b09d5dbd7a8450876f59182b7a23fb341b1b474920faa8adbb4fe6d2b33be31e26f99e5ccd1910573a96fd05faa82e4471da03c9fbc28c5d6de9392641f421882cdbec16c882b9db79def7e22bfc2595eae463c4a84a2eb2aa9f3a9e5e51ae1d6eafbd8db97cecd27534e67c4bef542e225a33066aaf9bfb7cd92ec35808d853c546b6266fd2dab18457183270c715992dafada5dffed70e2ea09729e90344863e04af12929c3d7b4f57a23dcb9084449798feb558ed050702d669dfb2d4f4aa4de952feeaebadb88d3d8c3d3cb3a00c630005267bdb9fc44e9ecd682d94a2a01f60a9c17a9927d253dc86d8d18c49496c724e015febd611f3b5ec95dc5933dd7109a5dc3b927a39b204c5d9b158b0d59a210278b807646c22c13cb5fec030c3b791e0c1ca7c323f1342a4a0be191ca81807f504fcd7ddc138f5ea9b98ca4d6970b58f6d46e7a89e1ba8ed5c3314f54c8e79d864ea023dfa6c8cb0f8f1659247fd3085971e232b3987d439847435e786dd8fdd55484c60cc038c5378e847bd5f67046112060637e202644c06a1f964a4bfe38319e91f747dcde1b04eb813f180437666065f62d3a1c901055f31a6c85effef5f2b1f42920ce7fc0c949a2bd26dadd64376591fd6b35b4c3dad0c44fbe5b29c10a43e212ec3ed184c187d9ba0174709dfa56f4232606cf6cd0f6a73b8725c6a96d09187dffb116d7bf8a644f347bc0e2f2f6d693728e8ec1194fdab748738ef5344419029c683972a13c1adb0465e0a84cea4925da8e244cc7645ff1b483fca5e5961b5c20f84ebd9989b7ad038527856e3a47893341d3fd76389935eca83594f96d9de70da158f290e0358340c69c7368cec1231c23b09addbd8b2dad0974831c7c77a0767a123e65f386c6ca8459d32bd6925efca7d16420fcfc252ffd8251adfafe30ce26e098a8add11e0c51950ff6de5c550e29580a11c17277c3ffe3b843828193d950b160b026220ad35bdf2900358fd8e55f97a7233d471b881a3c574b919f9649f7a47521f56159992fd0122fff21921275e319dd2a4ec0ba3c628c68604e131fc783c35ec4437a8c9dcb55a9cc9e477cd6215688d3589857d596b2f001987c4b7870ab9c41b3967dc4c53c59a516b22ed1929ee997fc827c48c84fbc7fda4e1f4285490458921f6a36a95d0c5c97f43f08cbd407e79a78dc3a362b3f3bfa4838d98883e0b4ffcafdafd013017a648cb191cc4e3be85eadce45d5ebd22a249100a0cf86c6d45a800a1471e54882179bef887e5cc6cf8e3e9617d61aa1a57f35681bad0b85a2709fd9b9757732521f4bdbfab615bf9e895b4ce58fd050dcf7157e887507457d4aaf7196ab03e8cbfcdadab363bd60e15032673baaf4b838355751263e44fe9860952001ca0e69b414f3e7e074033bdf029e4bc519cff5387eaa28414513413bcea6750154bc8b61a3cfd0e30c56f883bdc8b845203b89804360cd40a9a250daa33b37a8be84c2f9caedc45a139f01c9e60f6a1320309ef630f02994d72a1d5532cfea1c1c6854f9ba7b1e27822ce13feff913bc3ae33953a87b47293fb8e1e5ddd63de1d637c8849d088ee818f580e4741b7074db4253c99c4f5193044664893f51880588b1011b1061516277356478cf73118df82a46b6c4e02c369c6962d3fbac9f82f17b3edd5d987e2c0f83a691d1308a63b0f5cdb9bacf3596f24ae8e80922a9332de8f8636eb8326e02f82d9cdf5bdcf73dc28b952b8c1b456438ea3529677dd88d84bdb211a3a02bf616c2e1fc92ac73197d52fad13577bcb594123141226470825381be27db92f2f7d8b3ea6d42d6b9f6762a5610d9d23d75f0672e7690d7daf2d149c697312a90c3948cbba0fd0721482a789587a51546a28b0585728753004958cb43abd1e3886723da449b46de455dc916cc1e728720ac2d21e0ee7db74449e6d2f30908a5695e3050c8cc4285a403fc54542a2a7ea851039188c381e48070109df3971049db659dfda52fd3f87f29caaad21baa285096b929f278f04124b4d65b28df7ac4800211f33567e8114550dde6f35ba6bad412a27e157a35afff80bfb6f5d1c4198496cfd82f0ec8f57c721e5f741834a900158fc51f68ff76cb80ba0cfb5164551afec84794397b5efc8f326194acb3c25133d15c5d5f7359b1de700dfeb3e27e76cd587d2859af56704635b93f7c09fd6f2cd0f849b331567b2e8f0e535b7f91a735e65bd1d133b3fb8a0a1011999b305a0d7303fc42b4e9e6f4fd836ea363ea3bfa16bef707d034238cc10ab5f930e1398ba785c620d7927a9be887d47a0a936d706f6c2e8907d52b3dbcc3bde105e33af551d73b444c661c80959649ba7f7911fe5a81fc72af790ebfe29de19f2a6d0b01e03beede84510316312a0315db50a4e6a257d952b53e11669c967b3f0e12fce37fd7b254f38aeaa2df699f13613a734de3d5fbf01f5ae4598e9bbe16428fd7cf510add33c1947ad65d447e2b481d5d1b9988cd2ced3adec7c4ced0027cbea07f13a88d11ae3ab81b063d5aeabff0d613149affc815147b52fec89ba96b7b83853c99d2c58cff1eaeda71c19a633e43fcd39a918e20c24761ec79b5cf2e8c4e7868f74f6d8e8456e8c2198cdc487ae26beb50bbf074cf8bf996c07e5ca0898c2da5a0d3b896f16e8b641ab4ba6e304bf255b005e1f4337730b12d780054229f2f9950e693a0c191c150a1442a815d9e3f54efaab6c6390f8d98d6f0ed8dc9cdee9e78f78f077380dce4014e0739e67b8a37fc96a6372739955a769ef864862513da487b2cd98163b332d8af590a7501ad8bdde53419439d74cc889214bbd42b4c570ca4f19ed3cfe267bc1d1c6a377e21f08e7bddb70e3cf6beacc3414665919b2d4f73e53db69afd4a3bb4c1c14809805483f4bb2d8dc4f575e49ed20b84b6d3b6712784e63a2029e81c1afb15076331658decadf579df3dcc7e00bd3453f58567e272dde5dbd0dc666a1703fd1312ddb0c6e36ea259fa5edb5220037cde1c49fe6a572bffc71a8cf2f42e2ffe686e596ac60924e59f4ea1af916bf3a0e4319f69599a1f668b65ecb1d462805c261cc53958d4bb3960630b728ebd1b251609173e50d4b47804f5a5b3b4eada9e78a78d30589af1a12e7bbd5fdf979d1025f3824ec4064a1d1f7eaa1547e06c684881eb1ef945c1ae490d42e05271c741ca37fb0350879a028c484e1b23864d62aaa5e1efff3b128e043035b683bc4fb585b01c8a190df97b8bc7e4beac940caff17b73ae8ea53d87d62f616040419acb9a12e30a04ad1e6f11900e9978767471bf5c64ceaa82f0ba72955b4b5c619d0f94c6a7daf492bdd1ea3be394b854ab3e2d38306eb6f17fca5e8a6c9ea899b72dcd7a1c017053d76969af140776149f43749d175d7dd0d3a05dc8c7add367798b69bdb405158620e05f46a188a1af815b554a8189bb661b513eb035fadd6b36ef5db7ad2e2dcea7c4055cd88fd7674deb2ed8f74a8aa02d6057e55191c9917cb8f01b6f93b8c97ee53efc98b9b37bef1994508ced24c298ad9321e7e725c4242ee1af45048445de6b3dcac89e5aa85b9ac18a99bad14403d38c83c32bc99a68a03a09d6c6e00b5c58b10dc07123f07099d9cf7db15a25035ddcdf9984c10cd49969223c20d90f95006eab33c2bfe45e0c4fda3c106fe31c175ec92ad79c731344255ad29c24948034f33d12fd2467ffba56088d4fbf77237f47845620709ef46eb16fdccda27d46439b84052d7592094c2833eb1c98ce925ee040ae6f1dae903891507c395446243e2fb6dc72cf218bc12781ccf60d066142360b4c30bd203e391d256af56a1dadc2b1a46976e69428936724d32241f265dbec9be17b6395e479e109a53fb87eaba20e64c767cda518afcbdae1188c59a4abca30df5cb4d7d14a59a6a46f96292384d960f3cd3dc9e990c4728cc3098c6cf05053518894e58a2175cf1ed42d0e227e849b509374a7ed043a99c88fa1496afa48d75ab964fc2e446722faf67a179426add104a4acec10374990d5a16e1e24ce401f3bc503d0f37a5c5f9edd61f5fc20323d1493a4a87f4f0488659454f5344f5627906677eb0373947c45a0c334af5e80f8cb1c4730a23ca78004a8e3da297c45794af5ea554973cf65db2f0632d24ab087d733dde85ef0c0c327467b381eaa16384077049544a432ce280b883b76d3c80bc8f3b25b35fd66da7694385c64144dd714ebaf1e3f8316f56169a34247c6619368d749019c2519c96a71057638355a105aa8f1b557e4bf26fc6fb1d3a47dbda4f89f363d74a2a595ff0d37b7fac192dc997b72bf260b9ad108e3bed1d37637cc8d70ccc3e62eecde8796568a4a3e562c833df0dd04250d855cfc6d1e159c5f1a1627946db3d0e7e8843bd8c11ec34af0207ce8bba54bbf4af3eb1089f2a0c1c16e878e2d6bfd2049cf4cdc9647eaaefd2ab5049c0105a2b8e573dc3eadde38b42bdeebc6156f12c6c2d73584c6fcf95cf108eaea63504774f0c339ebc7dc84366692273aa4b442e0cd1d1bfb41c5831a8e9b0d9521cd0fbae7d1475dad452e867abd95dd06a16b4fc1d482eedfbdbbc19d1e3e631fc1138f83bdf4717e19d8884ad2af8a77b4602180a3c7025c67c8b4d6fb0e2fceee2f070e278b7acf61d5c89e5c7a8a6c6d4ed762dd0d917afba1b3a136c119fde2380f30e5a94f9dfa89aa9671f1767a379ebf4844df9a5bd39bd5325aedf733bc26feea2e8fa81784403facb7093017e6875cbfb14844110e851b7f5f45b04f59b0e1cd479c2ee2124f025c12806f856739a9c7f8f2cf8464b9d4b9c9ed9a8afa54da4ea992020ae1d5a9851a2f599ee6bae116b93dff8a09960f7d046e2d7546ba9273db084808c89350107a492a719fc4297cb1470cc3cf453dc6fe708254b961c62090127e0a8a86cde3d273bda48bea9c7db97523424e5fcd54e3e03b0a591d515623be1512c142d042e91d6ac8767d774aef15600fd1449300e4bca8158081244f21ae42d21383c981e82bf9241bfcf02f27b73a28f4d7db6c4ee8451c8bc8a01465e26ec0bd05fa31b452953b1e303601adb1c796996ea89d1cc4a5c6eaaf11068c04673dc2e77b8e29ff00c698dc17ec2d1d055161a1afaae6df41a99f0ec53926709ece9594491957991ff7cbd9f79ed6eacdcc9d51519b574ded37af7501eca9406190b7874812a3434c336987b3f2df3a447b0da2b56f2c4b91c2a34a2c67eb6062be91baf8d96f376873dc94f34cd866136287a1658b94ae8aae636758201f2fcace169f4400c868cd2bd0533a0a5dc3f8003ba61a63df73de4b993164c0376731e07ddf5af930e1e84bc72faa1648e767948ba3625e22a972286ee4a66fea5ac6842577aadc9be5eb4da6ba65e96d147f74b6fc9fee4cc546a5ee17dab76b3a69cee0e9b725a3c65d4fa30be522fdfe7205422272ae7ce657babad57a10f2adfaec235cdbb865ee32718160a146652f4b44356b7f28527238f7cf08db482ce0b51a74bba21888bf5b9c8544445c7f6c3b0319de16cf3249a38e389d6d5b41cb6cb543d092fa1e70e10443e899831272c9a1359f1ee7096340c66034a55cf2c83d1554d93c16c80f7cb253760c6e237e92247269cbbc50075eec00c6adc294048bdf892f74eb209c0c06877d61e41a10488ac8c1c9db240d6e35b75ff36d9ffd0d160f97280fe21b4336029b4bbe649c8009d3c3c0a41b32a1f07283e52014050f3c2a48c6fdd4b733e72800664f884554e72e57208015192de6b44ab20be390799d47b313d9a8df0e904fe1582a0be83dd96361dd8c8647710ecfffd4b79efd9344edaed74cb303b6f0f6131b1ab24576f8f5a13a828ef74afe03d0be988f536c2aa4cdb85dce4677155477acd8763d2ef92290aac869272e92a6f2092420e2a0377ac96088c59a082013786016050c84cf596cd517e0bb8bc238e998c1afd65b3238857986d4944b8812e06f39f2fb70bee3d9fe68898eb27bbbcb4a3f09481e15b086dd3486ad122d3c9174e422e35679321b2bfa32051d2000648f4b5db4e8c387feafe259b3af8fca3bd4a49047005f78fc18453f65a81cd8710c2a55525eed7edd512f005863943501e47ceb139d3bc65b235eb71a76e8a2ae6d7f7010d0fcedc71438e56e4d16244916b92104907fce29174312df6c3e876355e8277cf3cdd34b258e668d8893a251ce0965512524407388b9b0b5f1c351f48f9ca487c1368ff3f641b4f794f18c5746dc1ea9aad1fb814b17a4fa8882bd331b0bf59c4b390873ee7973de0f1ef162f6a5f6fe3e66326d01441182990e4b97e6bc489ec2a9c82b36ffc20f2a1476c92f48d33763b8ca0730f1f87fb3927d392ba2d08720389f7e14fb174d014398dad05c40a27867e8e49b92978951130f9c2b89530ce855fe8ede173e0dc8fbcf7d21aae94c2827d82134b00e1c672b45afd777e96eaf341ef7950fbfb40801e62c4fe367bb60a4e1edfb640f7fa9c281469f3a77f85322bc0d1b1e9baa8268f787dbbc0cac56a4219c48e0406cbcf641f80801831b02127e2d62bbd6618539e32808f72613c39a5ee02a8bc6cd8ffcb66046fe760dbf0d40a159e2dceb29cc25a81787d8f69fd261eb128e21dc586b3d63fea7e898fd327ce4de39d45151e4a6ffa8f875b88a801190741d7c757b6ae74568617439380ed5b15600d910c3d6b2a6acf3d35adf0b7aca25e239389699ad1cc86978409d93a68a69ec17a4d9c93b1834613cde5e2f0dd4849205e19da9808f5c5744c3d16e4dd63eceacc9692816bf648e9c7b1c0a3e9b255462970f73371e01f5d31e6d6f93a6261660692e4d75d5319272618890452deb9f24cdb00e1abb736af689969e9d0264e07f01cfb36f676b44b4446274e02f4516a6718a081ad742ba5b660ed5091bfd2af4d5c6f42805faff2f4f9c791dcc51a4ba6bde4524a1a4dbf60e8f03357dbc83160ebc16ed7f78cd127ba3e7cae90c86d272e4d9beaa82ecc6007de8116771614e4fcbc0e5cfe8bcbfdad4366efd519711a8993d023127aff40de4596edaf3e19bc2eddb2851b691c2ddf4b8dbb19f220b1423f335df9328ff003fffb9af7267e3275830d9b8be443f9d668d9b0c2f4fbbbfc22cbc16f3bbd109a7dfdd429e01842408fa33c430b579ca93d8e166259a436f22b59d9ed2ff7d6754636886d707e3fc76dac2e77d42405b87b5ecd2a786bea9c5ea41e4f5344d81ed7a9378e97554dafe142fa663c0f54a5c4b3b7f27a31ad8ea92dd71ffa89665838a037fa7c96c8c1407f48b67914b3e36de6597e9d4080c66bc49b4937350f07f48053e9bca13591166c7e3d17b226e5f488139a462860166ff21041ceb12d5716c0a696ee8a0e5eecd678cefab9542ad1315eacae0610f6de3bf775ccf0a66855a483738554d54e6587f04200099dbacec3797c8e16ae6873769158580878c8fd4f5db15b493274ba094fdeb9af8d1e779dba4597df0bb59578f62d7dd7c18d55ba2693fe44239aeee1109264caed3e430817b815b7c315042400d2af02627983093267153b64e6b4258750141b255d36d2ed1ebc31598b0ed821cddd08021e9a97b8d1cb3e696c5b55fb6f910e796cb2a2cb6093ba76e7d89a3447379124ca4c5f9dbc16bf73d91cc31a9bdf12ba2f89c34661ebac49c77426068b6fcc839889c0f10cb2e98ef47f1ece411f571241fd384fc9472e1fa38a7e3982d0c7cd714f50bc6387157b67c95d4fbb42d464a06a4725828570f28aab6292e01750ce66d8dff5b8942284ac3ce957bfc53e987208dd03fbcfce4ecbbc11e7d58b61a875a51b7f5b52a799d48dbff9a4245c8e46a5dfcec3de7a3a2852639e99eb3e77232da1889f7ec08222ca95541603b0ad0657c8fc2068a2f131338912a2c3b77f02c2502ead95eef8f2817f029576459a5fcddb71a8d0375f93b6b9769e35e88f3273fc2bbafb4369b8ced280a4cae24c5b43d6c6c8f4ce9ac5c5ee5f63a1e8395b7784e488e1188367b3155b2a577c08277f1526bc73f6b73d1f0513af5dff978b28f1113f1f5edca0c518b84e3a3a12b45f4fe1ece1d3d45266e14c73982bb7d44b76d9233494dc9d2d03127d3c0cd03548cf21b0ff12fcd4d2bebe12ffd2e492a9739536dceb54ef65b5e632c5504f7acf100080f8379b9f984c88a76fb785563f516c3530bc390dbf8c18c30bc7f2a30aba84040e8d8d30398a72e2e45130497317d8cb73c7fcefb6971e60d93ee80729dc43b351c4a58cf0b8a767d5bb99a8209eb34d065b1a13abe61440af927e267a0a40361ee12c5ea1b513b697f59ddefffe8f9313d31255cba5b54874215e5a331836c8c1aa1273f5b9381b82d66a86ee10ccc684c2bbba15c687aca36dc785834e21459200aec25c61fbfae4df3dede4cff7fcc2ec5d94304986c85539f37a83c4ac3b3c3135351386704e3747838cc7aa4f17a65ae109895ace488bd907f7f68a021051ebc98ecef389c6b4be7e44047e32dddbf3374a6119c8f788ed3517060b89145053555db09ed9c95e69b8c0572c36aa2f4da4c74b93b4d1340e11dd4c931cad5c5b39b37634cb700243163be33cbf70f8f33e3c7991c7f8c052464b41ce1e2aea5672636adf88ce49e66669e9296c02a63abbc53639c61faa9b575914b98018326f1091ce49409aaaa8aec09371efb819e6775a1eca08401ce9cadb77ece1d3844dd03a40f49226f67d0311cb0feadaf0cac00110759c457bd0c8b3de764a47e5e3aac20cc2144fc9fee428d343807f2be39f67b452a37fe6be3849a4b439e5f951c4b8f59ec269d794fed5ae71450da753214d9835dcc055abd197248ec59f1ab23db1f79208748a344fa2b866d7c6c2a6cb9d106eeb7e2d92d9c39469a7b7d807e012b782f82fc77d27aee0d984af73683e79736ba63b1cc677cb4bb5bfaec608dc8ed7145f7e83f68388e368881d19e24365b73c9f5fffc4b9d4e233d20faf6a379608123357daf246567b9cb4ed2c5fa76e747485a6bd671c79858cde106bca64626eae421e1563b6f7aeb202250d8ca3b4ef18c1ce869e1ab4847608987c0a149ff321f1cfdb025449be1171d04f84773e6142bbd6e82687ba1d1e1132e481f302472576f4d645264b94a2a299c42c55426b42edd222d56873f0db73f9575bcf76befa6328b168e5d9414326bf8c27608f760b6492efb980803cd3fe4df521503992c7924144d27e1ce2a9d6f574cbcb82a243ce553d37fe1c59521ccfb01897f13a53a226486e5c4f34b4ce7214951d617f0f30a2adb19ad28b04cf9cd5f6896bfd3064142b38677a8d3ede68db8173a82a86c597ddcb7f34d61c390e59a773efb739efce601f257d1f1abe484ae7e971a52e7db7ddab9729bcac0b6570205435746cbdb25610ef6af65f5fb050a11f671eed873452033767a8eabb8f20e506f9398afee181a2da6b2da1828354b595e69aed6ebfeff0b0d314288aec3e1fd05146c6dc0e3e6f58494e0edf80a37000000000000000000000000000000000000080f15212a32373900",
      "utxos": [
        {
          "covenant_data": "3e13ed137e35d57c3a631f6f0e3bf0f0b6a037f8f82fe3c7f6e23674bbfc24c701c4090000000000009b1b55b0a4c97366a99c70c6c5231893a2ab43b778731f7ee2e8a2b6458906771f4e6a91044511856d607fcb7351223d1ad868cea43e6e4cfd8154f4f4704250",
          "covenant_type": 256,
          "created_by_coinbase": false,
          "creation_height": 0,
          "txid": "a8a8a8a8a8a8a8a8a8a8a8a8a8a8a8a8a8a8a8a8a8a8a8a8a8a8a8a8a8a8a8a8",
          "value": 100,
          "vout": 0
        }
      ]
    },
    {
      "block_timestamp": 2000,
      "expect_err": "TX_ERR_PARSE",
      "expect_ok": false,
      "height": 1000000,
      "id": "CV-HTLC-09",
      "op": "utxo_apply_basic",
      "tx_hex": "0100000000010000000000000001a9a9a9a9a9a9a9a9a9a9a9a9a9a9a9a9a9a9a9a9a9a9a9a9a9a9a9a9a9a9a9a9000000000000000000015a0000000000000000002101000000000000000000000000000000000000000000000000000000000000000000000000020020b3ec7cf4503854f1f691ffb3c0bde5e22af4705161edb20ede25a62e3209a716fd0301000101aaaaaaaaaaaaaaaaaaaaaaaaaaaaaaaaaaaaaaaaaaaaaaaaaaaaaaaaaaaaaaaaaaaaaaaaaaaaaaaaaaaaaaaaaaaaaaaaaaaaaaaaaaaaaaaaaaaaaaaaaaaaaaaaaaaaaaaaaaaaaaaaaaaaaaaaaaaaaaaaaaaaaaaaaaaaaaaaaaaaaaaaaaaaaaaaaaaaaaaaaaaaaaaaaaaaaaaaaaaaaaaaaaaaaaaaaaaaaaaaaaaaaaaaaaaaaaaaaaaaaaaaaaaaaaaaaaaaaaaaaaaaaaaaaaaaaaaaaaaaaaaaaaaaaaaaaaaaaaaaaaaaaaaaaaaaaaaaaaaaaaaaaaaaaaaaaaaaaaaaaaaaaaaaaaaaaaaaaaaaaaaaaaaaaaaaaaaaaaaaaaaaaaaaaaaaaaaaaaaaaaaaaaaaaaaaaaaaaaaaaaaaaaaaaaaaaaaaaaaaaaaaaaaaaaaaaaaaaaaaaaaaaaaaaaaaaaaaaaaaaaaaaaaaaaaa024011111111111111111111111111111111111111111111111111111111111111111111111111111111111111111111111111111111111111111111111111111111010100",
      "utxos": [
        {
          "covenant_data": "54e89e15c3eef53f39d5e758fd47dfc84f15f042cd83edc0c93723e93b7d0a83000a00000000000000b3ec7cf4503854f1f691ffb3c0bde5e22af4705161edb20ede25a62e3209a716740f390c63f636b67acc3cc7a09df93e5c53804af23e0c70c074bd1271322694",
          "covenant_type": 256,
          "created_by_coinbase": false,
          "creation_height": 0,
          "txid": "a9a9a9a9a9a9a9a9a9a9a9a9a9a9a9a9a9a9a9a9a9a9a9a9a9a9a9a9a9a9a9a9",
          "value": 100,
          "vout": 0
        }
      ]
    },
    {
      "block_timestamp": 2000,
      "expect_err": "TX_ERR_PARSE",
      "expect_ok": false,
      "height": 1000000,
      "id": "CV-HTLC-10",
      "op": "utxo_apply_basic",
      "tx_hex": "0100000000010000000000000001aaaaaaaaaaaaaaaaaaaaaaaaaaaaaaaaaaaaaaaaaaaaaaaaaaaaaaaaaaaaaaaa000000000000000000015a000000000000000000210100000000000000000000000000000000000000000000000000000000000000000000000002002011111111111111111111111111111111111111111111111111111111111111110102024011111111111111111111111111111111111111111111111111111111111111111111111111111111111111111111111111111111111111111111111111111111010100",
      "utxos": [
        {
          "covenant_data": "54e89e15c3eef53f39d5e758fd47dfc84f15f042cd83edc0c93723e93b7d0a83000a00000000000000b3ec7cf4503854f1f691ffb3c0bde5e22af4705161edb20ede25a62e3209a716740f390c63f636b67acc3cc7a09df93e5c53804af23e0c70c074bd1271322694",
          "covenant_type": 256,
          "created_by_coinbase": false,
          "creation_height": 0,
          "txid": "aaaaaaaaaaaaaaaaaaaaaaaaaaaaaaaaaaaaaaaaaaaaaaaaaaaaaaaaaaaaaaaa",
          "value": 100,
          "vout": 0
        }
      ]
    },
    {
      "block_timestamp": 2000,
      "expect_err": "TX_ERR_PARSE",
      "expect_ok": false,
      "height": 1000000,
      "id": "CV-HTLC-11",
      "op": "utxo_apply_basic",
      "tx_hex": "0100000000010000000000000001bbbbbbbbbbbbbbbbbbbbbbbbbbbbbbbbbbbbbbbbbbbbbbbbbbbbbbbbbbbbbbbb000000000000000000015a0000000000000000002101000000000000000000000000000000000000000000000000000000000000000000000000020020b3ec7cf4503854f1f691ffb3c0bde5e22af4705161edb20ede25a62e3209a71603000000024011111111111111111111111111111111111111111111111111111111111111111111111111111111111111111111111111111111111111111111111111111111012200",
      "utxos": [
        {
          "covenant_data": "54e89e15c3eef53f39d5e758fd47dfc84f15f042cd83edc0c93723e93b7d0a83000a00000000000000b3ec7cf4503854f1f691ffb3c0bde5e22af4705161edb20ede25a62e3209a716740f390c63f636b67acc3cc7a09df93e5c53804af23e0c70c074bd1271322694",
          "covenant_type": 256,
          "created_by_coinbase": false,
          "creation_height": 0,
          "txid": "bbbbbbbbbbbbbbbbbbbbbbbbbbbbbbbbbbbbbbbbbbbbbbbbbbbbbbbbbbbbbbbb",
          "value": 100,
          "vout": 0
        }
      ]
    },
    {
      "expect_err": "TX_ERR_COVENANT_TYPE_INVALID",
      "expect_ok": false,
      "id": "CV-HTLC-12",
      "op": "covenant_genesis_check",
      "tx_hex": "010000000001000000000000000001010000000000000000016954e89e15c3eef53f39d5e758fd47dfc84f15f042cd83edc0c93723e93b7d0a83000000000000000000b3ec7cf4503854f1f691ffb3c0bde5e22af4705161edb20ede25a62e3209a716740f390c63f636b67acc3cc7a09df93e5c53804af23e0c70c074bd1271322694000000000000"
    },
    {
      "block_timestamp": 2000,
      "expect_err": "TX_ERR_SIG_ALG_INVALID",
      "expect_ok": false,
      "height": 999999,
      "id": "CV-HTLC-14",
      "op": "utxo_apply_basic",
      "tx_hex": "0100000000010000000000000001cccccccccccccccccccccccccccccccccccccccccccccccccccccccccccccccc000000000000000000015a0000000000000000002101000000000000000000000000000000000000000000000000000000000000000000000000020020b3ec7cf4503854f1f691ffb3c0bde5e22af4705161edb20ede25a62e3209a7161300100061626361626361626361626361626300024011111111111111111111111111111111111111111111111111111111111111111111111111111111111111111111111111111111111111111111111111111111102222222222222222222222222222222200",
      "utxos": [
        {
          "covenant_data": "1e32ea402d10178acc8522425d261fd5a5d5c6f2c091c631c3d9f80bfee96e76000a00000000000000b3ec7cf4503854f1f691ffb3c0bde5e22af4705161edb20ede25a62e3209a716e1a56f27a58e6f5778390d6c8ad36ffb6371c68bf46176a477abc6e8b23f107f",
          "covenant_type": 256,
          "created_by_coinbase": false,
          "creation_height": 0,
          "txid": "cccccccccccccccccccccccccccccccccccccccccccccccccccccccccccccccc",
          "value": 100,
          "vout": 0
        }
      ]
    }
  ]
}
