{
  "gate": "CV-MULTISIG",
  "vectors": [
    {
      "block_timestamp": 1000,
      "expect_fee": 10,
      "expect_ok": true,
      "expect_utxo_count": 1,
      "height": 200,
      "id": "CV-M-01",
      "op": "utxo_apply_basic",
      "tx_hex": "0100000000010000000000000001e0e0e0e0e0e0e0e0e0e0e0e0e0e0e0e0e0e0e0e0e0e0e0e0e0e0e0e0e0e0e0e0000000000000000000015a0000000000000000002101d1916e5dc12974e273215ef4501d6e2379944cfb31feaa7af4659094d6098a9e000000000101fd200acd5723bcd30c3554bce619cb754e2214c52fb451b3cf10fa160978f347eed723af8dc68088262ecc3b27ccb849b3dea32a1d9505d38d1cb6a8215f564029ca1006af69f4f3db713d675f14071e52a478b560ba2e59fbb901bfd262e5c0f5253d9f559d2cd00ba49a14dc91f9983ecee9b916c889fab26b10daf8ea910c447ac78abba10ab8874687d5fdda47cde036142b2e05eaff09cb11a709df4d1fd853c522466806459dc4591e982a0b8be214b864d9e4b21c1f4a385edcd0a21b4ff59a7c012b8ec0ccf398c1eba9280696aa1c616e5a219f97edbffee022f7532070a9ec81d71b4ea488b4351c561f38acd17b8276584cb95f7aa30a28c09495c063b5d18e1e350b5c1c34d43f98e44fab941b72bafba94fa30ac525e6b59d047da5eb0bddca2856dc41025686444b4e16710d6dded27ec6a3a89278919b18cc0b21eb57ad78de4ac6c27ec73645defa26cb1a2231562756a47931338d1efa8dd854e82a236bdbcfca57a250e77d5ae19c865b902eca6c33a09b15d5b0e56f19d81817c6000938c2ed5a0c2a5c2da9fdfbec4cc4998b88289922cb17dea2612eea7d2cc0ce10df3f8e5ad039be4fa3bce0e0b6900cba4af3cef9d47e02dbe11be8b4677cfc3b99af134845c861235de98c79d2ffd27eaba81baa533f2b9f6e3b6692e2ab3508bd928ea9be0d2c26926cfe4a9f3c096175c076568f196a0b6e5e71687bc40c7c50511b0cf08e0a54cddc369ac1a41314571fb32a5e05650408849cf2937d5cc1e48f3eec336a78959f50d4bf4ec518d6be9d3d7bbc6c3c45eb6b191099cae6854c442e69fef018576a80acaeb72299c0bae1782c006bef61aecc776288976962155ef028881857d0b7d986d076a6687bd55d1ec6f17743bbc605e7194f86038c6105de3216e15f8ae35f305bb4d35f97ad026f7b869493d1ec1115d279afe4cc0ddad4d9e5c29fbf50d4cc5f794d97b2f69f2065229a03996029822452a33e7353755cbc7505319f74c7a6248577c3669519722be6e9611377aab9cfa2ad91ed66acbf6462f17c2486aa64b9bfd59ff6c572238349ffd402859176d3abb1a49e45042ac494c994c10dae7ccb29f9418e36694cb6703e7d1ed7fc715a5a27e2907549434b8ba699741ca697cea568b8a48a96cb51cc027ccdf3c640cabab0877208d883f1db0f489bd5d366fe86f708dee3878d0a7d1d4231ba6b6aa65646e2a3c54ba68db6159b5c60800322acc38763236541203083e6a3e9f4ae3df6f847b09918175dae312c9a166ff6bbb82faee5ea9de9bf1b66ea18d34576bc8cb792ccc9762454e093f8a09d48e8eac04e092acd07b1e976a2363e6e3f8329a23f08e93cf83bf05b600f7b74b0ca16d8f11363f1065776bc784122444200a7c5ef8d09ad4b4c86ac266c654ea167f1ca80b417ebdb498e983b4a6cbeccc37af6a494dd5b103c30faec21d6bea7b25f3789b2eceee6d97b8cc01244a584bccb58155b78c6414177ebff09b0e84a58b84456e08b002e310b415347ee5c4944951acffeb9327eac9291af697db1184df246e4d71bee01d26265aaf28a1b6e66781fdd6161eac478390f269ab3164a2bb1391db1c15eeeba9153e799408fcaaa8c33a35bf37c0187e894bf3e6b5ccf3a54285035d81166fdc7c0e625a1f67438d8db2b507c211b4f8875949e7d3c5b5b70bc0151ab1465632746cd1704cf56e2c07e344e1f16aabdf5f8afe965aa861df7f7e57c27e843ae356f5685dd432618049f005f12dffd81b177d7bc0eb13696b18773fce1869ea41ba4f1acfc35a20e9be29ef254d55fa1f05a714de015c6be611c006b88378eaba45ad88b357623fddc589a1c45220f7c535336f0f089cf3138c68bcc2016b75a7afc4ae508e943ccf622bdbb443d9350168fb80d65e84ca60adec6400264a8b83a3b0c83cdc55402efdb784302154e2910325b611f8cff9a1d9107e700f716a5c5adf180771b3024f89b6290be6a2e2d94c4652bdfd0a56bb53054eed2d5233858b47650065e90008aa0b47b7a60e309f25783598f026acc8fef7b6de82d3d24ec3ea20cffb5364f7dddd5d282a054bc61ac1130a469d1e1bc41f4a1d9b9666af66075bcd65e5c9d2cc5dfb360c1c2b0821e7dd65c85e2c5c93efdda6da5d9a04cfbd34a2eb42d35483304808a91def5048e209ed08a801c807a36de95482890ccb0c0a9d0dc344d4712a76a2f88481cb2c99fa9e605cfeb00d969d55af46fe0ca9ce912d3ebbb92ebf4be6da68c55354d7c3d28d38fc519da7a128eebdf8da78eab587126c7b3dcc974695211a1c9e84b72b1a92557a37948ee59f093969ce3645bf46f3d80b79e31893364f3268f5fb6b376454925fbbd8bf17a559f43ed03b273f71c8a7f69d9840250e785a4f371f251c4ce911c7151717722c2428ff2fd762bc9273c46d4e008d708b79ef7e77a6859c25a9a228de2e6d1b9d13ad184b185590012ab456731c2741231b2e9107b263e86e56892b4368b9c90edc2a817d51cd480309d1916e96b30c2d0872bb9defcc1811c1bd3faa3b332fa5e5d603b98685a56d22b32752d9fcb25a65876f23783b91bbcdaa913cd6ca46bebf6710c73fe152992773d2ed6c6e0f29793341610b89368aad3e9aad8364deafe457b199501f5fd2c59e0210d790781d268e0a6b89164417df95e3b8ef691431d38e616e11c51044d17c55a82df9a32c564b93321ecb7a73d5edb443d5d4bf5a3fe11ffc18a20c0d77061d0d824cdeeb59d74c5857fb0b0b3c4a4ad62b6a8f6798ac00ea81abb85f8bc31670b83822faebb1e0402fa4805dc643cd33decb49ee88a290fe674f0e57124e548f23a03426e2eb308e277ee335f4125ea956e5f733d5f6453bfef3fbc84530f533bd965aa47e05f18cd20497844bf53446498f7bc6affa10d5cc3cafdc31e753f8f0b667a5a4e1780f54a2867af92e66a8b7ac34c19e71564a0913875fdc002b23859cc8cc5cdb97ad4e6aabe91cfa9be703a127311157d27167cc655262b5edd307038791f54932078d6abd38283ce6e7dea05e09495b65c672bd07fa981d8c25142bef56aff2e30bd3c487aa2466d08d77be3f1d2b55ec4d628a66b2de025a99dec4b52d63ded51bc16d65c7a240297bcd55595fb22410c6a0f855971836cc3eee872eff77cc1be769e52b2bbf9e3a64f426e5881d1ed0fcd318bdb79fa8539b0c1149c6b8f59758d9f1042a8c1c3ba4de923b0b4f905222611dbd590d8208b228405382ef62bb39789d1668caddb68824bcda611f65af516c55d22adecf7e410df9033d476d70efc29c986b1e6e87d1022feb6b28fdd1d2b20e65171f28b4e477b11f3d1e54c6e52d214a981ca4a3ec442bbb5ff57eaf009f7634a4d151a10d17af31536008bcc710724a14abbd4829a8a385ea9d4c5d36840772a7b0f89cb8d55d6b3e6e3ef72aa387279e1a13295653453d01dac4702d63682c1baa704e8d7f36c46bbec0a0501a1346b268eb226b313083f8fa2b8b759a68bf867bd716b081a40e586470fef8ce318484ad3708c11939edcbe61dc1dcc4bfbcb49bf66725df951e3d074cc70e305789ced9282314360c7f60e25271c03f5a6f68e32b6652c06d6610a6eb85ce957f138593bb9954183d6a3c9426de09ed67a130ac08c2f923120fd1412c066c57538c3539a820b6f6309664b45c059e72fb539d0720b1abe293eb5b4c6160032ff9bb12b41e0c7e10b8b50621baad0a6828fb4d188024cf11fc4d0145d474c8d6baa381c4b3d9a66b29c560bffc650baf941135d704aeb95e447dcfeb3177bf90b1725ea19f7a3ff4f0eb987460f8f92255704fa7b0ceed548a1293a19d777068a17ee17318cc96a1982f1f930fe5a0000a105f90aceb6ac47a89777cfb0216de40a5ea81af1f570eb76107d14c42fb9c5117c857b8b0dc9ad4b49066ecdd9efb624442205304070153b513333b68cf690e6a7b64c2dce65afc8ee4194b3d5dce11e5db356edd5df096cb07edeaa379d0a9734a57114dde6544826021145a56092a2f145a4b588156807dde01ea2818a7b4eaab40ae3db3951af23a892319f244f6ff7b2b9e757b8a57998e735b2ab98b80bb8a6fcd82818d5c5d684652a3effb28543aa2b31296522974288e837f11da5e10588cd481fd52882ffa7bc601f7cc1fb9d140bcfe37e98536f452467e836e11117d867597d8578b8c42d1fbebdaa4da37e4d3797f26d3f0be62e15a3464fa6db22a9b4b715abc276ccca97bae16538f017ffe41d92f3d5a76517c138ce8b3ef44080944e9d392f081351a72e37557b395fe5eaab4f3f73b8b181da0a5392b0dee1a035344957c30c09cf302fd793c8bd7a5499496ee30fc161437edb48ffcfba0e7e04c6c880dcfe9d1d6bdd979c1e7abeedae90f07de48bd1a4e12cbc30468af4904fe5ec1c1a5ac87dcb3cbe7a5c0de58947be5d5f4c2bcf1c079120effdd4761f049767f5c2954e89a137528ecbc869452ebd07dc9400aec6f590600e73cd983e0fe32f7b9fd6ff2ac56049a3c9e1c11cbefa62012ae93c6ad1bf2aab31006a315fef4f2dfd4e7bbafa71709d49c56996e5bf8c4dcc9d5f09e49e34826279e9aa48aa20abb6b9fa0614a1dcbfee54b827f4daaad805b91a6f5f80f1b5531c9b3481d547e2485a4f37f40df0f8e7ce0e21989e3b4667a0285dae609fd9bc26d25b0501d424c979152ccb4b54a805bbbb8c4f8b4c3befa870983f86e8148827de6d39240a4bec112a242baa1d1250ae641e87788469dcc4ec155fd1065f4a46f84a5d309afc05ac6c6f5404f1e26e42e082fe0a089e2b2a6ad875fb81a007e8f9bf0bd0572a7a0efe2e8601621716f3e92acef2ecb6a71cc8fc80297db91eb122da5cad401e33773e01a1355aa2adc35ac866756b2c923ee639ce6cccc54419dbbb5cb75c47a821ac9f10c884780d21d8c8691f5f86e086cbad1061b45034952df750c25be5b5054a5a80d5fde7b6aa69e1945785120844fa5ead1125db558aa58b21ff25b5ce46c524cec5ed21b16c98bfb34a6b6a14c95ca625e1c77bbf1637795fd6b0bddcf16090020fcb397053a5e4931aab6c111c2a5edd41825a2da232a0edb87529ea6081fac995261ae05f426c2bd7207894e87565002cf1869574c3a1b2cc017314b7fa919fede5ba13202328adb15116440759e6870a0ab7a9a32cd2ddb4aa1e3e71dcc15a58f1569d9fb2b1b3d1a6c22f5a41998db5aa0a43c352a4b10d17e39219994ab53c9f9f95bc48d1a5e8bb30d6ac06eb182d818b027b15924c5da6ed04a7a20b5fac3d30e5d34a66b975468cd5401378c3cbec278cc5d35f9e5dce71ea2fa06251278044e5c2cffaa32b40f5f65112c3ec72190571cd3d11c99e131585fa81c45f17faf4540f83aa85046438dc003a68175b70dcb652ef9045f0198efda41c4e179aed6ddb245f9f400d79772f5aaf73c76660ca5ff746af7e1f98ed0da1937601f408de0c32e83c24de317cf737409509ac8c7002c76e09c25a97ca7702f320bbd2df9308abe79f6def1bc94fe23669a46d599bb38d9802f7076a335f8abc1061079d2bdef5e354bc424593cc21940325ac015f761b3d2281b2d22b68c5fcad5a127f56eab6b0aac0d0d2be5ad425474e4131b48cd764a15eb8d074121c2a03ffb5b3b215b980488adc3b42b0694db7170d229c28414d13b42fefe891d846f8817e83dd2222a984930439dec7ca2dbc707112a892885a2e1dd7302acc83e23a863a16726364006b1cbb2f81a87eb8c83294a39d70fa36bf5a93f31b7e8eb73cd213e046bda1ee2e2f0049ea0e10f0790c3baa6d9ea3ed9e2a44c03ef637a79bbb6c544ad4fab1d3eb5f174703a7b481368931714f9477ca78462f8b0d6bee56417d934076eeafc61df534bd0a7875bab86457ef1401c3f1a9a6f29e2b9c4e5e87cfd8707bac56b3125aa324c30c32ff4b77670ac1ac3dc0d44f4f2a608213087d816c5a41896ca09edaddf851a85cf3e36fc463e84ed14a60a1be173ef95169c3e09b9c46a2469df60368d61ae79cf56483da58e43b385d9b12589c338533fa2dd9a7c40617ea615fdfa11e3f211fe56233b53be72281d818b2842c9601439340c8d3038632510379c489150b362b8ec756ebc64d2e8de8e296d3db6c0c70772a0af08e4d3c654cbaff79e6471400d91284823a839d298e18fd63568b625c84dab68f333fe4506868d0e60b13c816a8cd67f63d3dc36ead45eadb2dbb383784c0e607599be0af3c9b00391c9a522df576e5909b71e20650864bf22940aebb6cd62282afc630799890a1b38db12fd94f99e2fc2cb899436c418ef659ba96150e6a182c31f74711716d369436ad22ab93ef6b084df7cce839ac185aba99c365e47768003c29de23ba526725df863e57255cab69ba58b0bdd73126add15dab3235225dca79e2263b63a0e5bad3d2912f0915952483984f6dff73f31bb54374dfc632632f3e0909596c1f87c1bc2f8af65fb71f4574c20432631f427f35664e168f728a6f3a23e7ac5b09bda57610d25ef44071ca7cf93efbc5840ddb8d043d55774e4d5599728dabe5d22994003627720e529f81d34ee0e4328f5d416a36176856ee0fb1368ba7ccc1a9c9d0ab329a518c5ea4d5c019daf35244bbb972e562a152d7d5e61b106f9b7a691aa72ab2c01d7cfbb218ff241acc4881f4df6251422f34690c0a0fad0c591dba67f91525eb3b9839f73fbeed1e3df961d2231da87b2e0b1ba822a2b09b4dca436b5b8fb60f492649c1e6acdeff165d204ef3cbdec5d63b07ed184d62fcc99a79ce81094d1235edf473534809c0904c613717783969f2ca0ae6f03bead20de46d6f22353d87e0ecd3a687c25888186fb820c913f7f275e1961f50f5abbb2426fe6d9807bb8c0e28c514f76010e08f5aea4fd9722b123cdf325ec5373b96892e43fbb0c526aa7e9156444e00d76bcf472eddd56426a8c0283fb8ec7f624432c468c1136e4a041e3d28c35619b5c57fd0d43e2b1b17ff412d3b19b1937b7f45460158a22758f26a3a0534bd0bb7f2e0e8ef3513f1d496097f978eacf1d9b711ab3741d59af25af943de475e55427edc09d8ec6035d3148cb33632ca0e3b72c995ccdf2108d4b906e95c56250219d6ad270d8a53963a4f804aacea256655690365a6d84bd433a3c223e10e40b78260e2aa2f5cfd3da998224488f250ae1fc2427ba3d97e0f75cbd3c86a62f4abd94e001c549d61935159a40974786112e741098b9012f09bb379250899cd1e781a990af21164e74df5c8c852a99a8258fbe488edf37dd6c83872e0d2adbd68451d6aa3cee07489a1d4c3266eeebae2b03a0f3fb1a6dea41a9ee9b9d0f76ef6a6cfc1881e3f064c6f6207f386317888a372fe481a1378b0f95a300a8e704a780c6c3fd9d9b5abe0038eec6f0e4b7f6f14d1f825dc6cd4fcbd30901a5b9709efa3b0893dae02201f1cab0394c00ec9229f221e070f6b7292849da11c61990a82cc6d9935dd1e200937e619528eec266900fdb4a1875533d4a66093c2e9e1eddd7a55897aff2e4cde3f403d4f67e37fa7c6efdd509cfa036d5830b2322b14f686001d45a4c58f463750967560e977e4017f1adbebc0d6fe79fd84c3532847732088efdaf6773ed21b05e20214eefc20b4e31a4ecadbecc99122af85d3fbfc2c4f817469ea8148205a718c287b52777c7fcfb241e3c1f7bf8d304d54019002aeb85347d50f3d2950cb5c7e04728da7872748a93a77edeef00d0200ec45eedec988b09e8e2064fec6cbcad84dd4d88d9442203a56da60cdbf23713a79cf032d1e41176c2edda4aa7dedf4dfedbe1db164ebea57ad3ca30160cfce8ab50704b5b063a9514f20f890cb8970f5915ead61ce3488d3835825e3bfa07ff780162545d8eb699f06ae1a179992452b47d259fd3fc0364b3fa631127de21a7bd7787217a17cd383061aea33610f7bbc8cd817c09e6e9eb19dc7872fcc202df3327571a5ac3dfdf5dee008bcaa4d13111deb7da5d0b7cc459bd4069f2371f64a926f30863dc30b40bc053a29a78956a3ce0ded6be3fa8e229cf7f04c5642dc3756e70e91c4187ac6052d59019c0a7769565e0ba2a18962c2af279f6212b3bd8ae0dfc3a817d9671e8f1519f5b804313cfcadaedcc738089657c4777ae1c18c5253bfa46c454611d9312a2ad89f862379975ddbe06aaf3a77d97a9627bc69a17d9b536020d8df6d47c5c5dfd2d035cda8b0a8d74a29fcba5dfcfc5048aedf48a65cbb511b2f5c2ebb4e0365e2990d2ca5e183c6f78a3f1c4322f298afcb5b33cbc43660041b8467e0a71f3971557233ff2936b1403d8ef6ccb705748814a014b6ee7e6e089dfceb9c946a70e4102fedf10563ef79c164f96271638a44a6373440f94e14ff5acd97496fe04f5e26a9550dfc492a4d4928224e7efa52501cf42124326107496555a6b00acff8c3ef54a90e997785b6eae8112532ce8ebd3aa019bb8fcec9d84be69697fc9404bae48dd9732d714b4e87517cec001a18ca8ae527fbcb6b1b68e6d6826c96bc943f7ba1bf6d2df86da9463c7b755e1b20863775b60abd5e19d44872f60fa0c643c6d3236623a8dbdea4fef6d9e3024e9a0ea8f023923103ac284a3810683c6fb756aa19969fa14f8788d8e6c05087109a708e0a13bb587e6f88204e202e4133086e4f6c72f07246bb528c1e61bcd6eb90b14751798f6d38fbad8d41daacbd3e504274f48a53496c9b63e919ac75a7e843deff2f3a22a8de6b9cdbece156cc79ff6d3654564d733d6c7c661b50e99849e0e0549114a02e9b3d503e3f34c84ee207248120fcda455163ba953543436bcfdd3497da7fd6251f32c6caad04b67a99aee6dcdb6d89eff6f0680e26500a9d31b222c3e9d8ac0c115495e05f61f216379272ece51976345ba64817efe33d87aac45698f687dab07c097b6779774cc5e7538fdceb104696b712368bb42d3506d974ab63a9a1401dab22422e10ecb82ebfbc2dd996038a733a71ea211381f03d7efb994aa3f68573f22a9ecc7e357486629dea7961c500bb25aeb5af8059ceb440ec1d301d6d39c48dea833f471fc6383400ff43906a9cfd03d11e17d135302eddc66dd9d8c5bfaff8e0e0bad3369f7b84ffda63469dea9478a84cffc97b33e35788f128177375600bc8decf4846f242668806182b9c83c2b71fd6f3dbe2b3f0b436a038dbcea954ab2481f8ef4832959be528a74f854caa236f49475fac01100f23744a0d52bc188f7633b3195c89ab66ae7e7eea86b840b39b2a464781242b902d854c8798d8f7cbf1f9a42773e44280fcea5b4f9711a5df30fa314b959702a1e9fd637bec05521fc99e227f0f9fc4141ab74fe4656d27db8c009fd4f308120d7d7c1f461f97c9503136a0f2ec408fb20b4d227e0d1414c8abaa7698621aaa4fc5407f455f42ade13d13c5b54fbff0ee3a1a2d350b7c064d10d1ffdb542ae0cc60170ce667703d2012429af27375d06e4fe6360d7982d9de36624f5a77aede6b2e91908021a013e0179caf44e7bcb1fbbafdc12354d68ec595009e75fb2cfedf24699e0580363bfcc09bc86660ad4d28dc606a83e906cf54e463ebc7ce5584d2d05c17531ba9968e2ffe75491ba53eb2d53cbd558aff0a00c7b1a1b1fe1e486e6eb4b2d5325cf628c32c10b3a3b45af2f32afe6fdf340eb983a7ad6ee2d1ccb4a8f88d284e6ea53cb4d7f54f1e8e40a75bf768aaff0689ce88f20dd1c2c72936bd525271c198361212a440bdd7359a01d072af8fa67213702865979d5704fec73bd6505944a8489a7df4f3d219f8e699bcf22b710ccd996de1e37d8b55abb59f1a3da2841e4774d8c668b71ffa2aec8b475e5e4462dc4ad18d891995e0885c63d90e0ce2fbc72c21472a94a99497030692e0fd94c866aeebbf05b9d9f0cbf3da8dd066f5d06c69d54eba77526acaff9f28f125431e9b178c590a4d254b62979a55f4c85eb3b4893cde3eb1fecc984309b382f22ac4e3425a7302a819151499869e2116ce1dcf92cb09ebc88dedef259dbdf05bc864f1b497c559038236353524b152b38d097d0aa2cf0c8b63571d3839be973226a4d155a9539c2ae1eaf50a0f2c3d5159656667a3ec0d2542494d797fdefb2257aab01d2b315bb33b94acb9e139660c111e46495b6690ddfb00000000000000000000000000000000000000000000000000040f181c212628320100",
      "utxos": [
        {
          "covenant_data": "0101d1916e5dc12974e273215ef4501d6e2379944cfb31feaa7af4659094d6098a9e",
          "covenant_type": 260,
          "created_by_coinbase": false,
          "creation_height": 0,
          "txid": "e0e0e0e0e0e0e0e0e0e0e0e0e0e0e0e0e0e0e0e0e0e0e0e0e0e0e0e0e0e0e0e0",
          "value": 100,
          "vout": 0
        }
      ]
    }
  ]
}
