{
  "gate": "CV-MULTISIG",
  "vectors": [
    {
      "block_timestamp": 1000,
      "expect_fee": 10,
      "expect_ok": true,
      "expect_utxo_count": 1,
      "height": 200,
      "id": "CV-M-01",
      "op": "utxo_apply_basic",
      "tx_hex": "0100000000010000000000000001e0e0e0e0e0e0e0e0e0e0e0e0e0e0e0e0e0e0e0e0e0e0e0e0e0e0e0e0e0e0e0e0000000000000000000015a0000000000000000002101d1916e5dc12974e273215ef4501d6e2379944cfb31feaa7af4659094d6098a9e000000000101fd200acd5723bcd30c3554bce619cb754e2214c52fb451b3cf10fa160978f347eed723af8dc68088262ecc3b27ccb849b3dea32a1d9505d38d1cb6a8215f564029ca1006af69f4f3db713d675f14071e52a478b560ba2e59fbb901bfd262e5c0f5253d9f559d2cd00ba49a14dc91f9983ecee9b916c889fab26b10daf8ea910c447ac78abba10ab8874687d5fdda47cde036142b2e05eaff09cb11a709df4d1fd853c522466806459dc4591e982a0b8be214b864d9e4b21c1f4a385edcd0a21b4ff59a7c012b8ec0ccf398c1eba9280696aa1c616e5a219f97edbffee022f7532070a9ec81d71b4ea488b4351c561f38acd17b8276584cb95f7aa30a28c09495c063b5d18e1e350b5c1c34d43f98e44fab941b72bafba94fa30ac525e6b59d047da5eb0bddca2856dc41025686444b4e16710d6dded27ec6a3a89278919b18cc0b21eb57ad78de4ac6c27ec73645defa26cb1a2231562756a47931338d1efa8dd854e82a236bdbcfca57a250e77d5ae19c865b902eca6c33a09b15d5b0e56f19d81817c6000938c2ed5a0c2a5c2da9fdfbec4cc4998b88289922cb17dea2612eea7d2cc0ce10df3f8e5ad039be4fa3bce0e0b6900cba4af3cef9d47e02dbe11be8b4677cfc3b99af134845c861235de98c79d2ffd27eaba81baa533f2b9f6e3b6692e2ab3508bd928ea9be0d2c26926cfe4a9f3c096175c076568f196a0b6e5e71687bc40c7c50511b0cf08e0a54cddc369ac1a41314571fb32a5e05650408849cf2937d5cc1e48f3eec336a78959f50d4bf4ec518d6be9d3d7bbc6c3c45eb6b191099cae6854c442e69fef018576a80acaeb72299c0bae1782c006bef61aecc776288976962155ef028881857d0b7d986d076a6687bd55d1ec6f17743bbc605e7194f86038c6105de3216e15f8ae35f305bb4d35f97ad026f7b869493d1ec1115d279afe4cc0ddad4d9e5c29fbf50d4cc5f794d97b2f69f2065229a03996029822452a33e7353755cbc7505319f74c7a6248577c3669519722be6e9611377aab9cfa2ad91ed66acbf6462f17c2486aa64b9bfd59ff6c572238349ffd402859176d3abb1a49e45042ac494c994c10dae7ccb29f9418e36694cb6703e7d1ed7fc715a5a27e2907549434b8ba699741ca697cea568b8a48a96cb51cc027ccdf3c640cabab0877208d883f1db0f489bd5d366fe86f708dee3878d0a7d1d4231ba6b6aa65646e2a3c54ba68db6159b5c60800322acc38763236541203083e6a3e9f4ae3df6f847b09918175dae312c9a166ff6bbb82faee5ea9de9bf1b66ea18d34576bc8cb792ccc9762454e093f8a09d48e8eac04e092acd07b1e976a2363e6e3f8329a23f08e93cf83bf05b600f7b74b0ca16d8f11363f1065776bc784122444200a7c5ef8d09ad4b4c86ac266c654ea167f1ca80b417ebdb498e983b4a6cbeccc37af6a494dd5b103c30faec21d6bea7b25f3789b2eceee6d97b8cc01244a584bccb58155b78c6414177ebff09b0e84a58b84456e08b002e310b415347ee5c4944951acffeb9327eac9291af697db1184df246e4d71bee01d26265aaf28a1b6e66781fdd6161eac478390f269ab3164a2bb1391db1c15eeeba9153e799408fcaaa8c33a35bf37c0187e894bf3e6b5ccf3a54285035d81166fdc7c0e625a1f67438d8db2b507c211b4f8875949e7d3c5b5b70bc0151ab1465632746cd1704cf56e2c07e344e1f16aabdf5f8afe965aa861df7f7e57c27e843ae356f5685dd432618049f005f12dffd81b177d7bc0eb13696b18773fce1869ea41ba4f1acfc35a20e9be29ef254d55fa1f05a714de015c6be611c006b88378eaba45ad88b357623fddc589a1c45220f7c535336f0f089cf3138c68bcc2016b75a7afc4ae508e943ccf622bdbb443d9350168fb80d65e84ca60adec6400264a8b83a3b0c83cdc55402efdb784302154e2910325b611f8cff9a1d9107e700f716a5c5adf180771b3024f89b6290be6a2e2d94c4652bdfd0a56bb53054eed2d5233858b47650065e90008aa0b47b7a60e309f25783598f026acc8fef7b6de82d3d24ec3ea20cffb5364f7dddd5d282a054bc61ac1130a469d1e1bc41f4a1d9b9666af66075bcd65e5c9d2cc5dfb360c1c2b0821e7dd65c85e2c5c93efdda6da5d9a04cfbd34a2eb42d35483304808a91def5048e209ed08a801c807a36de95482890ccb0c0a9d0dc344d4712a76a2f88481cb2c99fa9e605cfeb00d969d55af46fe0ca9ce912d3ebbb92ebf4be6da68c55354d7c3d28d38fc519da7a128eebdf8da78eab587126c7b3dcc974695211a1c9e84b72b1a92557a37948ee59f093969ce3645bf46f3d80b79e31893364f3268f5fb6b376454925fbbd8bf17a559f43ed03b273f71c8a7f69d9840250e785a4f371f251c4ce911c7151717722c2428ff2fd762bc9273c46d4e008d708b79ef7e77a6859c25a9a228de2e6d1b9d13ad184b185590012ab456731c2741231b2e9107b263e86e56892b4368b9c90edc2a817d51cd480309d1916e96b30c2d0872bb9defcc1811c1bd3faa3b332fa5e5d603b98685a56d22b32752d9fcb25a65876f23783b91bbcdaa913cd6ca46bebf6710c73fe152992773d2ed6c6e0f29793341610b89368aad3e9aad8364deafe457b199501f5fd2c59e0210d790781d268e0a6b89164417df95e3b8ef691431d38e616e11c51044d17c55a82df9a32c564b93321ecb7a73d5edb443d5d4bf5a3fe11ffc18a20c0d77061d0d824cdeeb59d74c5857fb0b0b3c4a4ad62b6a8f6798ac00ea81abb85f8bc31670b83822faebb1e0402fa4805dc643cd33decb49ee88a290fe674f0e57124e548f23a03426e2eb308e277ee335f4125ea956e5f733d5f6453bfef3fbc84530f533bd965aa47e05f18cd20497844bf53446498f7bc6affa10d5cc3cafdc31e753f8f0b667a5a4e1780f54a2867af92e66a8b7ac34c19e71564a0913875fdc002b23859cc8cc5cdb97ad4e6aabe91cfa9be703a127311157d27167cc655262b5edd307038791f54932078d6abd38283ce6e7dea05e09495b65c672bd07fa981d8c25142bef56aff2e30bd3c487aa2466d08d77be3f1d2b55ec4d628a66b2de025a99dec4b52d63ded51bc16d65c7a240297bcd55595fb22410c6a0f855971836cc3eee872eff77cc1be769e52b2bbf9e3a64f426e5881d1ed0fcd318bdb79fa8539b0c1149c6b8f59758d9f1042a8c1c3ba4de923b0b4f905222611dbd590d8208b228405382ef62bb39789d1668caddb68824bcda611f65af516c55d22adecf7e410df9033d476d70efc29c986b1e6e87d1022feb6b28fdd1d2b20e65171f28b4e477b11f3d1e54c6e52d214a981ca4a3ec442bbb5ff57eaf009f7634a4d151a10d17af31536008bcc710724a14abbd4829a8a385ea9d4c5d36840772a7b0f89cb8d55d6b3e6e3ef72aa387279e1a13295653453d01dac4702d63682c1baa704e8d7f36c46bbec0a0501a1346b268eb226b313083f8fa2b8b759a68bf867bd716b081a40e586470fef8ce318484ad3708c11939edcbe61dc1dcc4bfbcb49bf66725df951e3d074cc70e305789ced9282314360c7f60e25271c03f5a6f68e32b6652c06d6610a6eb85ce957f138593bb9954183d6a3c9426de09ed67a130ac08c2f923120fd1412c066c57538c3539a820b6f6309664b45c059e72fb539d0720b1abe293eb5b4c6160032ff9bb12b41e0c7e10b8b50621baad0a6828fb4d188024cf11fc4d0145d474c8d6baa381c4b3d9a66b29c560bffc650baf941135d704aeb95e447dcfeb3177bf90b1725ea19f7a3ff4f0eb987460f8f92255704fa7b0ceed548a1293a19d777068a17ee17318cc96a1982f1f930fe5a0000a105f90aceb6ac47a89777cfb0216de40a5ea81af1f570eb76107d14c42fb9c5117c857b8b0dc9ad4b49066ecdd9efb624442205304070153b513333b68cf690e6a7b64c2dce65afc8ee4194b3d5dce11e5db356edd5df096cb07edeaa379d0a9734a57114dde6544826021145a56092a2f145a4b588156807dde01ea2818a7b4eaab40ae3db3951af23a892319f244f6ff7b2b9e757b8a57998e735b2ab98b80bb8a6fcd82818d5c5d684652a3effb28543aa2b31296522974288e837f11da5e10588cd481fd52882ffa7bc601f7cc1fb9d140bcfe37e98536f452467e836e11117d867597d8578b8c42d1fbebdaa4da37e4d3797f26d3f0be62e15a3464fa6db22a9b4b715abc276ccca97bae16538f017ffe41d92f3d5a76517c138ce8b3ef44080944e9d392f081351a72e37557b395fe5eaab4f3f73b8b181da0a5392b0dee1a035344957c30c09cf302fd793c8bd7a5499496ee30fc161437edb48ffcfba0e7e04c6c880dcfe9d1d6bdd979c1e7abeedae90f07de48bd1a4e12cbc30468af4904fe5ec1c1a5ac87dcb3cbe7a5c0de58947be5d5f4c2bcf1c079120effdd4761f049767f5c2954e89a137528ecbc869452ebd07dc9400aec6f590600e73cd983e0fe32f7b9fd6ff2ac56049a3c9e1c11cbefa62012ae93c6ad1bf2aab31006a315fef4f2dfd4e7bbafa71709d49c56996e5bf8c4dcc9d5f09e49e34826279e9aa48aa20abb6b9fa0614a1dcbfee54b827f4daaad805b91a6f5f80f1b5531c9b3481d547e2485a4f37f40df0f8e7ce0e21989e3b4667a0285dae609fd9bc26d25b0501d424c979152ccb4b54a805bbbb8c4f8b4c3befa870983f86e8148827de6d39240a4bec112a242baa1d1250ae641e87788469dcc4ec155fd1065f4a46f84a5d309afc05ac6c6f5404f1e26e42e082fe0a089e2b2a6ad875fb81a007e8f9bf0bd0572a7a0efe2e8601621716f3e92acef2ecb6a71cc8fc80297db91eb122da5cad401e33773e01a1355aa2adc35ac866756b2c923ee639ce6cccc54419dbbb5cb75c47a821ac9f10c884780d21d8c8691f5f86e086cbad1061b45034952df750c25be5b5054a5a80d5fde7b6aa69e1945785120844fa5ead1125db558aa58b21ff25b5ce46c524cec5ed21b16c98bfb34a6b6a14c95ca625e1c77bbf1637795fd6b0bddcf16090020fcb397053a5e4931aab6c111c2a5edd41825a2da232a0edb87529ea6081fac995261ae05f426c2bd7207894e87565002cf1869574c3a1b2cc017314b7fa919fede5ba13202328adb15116440759e6870a0ab7a9a32cd2ddb4aa1e3e71dcc15a58f1569d9fb2b1b3d1a6c22f5a41998db5aa0a43c352a4b10d17e39219994ab53c9f9f95bc48d1a5e8bb30d6ac06eb182d818b027b15924c5da6ed04a7a20b5fac3d30e5d34a66b975468cd5401378c3cbec278cc5d35f9e5dce71ea2fa06251278044e5c2cffaa32b40f5f65112c3ec72190571cd3d11c99e131585fa81c45f17faf4540f83aa85046438dc003a68175b70dcb652ef9045f0198efda41c4e179aed6ddb245f9f400d79772f5aaf73c76660ca5ff746af7e1f98ed0da1937601f408de0c32e83c24de317cf737409509ac8c7002c76e09c25a97ca7702f320bbd2df9308abe79f6def1bc94fe23669a46d599bb38d9802f7076a335f8abc1061079d2bdef5e354bc424593cc21940325ac015f761b3d2281b2d22b68c5fcad5a127f56eab6b0aac0d0d2be5ad425474e4131b48cd764a15eb8d074121c2a03ffb5b3b215b980488adc3b42b0694db7170d229c28414d13b42fefe891d846f8817e83dd2222a984930439dec7ca2dbc707112a892885a2e1dd7302acc83e23a863a16726364006b1cbb2f81a87eb8c83294a39d70fa36bf5a93f31b7e8eb73cd213e046bda1ee2e2f0049ea0e10f0790c3baa6d9ea3ed9e2a44c03ef637a79bbb6c544ad4fab1d3eb5f174703a7b481368931714f9477ca78462f8b0d6bee56417d934076eeafc61df534bd0a7875bab86457ef1401c3f1a9a6f29e2b9c4e5e87cfd8707bac56b3125aa324c30c32ff4b77670ac1ac3dc0d44f4f2a608213087d816c5a41896ca09edaddf851a85cf3e36fc463e84ed14a60a1be173ef95169c3e09b9c46a2469df60368d61ae79cf56483da58e43b385d9b12589c338533fa2dd9a7c40617ea615fdfa11e3f211fe56233b53be72281d818b2842c9601439340c8d3038632510379c489150b362b8ec756ebc64d2e8de8e296d3db6c0c70772a0af08e4d3c654cbaff79e6471400d91284823a839d298e18fd63568b625c84dab68f333fe4506868d0e60b13c816a8cd67f63d3dc36ead45eadb2dbb383784c0e607599be0af3c9b00391c9a522df576e5909b71e20650864bf22940aebb6cd62282afc630799890a1b38db12fd94f99e2fc2cb899436c418ef659ba96150e6a182c31f74711716d369436ad22ab93ef6b084df7cce839ac185aba99c365e47768003c29de23ba526725df863e57255cab69ba58b0bdd73126add15dab3235225dca79e2263b63a0e5bad3d2912f0915952483984f6dff73f31bb54374dfc632632f3e0909596c1f87c1bc2f8af65fb71f4574c20432631f427f35664e168f728a6f3a23e7ac5b09bda57610d25ef44071ca7cf93efbc5840ddb8d043d55774e4d5599728dabe5d22994003627720e529f81d34ee0e4328f5d416a36176856ee0fb1368ba7ccc1a9c9d0ab329a518c5ea4d5c019daf35244bbb972e562a152d7d5e61b106f9b7a691aa72ab2c01d7cfbb218ff241acc4881f4df6251422f34690c0a0fad0c591dba67f91525eb3b9839f73fbeed1e3df961d2231da87b2e0b1ba822a2b09b4dca436b5b8fb60f492649c1e6acdeff165d204ef3cbdec5d63b07ed184d62fcc99a79ce81094d1235edf473534809c0904c613717783969f2ca0ae6f03bead20de46d6f22353d87e0ecd3a687c25888186fb820c913f7f275e1961f50f5abbb2426fe6d9807bb8c0e28c514f76010e08f5aea4fd9722b123cdf325ec5373b96892e43fbb0c526aa7e9156444e00d76bcf472eddd56426a8c0283fb8ec7f624432c468c1136e4a041e3d28c35619b5c57fd0d43e2b1b17ff412d3b19b1937b7f45460158a22758f26a3a0534bd0bb7f2e0e8ef3513f1d496097f978eacf1d9b711ab3741d59af25af943de475e55427edc09d8ec6035d3148cb33632ca0e3b72c995ccdf2108d4b906e95c56250219d6ad270d8a53963a4f804aacea256655690365a6d84bd433a3c223e10e40b78260e2aa2f5cfd3da998224488f250ae1fc2427ba3d97e0f75cbd3c86a62f4abd94e001c549d61935159a40974786112e741098b9012f09bb379250899cd1e781a990af21164e74df5c8c852a99a8258fbe488edf37dd6c83872e0d2adbd68451d6aa3cee07489a1d4c3266eeebae2b03a0f3fb1a6dea41a9ee9b9d0f76ef6a6cfc1881e3f064c6f6207f386317888a372fe481a1378b0f95a300a8e704a780c6c3fd9d9b5abe0038eec6f0e4b7f6f14d1f825dc6cd4fcbd30901a5b9709efa3b0893dae02201f1cab0394c00ec9229f221e070f6b7292849da11c61990a82cc6d9935dd1e200937e619528eec266900fdb4a1875533d4a66093c2e9e1eddd7a55897aff2e4cde3f403d4f67e37fa7c6efdd509cfa036d5830b2322b14f686001d45a4c58f463750967560e977e4017f1adbebc0d6fe79fd84c3532847732088efdaf6773ed21b05e20214eefc20b4e31a4ecadbecc99122af85d3fbfc2c4f817469ea8148205a718c287b52777c7fcfb241e3c1f7bf8d304d54019002aeb85347d50f3d2950cb5c7e04728da7872748a93a77edeef00d0200ec45eedec988b09e8e2064fec6cbcad84dd4d88d9442203a56da60cdbf23713a79cf032d1e41176c2edda4aa7dedf4dfedbe1db164ebea57ad3ca30160cfce8ab50704b5b063a9514f20f890cb8970f5915ead61ce3488d3835825e3bfa07ff780162545d8eb699f06ae1a179992452b47d259fd3fc0364b3fa631127de21a7bd7787217a17cd383061aea33610f7bbc8cd817c09e6e9eb19dc7872fcc202df3327571a5ac3dfdf5dee008bcaa4d13111deb7da5d0b7cc459bd4069f2371f64a926f30863dc30b40bc053a29a78956a3ce0ded6be3fa8e229cf7f04c5642dc3756e70e91c4187ac6052d59019c0a7769565e0ba2a18962c2af279f6212b3bd8ae0dfc3a817d9671e8f1519f5b804313cfcadaedcc738089657c4777ae1c18c5253bfa46c454611d9312a2ad89f862379975ddbe06aaf3a77d97a9627bc69a17d9b536020d8df6d47c5c5dfd2d035cda8b0a8d74a29fcba5dfcfc5048aedf48a65cbb511b2f5c2ebb4e0365e2990d2ca5e183c6f78a3f1c4322f298afcb5b33cbc43660041b8467e0a71f3971557233ff2936b1403d8ef6ccb705748814a014b6ee7e6e089dfceb9c946a70e4102fedf10563ef79c164f96271638a44a6373440f94e14ff5acd97496fe04f5e26a9550dfc492a4d4928224e7efa52501cf42124326107496555a6b00acff8c3ef54a90e997785b6eae8112532ce8ebd3aa019bb8fcec9d84be69697fc9404bae48dd9732d714b4e87517cec001a18ca8ae527fbcb6b1b68e6d6826c96bc943f7ba1bf6d2df86da9463c7b755e1b20863775b60abd5e19d44872f60fa0c643c6d3236623a8dbdea4fef6d9e3024e9a0ea8f023923103ac284a3810683c6fb756aa19969fa14f8788d8e6c05087109a708e0a13bb587e6f88204e202e4133086e4f6c72f07246bb528c1e61bcd6eb90b14751798f6d38fbad8d41daacbd3e504274f48a53496c9b63e919ac75a7e843deff2f3a22a8de6b9cdbece156cc79ff6d3654564d733d6c7c661b50e99849e0e0549114a02e9b3d503e3f34c84ee207248120fcda455163ba953543436bcfdd3497da7fd6251f32c6caad04b67a99aee6dcdb6d89eff6f0680e26500a9d31b222c3e9d8ac0c115495e05f61f216379272ece51976345ba64817efe33d87aac45698f687dab07c097b6779774cc5e7538fdceb104696b712368bb42d3506d974ab63a9a1401dab22422e10ecb82ebfbc2dd996038a733a71ea211381f03d7efb994aa3f68573f22a9ecc7e357486629dea7961c500bb25aeb5af8059ceb440ec1d301d6d39c48dea833f471fc6383400ff43906a9cfd03d11e17d135302eddc66dd9d8c5bfaff8e0e0bad3369f7b84ffda63469dea9478a84cffc97b33e35788f128177375600bc8decf4846f242668806182b9c83c2b71fd6f3dbe2b3f0b436a038dbcea954ab2481f8ef4832959be528a74f854caa236f49475fac01100f23744a0d52bc188f7633b3195c89ab66ae7e7eea86b840b39b2a464781242b902d854c8798d8f7cbf1f9a42773e44280fcea5b4f9711a5df30fa314b959702a1e9fd637bec05521fc99e227f0f9fc4141ab74fe4656d27db8c009fd4f308120d7d7c1f461f97c9503136a0f2ec408fb20b4d227e0d1414c8abaa7698621aaa4fc5407f455f42ade13d13c5b54fbff0ee3a1a2d350b7c064d10d1ffdb542ae0cc60170ce667703d2012429af27375d06e4fe6360d7982d9de36624f5a77aede6b2e91908021a013e0179caf44e7bcb1fbbafdc12354d68ec595009e75fb2cfedf24699e0580363bfcc09bc86660ad4d28dc606a83e906cf54e463ebc7ce5584d2d05c17531ba9968e2ffe75491ba53eb2d53cbd558aff0a00c7b1a1b1fe1e486e6eb4b2d5325cf628c32c10b3a3b45af2f32afe6fdf340eb983a7ad6ee2d1ccb4a8f88d284e6ea53cb4d7f54f1e8e40a75bf768aaff0689ce88f20dd1c2c72936bd525271c198361212a440bdd7359a01d072af8fa67213702865979d5704fec73bd6505944a8489a7df4f3d219f8e699bcf22b710ccd996de1e37d8b55abb59f1a3da2841e4774d8c668b71ffa2aec8b475e5e4462dc4ad18d891995e0885c63d90e0ce2fbc72c21472a94a99497030692e0fd94c866aeebbf05b9d9f0cbf3da8dd066f5d06c69d54eba77526acaff9f28f125431e9b178c590a4d254b62979a55f4c85eb3b4893cde3eb1fecc984309b382f22ac4e3425a7302a819151499869e2116ce1dcf92cb09ebc88dedef259dbdf05bc864f1b497c559038236353524b152b38d097d0aa2cf0c8b63571d3839be973226a4d155a9539c2ae1eaf50a0f2c3d5159656667a3ec0d2542494d797fdefb2257aab01d2b315bb33b94acb9e139660c111e46495b6690ddfb00000000000000000000000000000000000000000000000000040f181c212628320100",
      "utxos": [
        {
          "covenant_data": "0101d1916e5dc12974e273215ef4501d6e2379944cfb31feaa7af4659094d6098a9e",
          "covenant_type": 260,
          "created_by_coinbase": false,
          "creation_height": 0,
          "txid": "e0e0e0e0e0e0e0e0e0e0e0e0e0e0e0e0e0e0e0e0e0e0e0e0e0e0e0e0e0e0e0e0",
          "value": 100,
          "vout": 0
        }
      ]
    },
    {
      "id": "CV-M-02",
      "op": "utxo_apply_basic",
      "expect_ok": false,
      "expect_err": "TX_ERR_SIG_INVALID",
      "height": 200,
      "block_timestamp": 1000,
      "tx_hex": "0100000000010000000000000001e1e1e1e1e1e1e1e1e1e1e1e1e1e1e1e1e1e1e1e1e1e1e1e1e1e1e1e1e1e1e1e1000000000000000000015a0000000000000000002101e3f1dad7571058b93c2498442e1533dfb1745a1e50a33a5c8cdb7b891b9cc229000000000100000000",
      "utxos": [
        {
          "covenant_data": "010171c1b86dd004c4fd23699b17cb89ab782d13e39a5802dfa83c9c4565d11df4bb",
          "covenant_type": 260,
          "created_by_coinbase": false,
          "creation_height": 0,
          "txid": "e1e1e1e1e1e1e1e1e1e1e1e1e1e1e1e1e1e1e1e1e1e1e1e1e1e1e1e1e1e1e1e1",
          "value": 100,
          "vout": 0
        }
      ],
      "note": "Threshold failure: keyless sentinel occupies the only slot; valid signature count stays below threshold."
    },
    {
      "id": "CV-M-03",
      "op": "covenant_genesis_check",
      "expect_ok": false,
      "expect_err": "TX_ERR_COVENANT_TYPE_INVALID",
      "tx_hex": "01000000000000000000000000000101000000000000000401020100000000000000",
      "note": "CORE_MULTISIG key_count=0 must be rejected."
    },
    {
      "id": "CV-M-04",
      "op": "utxo_apply_basic",
      "expect_ok": false,
      "expect_err": "TX_ERR_PARSE",
      "height": 200,
      "block_timestamp": 1000,
      "tx_hex": "0100000000010000000000000001e2e2e2e2e2e2e2e2e2e2e2e2e2e2e2e2e2e2e2e2e2e2e2e2e2e2e2e2e2e2e2e2000000000000000000015a0000000000000000002101d2a76e5c693acfa643802fd73d5fc6c8b379fc1bf656962e8018df557b3c4f0c000000000201fd200a1b969f1cbb675e17e967792ccea45b5c341c02e8e84d036fab533fadf9950f42f8698ab0a967bfb94461d72d2e2a7cd4fea626c45dbe0c094b39e129c03c4c4b98ea30aa46e5ea5c44343989452a7c9fbc7f8cd35b1adc923d906febb0855b72d609183dcee70489778f801d5dd4120a5abf6f2a049e4caa4203d78471c20e63aacebf5f05c17f7965ee1403798984ccc622d95fbac5d4817f3c51d9a56ca14d117b6a722925fc58a2b3a2366ee3f0432a0f00120d1c632d2d17c0244d226a320c838a345f5c4c8971019dfdfe2616472d3a033924ac0c30b67b3d9496fb6234ea7ed4274d403a0dd87fee4275b7ae77fdd54ff042ad1219553b06c85db5435fcedf4e6fa8aafaf5be683e918da4d791359ca2b540e1be2458d9a13bd5f1ed4f7429bc24d20e819d90618e8ed81548d6d5dd2f65b235c06cf4e09f0718d178c069659141f357bb0798bfcc7fb8aa341e5ba95f2d7cf34e52b3a74464b75efa4ad99c21d441359d7b5a5a275d8cb44d6db6e519d5ef6d91b1e9dcbd8d51507a6c2c97eff9b512846af25ce0a1b0a3472a39c82a71d5be9c1d518a61bb213e1ecba1ed61b36663ec68826dae2df1cc8c518ebc25b4f48cd0dd785a2571586b0102038cc5f3317fd1946e1f0bd8bc0e2d77727ab7f0c837846a9841c2e33fac86dbab8ada752c26628f81ac1877626bc7063462d7f4fe3eb15119f7a76273f98588bfb31efadeaf8f687fdbeec5ef58454476def80ee7a73d2959622b9b1b30b86a0df8f564bc9764468fb4d2d7f6c3c61c3a46d728b333786f4ae83ce5fdabedcd52c02785c25743934a7725892f1f1b6bd5888ece1af39e0dc5dd2a6f0407b6a0bda7a73318b4bc662ba4d362016c4000ac973a0c7417606788cffe0aa476be4283ad8360fc6369595843b6f06c724595ff7940cf3a12db6c4530eb2844a33f90ed9a4d35888b5625d35e9cf773a5445e274dbda0f01ffe3e7f5468fc283293d5bc2a0e9e24055f215e42ef2448d149a17c6bd2869e879997afa80861fcb8f114e8802438d7bf8afe60c8f9ef574b5299d6dcd559330ddaeea92c354df4cc24b877afcb20859a953455ea0003bcf0e8715bb463b753b0e7e9db31b44857f1e1567f770e25b6063ba5e6699f5b117693eeeb8a334f2c55cb8307972d0e4d27e0a2d5515c035e079e82a67f3b8ecf73013d01b722febb1f4f164b281dd60b5efcadbf672507b5893c95fd397e02dc8f7788e561221113b0f970b7a5526e073acb8ca5b4c52d954d231e0d2aab2c1d0450278c632e1180aa3eb766fce5bd94296eaaa3b62305f1224809118d7f8137e0ec5895051db43c28efc45ef020f826723f3da758172133b9804eef55719b760d2520147944ba7752ea16acedf59707b044163e05e37e53fca2f17eec1ffbc9da44f719cd81c0a805ea95a37fcacfd72cc49bf728d3a07a472b708b5f87646c613af37082f48feca7e08e819d86d5dd6406813089b50ec6d6dfbfe8017d4b9f9760f67df8e47930048551f713531dcc35bbfc6d74feb527c0f6e678d3e5adf6dce2d47e2e178d081688562d26abddc42ce3e895d40a96f6e8e05e73952ab8263bd9bfab9b470a5493d9d239454b9373c0662a9d98bae9a2abb01f221c7b27a11bf82241cf6ec46754ea1a1be3b1f8a7b71c48420871af6ffd1948d0230babd9e8c57143f2517cdb91c8a246b88567df8381d0b80bf9fb3e8aaa3d53c086f0c5aa7e4894836c6eac2d97352d8863bfdc83d6abf195bbfd7800d7fba972f3ba5301c6c23b2e7f5b1b6cb4823323f8c528e0ce231c2ca4d54269f495f1e9d6b67e734e944c63f412c832cef37139d46cc13b5721b674c84db892fb628b1cd42e1293e1011cf8b9a11328f264bd5b37be2fafd6f0e74b7a3f1c556b879f77a7ad1254f813ac404eb8fafc211bfbc33acb63df49c8703466b9b589fd3e60bf5b00ae7523db33e0ecaded2887f5d0b0a80da945c5f955341c38f02dec971ce7c59ac9c4baeef84bc923df951263eba216921ff1920525a39139fb10161fd47c0b2a4394cdff597106c5a7b5acf04801e79e65f9740757139919d28d902feb69b808c89bc08fddb7a429e5a9575cfaed76282c696a81a3bc8c10c57081cfed43953884ca635717342baf207e0f05a3f49d79f2c155a3d1dfa6eb8d7ca2637db5ad4ac330a1ed66de6788dbcf4f518a43378a663f0abf8036f2292bc3a2035b36cfdd0d31d78328430ddfbad87fab59b8067fe3fcd70c8b8e3c813702498004109e7712a9b06dcfe6dbf38127e5ac1d7899d64de20b0d7cd689bbcf1fc1a1b7f9711566cfafa908ae8f1d3240088fbbd978f70aaa7e46508356402f58f8b8f1fe891717004528d631be18f58a72e49263572aacc0aa7b86b139a9b0834fa27a049f9627fe0f145476d420c471b249af56f87902dec87113e5807482d711a52c5008e0fe474f7014a6a7f0b4f7f14a04387640e5312774fc382e1c070c6429ba3f69559e8e99f564c63e4c78a8483210160cef91327896e51de7118af793f3561cd4c4043655e0333f123cce3db5f40bdb12bba5cb753f9bfd38a8923a0e20d9d147789f033c77cc2a4e14bb0bf7f1c909ccc88a98fb5a9f1c62eab2ffc2a96973f61bda812459942fb93ea0d02cd543d49b1e5747ea93a9b550b4aff5df6969ec59d40107c209b7df245cdb7689a2d34dfeba8e5b66d5f49e1646314d8e99fd24c697a1f13b7d4bd24404b7686c4984344564a214a9151139401acd746b1d26838ca80392e1e8d599f67320066d3c4cdf9f95cfb8b04dacfa0e4e3f75845e60ecf614eefee5fe18f1cf13cd3f7a859c66a23fcc0be34b25f94a99e7606daaa45055892deb7c41f0c7936a2b888ff85d5e9cb08ddf4359f9cd425797becd2d6b56cd741317f281e8b5c864840737f5a7d33e8ed97d67877717ea6b248264ea0440d41d88809a68dd2869753c9fdf512a5bb2f814a94696225bf4359064f0152d8a2a18af8638bccad85f4b8bf9dc1e3271cc539ee6369a9bfea640d6a5705d0e84cc4d10a140dd8ece802c9ea9f274203d5208000f666ae3847722980f84c4fcc49b498f7b5b0de46d2fb5c3c1a858fd882def4b981ab307fdf2fc655edceb3d10bbd1601bd085c4cf12d98d1f56597011f92385551be6a4fddce320820890a9164b62e577e21e23c9c4aaee0acecaa73700399fcfca932abd4670cbdacac7c690e8e13e6eff094af82f9369aaeddf02ccdf89c3263ba293b6717ab725d27f4f79f5a87ca6cfbe8c49a5463dc99e85cbe56105285cd4bbd6b7260656d9f56d81b8a98e75a87b164736c96bdebba0a573bbee5baa3755afd17e6194607064470b090b167a8910504af52d4892537631253237392347c89a6102a1e725ae741775c3f095797ce71a53414ad642d419f205cda517bbe885370ee71ab3cd28dd54cb893abb06d7a2b47c889b202656a8dbc796ea6e75e8e384ef2258907a3118460da4b474b165b902363b779fcd39b66371c8422269a54d5164358fa8d42b89bd435da2062ee47cdd28a40ef9e9b91f25d0b07cb2da08d2e31b8ed300c5124ca323e007ca5d8b8f444aa983e9a91668dcd8ef717370f004a08aa906ef977e925007b138b7ead7b30ac9a689d7c7d2b8c851e869bdc63d6983fd1412c67fde45dfb24793268d333da6231503b7c23735667bd122b1bb4cecde1325f49e77f9c518141d8e24b6249d5289899e0bf689e313e9b17b614f1751d6aed73bff7d68d98d8bc1874c76c81920f41cb2c9f8d898540aa4410ac15f4bb4d7f95d1bbb6790fad612415c2c8d9c7cc99b5944f688c09c22af1891601fac04ce46d046dad6773a68eae1aa6db4c849351057ba7babb3480cd6c0bd7a32012867ac2eced0764f2b53e3caa9a0f7137f6281d16db45bc48921da132dde4389998279175c02f3405f61b661ae536ff20373407fbba4d418aa58cf039a6e1894ec931724d9d0864622ef265260bbcb1e4554e828a4fe6acc58889189eb57757b39239a019adccf70ce5fbf7f3b2da2fe98bf932228e1bf92f557ad7aafedadce868f171c0ad5bf8e7d6604e39fa7ba3e2560c7d8f3de3f2a20053bbef74531bb48586e485864e233c3292acb9d22e52f44ce59f799ccedd6b8f855adfa5e475f37d943c48d5b7c3a34fa6dff908ff8b8109b54b312b405068a9442229fca2662861d61e8738cfcba67ef5d6fad48e580cf6a6a096765a3187305702299b4b0c552eaa279608b1b1e21151d8ab37285320b9a751a50b77a9033898a7fb0626a8fd13e85ce98aad98561bdf2ecfe3712b42407ee4a63a37c4a4acc0244912ae886c24ff6bf65f69de32b4c3afa7e22df363922ec9898132fe9b403f51b7b59337d93e0499eaa5b5371e20485b4a0c97ade4fe6d0f7329c3e29377f8b37df54e6cf6ba4500433deb22e2b374d127dcb5724320c75da8e92d7d030cb3b756511db5a37ee93bf86fb7df53d7c8fe157397a7ae6e13fed61e5ab7b1ae0f1c98839d7a5e102dfe22a2f1364e447c0cb46be51c883ab06ff462e234917970c5463e2511467ad3b6bc646c1cb73f6b939acb4b125e480434a1d7b481abedbbe03380dae04922260b0dc1c0c2cae34b43d0469f2f514581d429773507439ca13f1784458ce1240e22280b06048bceae87b5643fb0cd4b638de93b1c55889ae600cedf3f25b72e72304476a44d136d6cd5235dca29ecfb93a16b26765ebbfed786d1cc22c8a6a07074e73e3260b9d81fb9e3cb1fe0cdc593b9f8f198fd742bb416d8fc51ac11edfebd33b4b0ab2c684006db2e33b2b732b9865b8acc8590e792f302705bea37475f52153f89d96e0c9f46ff00519f962cc4022ecd1c2f23397dc933df424f817d774c49b68e7452fb0b0b498b67012a1bea199507e777132246d8576d60f6a8580d25ddc156c738bb09ada852d086c9e4f2d6390654b3f6218ea6989e829172317ae033cca5ad58fefb34ff29d72ac400148ee17484e4591f4cbe3debf28cf7e9494c5fb9b1daa7bb51e688770c15cd06226ba34e72b39f09803c76f82feb7a031af4a14e86c44b37042e2b3fe20f3b97b28b88a0316870edbdb4f166f1c2e369998e9d0b98b7b1f7f48850d0619c86d0939e73a1e434dae8054926fb15347e23e74ccdef95fb5cc2c7619b44fc48c3010fd0c9ff4d11e4ec7c122c70f187c87e65b011efb37579eabf1352c72d03777d1fa2abb2d0e622f3e7b646f9296d5ec2c1bc75cbb03f7e5148a3660dd60167422512bb1194463e6b5033ed7df5ab56be61e1e3b5d974e32404d915aafa4aabaf2feb0da99c7c2801e3e4a2f161f61ffbee644ebbfd7c70e1ad832462a4fc9b0f31f4e3f633f9987955a4afaf3ef2fe5a4d5fb1c54273ec1cd075d2a456a95c0ad8366ad8600d0d02a7bb4ce6b26d1bc60fa901f324e5a85f60568e7deb2b074b59e38b0bcedbea2c1653ffeee547c6454136804496424a45edc28377a9124b1d4e5027ef0249bbba24d5af8e376723c44c4965b2f91b42cdef9db8c34d04a7d8a8034b6c634fca5619358de89f1218e1e295e250189e9648f32f1eaf2e95d47195498ba90d2fd6e7489473fbd3b2d6f378d982b95fe2caa1aec94214d833cb7e7f7dd0b52d27f00d260294a2a74b8f73f34679739e5cd9b64ba44df5da4a9e7bcdea09427c0917109f1dcedb780ba6eac0b7f9707c12552982c6d05cde613495559ef8fd36d5ca2e59d1ff98757a053fa503dd9cd0772b3024ade56e05ab85ac8420af3bca1fec9a2bcb6388e9e51b9243655a7d2fbaa9c35206a4f2a85ce0a187b31c4a5d3764c0035ea9c980e18f97e3fd22fc700cc2937cd6901670b8b35e20a46b4fee654f53d8c6fa03f124e3ad6eeb6d60bfbd872b2cf8d584551da54eb0218d7f0cd39497fc6aec44a1d9b3788d7223fe00c5aa5f1ff7453ce4dadd66fc9210b6485ef924c758b18e7a1f9883c88d216c69850f9b6f4fdd49cf0b256fd0de689d696bd446f7be7713970e436920291481f145c3b7f891de4ee3bf0e3c2ae9aae1c025ec4c0d069a4b31e9cbbb6f37cbcf7b1e95382556c1111099382141e8fb3277db4cbbdeeef263ce390d6cdbb966852fd29aeaf8ef0e4a33dbf32b5cff56dd04d0b4f600593874c9e651166febac95babbf0e4394c547ec51cdffb6d9eb388dcb8d630f3b386fa401d20695f0e2f69a7a5112eeadf2ef4d3b173da590f8bf10cc65e39dd70eed098c0bbb547e32c06a6026a11a0c0bdb1ba2be1ad20bc38fdc93cc6f6ddb3589a39977a315820468ebdd9ec731c2c9be8e7acb363999c20dae9a8a74fb0fbb7af384a162e5932e850bbec9fb70735dcb45b74ab100b55b99bf128be8547f65b82aca7ceaf23553b2adbe237abfcea81ca48897438a5fafd5b4e09ea5428595c0c05dacc1934e1af336c28a8083fad24c1f29e05d1f499e287f8b63aa04210ba1033964bb2e9cb9ffce61a5cabd732a226bb44111c48d9a7935c4d1417945c0cdf2f665aa11c617681075dfc0367cdb4d974852cd3133a1aa29570c1321ba56e3fce6fe71bbb27ef0961c48774dac17e6f6cb88d0d03bdfacf1e2834255bdb9a7ebd2f31bb92ca9bd7b5a34b46a8a8397f10af6c6df25d2cfb6f0af758e21cf35b49b330164da91e9027233b999161d66ac605d1107837f2005e28708c7028aeb14e739e96e048bdc71e753e79958c99f10c878e62916ce9c13dd366a4ae3f130049c784aada6c7b1ac0be0cfa786af8f0799ad4220fd77f505ee0b333294eaf1173147d72403a415638f4a30bed8c084ce8d9d2ee8e132afed9a953c05faf5bb0b5ce9a45fe9444cc28528f5bbd6af96068c312433798ca89fb9125878cdc410d3561448909329438c32eaa8bba543d16044a0ffc34b13a136073fec761691c6610d3212654fc34b800942b903e6b69031d923243f2149ef6ac840755c700d701e0826b992334ea81fe0d1d4f561181e44e2c39093a8cdb8468d3d72680a1b973c866e0d40b8c5be5026b6b92bdb7f4f2ccc9a21c63503e33e2fa812f004e7ee510854f48ba910c2df22896c27526e4e17caca3577a28f2cde6fea78fe9e40e223e4b74349dfca5f8d719842f23c309d46dc557cb8141f926fb1da911f0740f9a7a233ee80474230175fa904b6dab872a2f26d6e4337a735f3ddce08a10fd6d91861412d9853040742ba5c5c4bb9c4b424d487b97c75992d9ffd269ee5a4132ee29bcd5b9be496dc10f1e30948b3fd48a2bfeae6776cad072811cd9ee87faacca36735580f621cc25cdec5ecc2891ee7bfbd2a23a3a8974c0e04e1633a6ddb2aaa483e9c614ca6486f5b9d3cca51401813368856b60cffbe1670b831c6dfd0b2ed9a1018fff512c6c4c16b9509a8418553ee9396b8b771d627bd0ca5bdf3adb07b0f8472663e8d72ed888edb4fe821a6d097a5164472a9b63d05c3155c936a1a6eff84138e80719cbc55f1ff235e66b4eba69effeb96819107611fdbce93a2a8cc45960522d33d5251c912c0c3e02d2fe2b5e438ccfea140ebe74bc0220d58a6016ab4fa20dcea873585881ca5ac2bcb2df734040da2ac2d31123090b585e8d385916bb3a6c20276a33cf086ea217849c25348d0deddb850b4d0b2355f93d7c6fb3a123542c36603e35eac28e47eefa83054d541fea69de9a2741f77977777462ed85cd6637b0212a8947a756321df4c953e6aa11225251956566d63ea990efad03e9f48bbb7e2e0dcd32e0690339072320d8109de17e0d866be7064a6a8682c114c084d47b84f8136181f821ee1aa832b25bab5c3f30ca424a2020628ba841940bc7a7e8be6c59603f994481da86a9965a743fb0df15929a74b3f966c12c8921c68def751097aca508f7f7f49bcfed18da174207add8864f4c4db68e344de68587c581f7c6795192e10bdeb4d3e072ace83f466270f0ee302526eaf0e14505b6091fb2f8f59e5ef00fb7b153838e694c402e988867fd17baf6087a00e88d124a55f6204da852c194a6454788a4b0ee049128945661f8bb9dbcf7cf149ffa619b2613a30fc2c62c16d165a8b8164f1db5da190a24ecd6784ecde8271f88da601fb7f68c103140e6508fe7efea5e45ead77fce82cc5b01e5c3edf13df2f3f0f783ba635592765fe2cb7ac788fcd9d495100ce34f4d6b9683087075711fe3f8dee955f2ecc7de4a526f2839ee6117bb3f9807df8ffe173663efbd2236463c9d7d1b2ccab42b95abcd6389cd1d9b66e0054c5f696328e09ee9baafc3b000f1eca68435c0d0a79a5bd4c4ae0f6cec63566e7f0ce1d78f2574215f5c66c671969de394f8c14164d9e82a57a04093f41d7bed056ba583ac6dbcf5896570afd331507e13808c0b51300ee7179dfbdb8d589de82312790f74ea428e257a0673cad3d1cb7fee248b890b59bde31655afcf7a42919ea7e6a6324da29be796f59d7ea0d7ad9bfd4de46eaab0592bfeefb13289eaaaf88202c863a39a01b791fc8655e4e681cd9f2e5a7f050304022bcc588cb101d20f5efa3e22b5cdc0a3ec683b0982e5480ed8671d8804f4499c04c258b6a1eb20bb9d677156d3325638c2326ed05a5f3a51a6fe33e145e3f0ae539a8a56da9980c3342b0fffc43a3b154e234b623211a0c4205dbe11860f28a9e34bf968336b791b08f4edb3cae9919919c56aac903d49694dd7c6006f28f62fffad24de3f0ca2b0f24f8b4bce74192d629b9b2b99b467053a541ecf37417de0cd3e3130d7879ec5edd17a7914775813e95b49cedb218a4aac93bf85923093a9608997fdb000729d35d2f20e8f46ca0800b406f43ccecfa57028a9064826f210899fa55650bc736af0976be445a5ab1c89f318f07dbfbb6e0e4afd79d3230e199903775b4dec112178c4a83a56e7ed57031d162d83b1d84cffcf64c954746dc30e2d384820feecdd4b7e2c357d8ad06b8452532f22208c5a8e43b7168fe4e6b53add28ad68517a233da6923585d3e6ca62bddd39e086ba0b349a58f66d10f626679311e1a6091c92fba5c6d373a43d676cc0454a9836edff8d13bf69abafecb2f5d114ad1fb0b41b6a507e544c45623124b5cebc3164b8aaf13dd16d727646ac4d79e484c117eb56a95cf2a90d24b50c0fec2f63bf4dd76dc61df3406170df87a2995e2bb51b4cc5ec9f4f2a12091f557ff6ecbb95bd90324b35b51dc6a3802127de6e496bcd577e43086c5240474c3ada28e300cc546da7b1157019bd87545480095268aa928fee01dedf2d1aa765f2556646bb19dbc85be276bae622bd44d57ca1240da2f665676e881b09c9888bea02ac3b8eabd5d714dcbdf5e59981e1a2aded1a5ae9e6de5c96e392b638fd55d2f7ee526babe599910f1ea6d9148985e19f7839c9f722a97ccdb06ccab772f4408d7e62cffe0ba5323e3390ddd584dfa4661cc71fbb763cc573a6d3ac7b15723ae24d41ae041e171b5c083ed0890bad6c8eafc0e4485b7d88d36016d1ffac3b7609e8ede66a0fc181b84bc26ea498da3dc8a631c9784afda2808511c389c8d7cfbea4d8c515e3d9f494088466f0056a56b085e8709f59d4e9b791be0a27a1ef91e5864d86437dc5c3ec89c3c5888bbf9e1e233ab9c63f59c36bd3f62bfca54eca01ee2459cd6966f5a10c3c3a4fb0c796c790125745c5104a3e0065865b36f1e1dcd208526842085b04b655e5a2d0d7203d58ba8b0c30e88ec7682da5b6388a9adad76356f5d3d2b4eda544e83f15e425ffe985d4baa9302620b6e7416fc5da12f1e3fea9ad7246fe3c705c6a28dda5a4c386c72d1c3f8f3722a5ceb22c072292e8e1f139c1518b0185265e21916dceb48882f33c6f12dce2d13ed7f8c742bce9b26bf731938e2789ba18b4be80608d6c5393e055c135ff97d2df9e680e4463033efcc4dc52ac605079f8b5e34ff56eda9c0069dc4f947d3c0372050711b93f9f840feda3b57d6e4cec55bd2399d6c5dfc553d152c0fb810a0bf287197c9b7a086cd9f4e7b780041dd1abbc87998f29657f5ba239bea8fc19c878b64f9cc9f18503ed9d30f53508110d5545850e639658f7cca2291d0003e0904784f151f5ddcf11e2e8e9f7e55c6e091bd137ba95901303a6081a1be112a4c585a92a6f0186496a7b5b8bcc41a4d6a94b0f11c8c9d8f9cabb8e80a131a333b74758b949fa6b50421434958849ea0000000000000000000000000000000000000070f171d202531390100000000",
      "utxos": [
        {
          "covenant_data": "0101f20d78e41843319d48583a9b388b4382eaf7fd775bb46b2067a0f645405c69f2",
          "covenant_type": 260,
          "created_by_coinbase": false,
          "creation_height": 0,
          "txid": "e2e2e2e2e2e2e2e2e2e2e2e2e2e2e2e2e2e2e2e2e2e2e2e2e2e2e2e2e2e2e2e2",
          "value": 100,
          "vout": 0
        }
      ],
      "note": "Multisig witness_count mismatch: extra unassigned witness item remains after cursor consumption."
    },
    {
      "id": "CV-M-05",
      "op": "covenant_genesis_check",
      "expect_ok": false,
      "expect_err": "TX_ERR_COVENANT_TYPE_INVALID",
      "tx_hex": "0100000000000000000000000000010100000000000000040142010225105e0c66e048402428dff92740049e6615ee45598dfee44fb838c6955ff54c25105e0c66e048402428dff92740049e6615ee45598dfee44fb838c6955ff54c000000000000",
      "note": "CORE_MULTISIG keys must be strictly lexicographically sorted and unique."
    }
  ]
}
