{
  "gate": "CV-MULTISIG",
  "vectors": [
    {
      "block_timestamp": 1000,
      "expect_fee": 10,
      "expect_ok": true,
      "expect_utxo_count": 1,
      "height": 200,
      "id": "CV-M-01",
      "op": "utxo_apply_basic",
      "tx_hex": "0100000000010000000000000001e0e0e0e0e0e0e0e0e0e0e0e0e0e0e0e0e0e0e0e0e0e0e0e0e0e0e0e0e0e0e0e0000000000000000000015a000000000000000000210106cc93395ab2883457717849c521260efaa758bf16aef17652cb1e8f53ce948e000000000101fd200a472e58e3de54a48c4c6aef878101024474e6f63351e13c7b0607d65ab8cde5fed04b53c664f7451cf9a32f245818b0d5c3df23425d9f665f2ec94d335951617673131945a9e5d5fe5b073c21074b6355e40ed9ed8237f8f17f9918928583b9caeae8c7cfe8a35ec3d8223b5f29d4dca3301dbc2d04bc2ca1e581961f0b742a82eeb000341b3f21d7b19582b3788dd85496e2c22a80f11c13d02fae42360153e93d6557eece1e283b07d08e278410064336a05a2f4b78470a08f86430289cfffd607e2d107053db3dc57ed5af208e5131d84cd48bc4f17bcaa4f9a95a9c7de93b57e1d000707caa0fc93957cf1bc0e4f536260136b9daa719f33604f1af92f99e88203a7dfb4fdccc97a158593f528ba390af6b4f7478101ad105caad85faf21e98c9f34e137df7eb8c73b3dab14f87f8f7f96e9917955302d325ee664c5295859b73c3d5dd061e04e62712ab4cdf42f0a7cf16330210cfd8c71af180d6a45989845b76980b85c55e7adea876ee474d21f0ec29e842ad5a0368adf88dc31791f68da13a0902870c4af26296b3ac0d397388b6f32bf2ae80e9a4298b1da0157ebabe80b5e743fd6132ed8cddfc1f034cdedd66950646c4b9bfc2c8331952fd2ed9a1967e2f9d77c02a06cb2c2d4a0087e76e5603c610a1e1310875f8df08d716aa825a4698e57b44162c92af2225eb23f1f3850565d49439ac1884669e92458e0572dd0ad19c6255d5135af7199a4779a1bce0b2cb8e566a2ce4c9e89b5f0c87314a4c78e02f620c4816b068231b1552c32830915e28626976bcd8d36e40b5aca74b53a4d205c949194aedf821cded9aead0a8ca4df3859bdb1301ef505f9918de0073a3f1aa95d33234641816603c15efe9ca9c3d8c848d721bc92f8b5de1135f2b8e58a91a1f834ff55c095715c04597959b92a7be1f1d3a92e1218bc359d173fe4bf73b124ea68d7ec090d12895a43c93484365d9af5c06bed13c46af96bae38729c46cd302e1baab07d5ea7b765dd6d74e663d4564ab69ab465d6b8906e7d55be58644c425c2a9a4ee50518738fd98723407ec3d05115c93b4c5fc457f0781014f253e723008e7a29204c6053694e42e5d7c8e33e59b149c9e3167ed13456fa9657a6370570b9a197527c7b4cff552f8c7e2b5ca037cc7ebf8a271837819d7518f6dfcd787839d74dc5728c6d73a845b72ed4eda9e70cb23d3b2a2058219081c7ca4c077a49ac9607d921b550720457c49ec17a78b4fe0a8ab3ac99f57ae6b3cdd889411251d2858d3a56532e6458c0ff1c5d1f72d266e93d64257c27093a90ad5f969c82784c7e1f6fe3c1d72f26495b3f38f6ae71fdeda2d4b3a2b752a98f8f960d8c172e06eff283e0b26d428eb6584a2e7ae82ce824cd188f91655d3295404a2cf148a622c13a60009177d4ced4f8f49b3ad52861f6fe578a843957a3054f5e29f6517628c4a729c79e1380163b5a162c20d69b86710a3ddc61466f0fff51e29f3df6b5ee6b88e4e8b6e66db212e8be48ff2e68e9d47bd5ecf9ead2b940699913c255c3b86fccc0d9bfe9ea592e5258a0a7e4b4e723e7acd1802ee83a6a41a8ac31af5ed9b89d31b3b822189d8d1d76af551dd995aed605a00ec9b265ff9ab374c5ead45705750687e69cb36b4cb429fe7c6bb03b80ec7822c7afb6848df4850bc65f19730ed1f2c6ea6f66b46121b4218c1d820c5e24b08da659c1893ba9d3e3fd39fb18691d6c99f2720c5ec4266c7110ae8973a36a1cc8a1d495c91c24fa44cbf93d9932dd20c20b780efae9876a43a049b8f69d917d0455030699df7fe8d776382be3c55b4fed37bf99f316ea3a6ff78f5bac7e5b62158198bad31d6e70ead0d924453826994b7cfa92dd484b31f6c7020203bdbe7e3e6500de46a9f1418ee97c05e22f192ea261f9e2e86b699c4bcec5006169201b305ce3d06232a47688cae7ff0319fac4d06dc95d9c609d2ab12c5bab9cefa8279db4e45475fbb0bdc20d57549c9c255a2799f8c4d2f7420ca8622af704418d7ffbd58e57324b1d053291b040880659f40937b07fcae18f9726abb0e14e443139ed252a1b86cd75dfdcbccabae1a4c6c8e1c0085544e53350d3ceaeb850dfa98911d00f8ff8e6c1b0c159edd0536292244902b3653ab224d7371e2a879b8564a44512826659b0c64173d3233171b7e16e214adb1dff4ef6fe6e796fc2ef64f6e44e0fea48daaa74a033122b7d3f39586ecd7e995d250c63840ddd5017e6c212651832fc59b4a6d1a07b92c7dcf23106f31a1710af24ed45ccb088a46c636ceb373f1c2074aba3957356d45870f78f48099386d7bc9177c9e5b16b3ae64e3537e20309fd876d1187e2eb0146d07ca423bbb4419207a3d10ce325df3ba4e0f9a7c828e2422b6d8e52b609541e88e6b20d753564a5556f1c81d6441b0825af4048869cf78402e3a24c6f62410b132a52b9af34333552928f1551d4ed121ee4a097e2efc734fe7602ac747790e0b9afced285d336c98be746a50494657ba35928c834c065a48cdd9941f83a8aaf3eb6a69c8cff790a82189e124487574cf57ab39945c484c6d8c13e146c17b7543d6616a5422189b037e610f17dfd9d20eecf639ff5a8c80521b993deaeeef7de8a9f51bfa606ba4493dd1be36b94f5346192de7b82441e09fe4d4e332a4c6d61c665328bb671a19adbddef1835b74a5d2f6567fa11e0ae74460e2eb2d1e1966c9d0289d4c029d1227b2f88d549e8c665aadaac352ee017eeeb9481707c17b15fd2e87f2a05f19ce4561890080e530f998a6598ff1864dc5dbb98a38e45a1314a671178abdd07f6446995e9ffbf51b85a6b7269548130d559d0ca5cee0e8a16826f65c12c3e29125402efbb3a5fa00e05f5488d0c8641bd93af7d527534576d07000ceaa19d2c4c83750fea04e1633fe2642634230ef931c0fc55ffdd7788267d9c035e6afd008aab12f3b4c094b047fb6e154cd52497c24412f4512bafdbdb50e9877ab95fdef4da86d06d7234804d37d3d81fba7699204829b6cbd4087ae647a992d5bf1a03710bd91b64196eca48afdd6e3e477059f0c2fdb6f636782c621f22aa027f9c7e6fcfab3513a7ac60ea5367bd7046c91f2c54cebae63cbb5590f7cb2ebd59ff46d0b9f12effe5e756324aba541c2061b17b9f02985985daf49b53cd253572acc7b1d668b286bfc7c1a40a32b130986b3e880f4a7ac69c892c5d222d1157655a26b9ac13c8bde3c6eb3883b19e00866b6b5126a56442812a784e8ef9532dce6a3148bc4d5f50f7232e61d13cf1e243acf865662435f3dce9c82f77b1088ccae45db75cc0504b7b95b5eff475311127ba267b81d7adba9941fe8a311e07efe309de235a3a253eee8199240c4d2cb5f9f997846aca3ce6a9425a0bb7331d89f40a753b0840e3f469b2af0ac504cf383fcf7c8c2cc18d09b0627a2eb896db97e7972784ae0e8efb1f586f9bc4ba0f1d8abfedcea518bcf0d4194da057f9a3696714c9d087721af4b785a12c3f85b4cd3e3ed7b37be5ff3b0a51c6c65b929ae482c41ab5705bf33bb9e4b19e0b8b039a0048ea022e54b571013c41e4e0b4c73654c46b8343a1c742763d6589a58e7576e9e7023809e13af7b52925df0ec705e8cf24632e0ce25980e2c7a9e016a7eef96cd2c2279147db5fd1312edbb4b66a4ab2f2d9fef9b3a1803fe19f30aca34f7d0bc5f05112a1e415096d70934d7aab9dfa264cf6a69812738fe990183777e4fffe4145338094363f6610682d0d042bff8aa2b92df84a21b6c381ce978abd4ebed99874e8e9ba640e3b4968a50e125573baa89a7cfe0827dcf5cc164d55c8357ce227f2ccf603b8fc6ad925a80738af1c978ae5f8fffed1dbcccadcbc5aff60b7b8f421f29bd89aa875ecf78ba1d383d39f23f851049ec84ea8a9fe0f9a329280248cab696ae47e12f2f4a48c33e7ce587e32a46fb67f97a67eb2f515493b6bcb04a7df82120101ebdd42094d775758d65c940ed9e4d2232fa063d9a1dccaefd7d5aff6a9f793f59311e34aa7f78282bfdc66c41a32d8f3c5ad40d6efb92180c8e29fe711c98a12c7242a7ec2750b1609bd44f305f2997ebf0560bd6f258f7467283015f6c10b0a39f8dfb9e992d2d897630a4105df44ee9cb6af107a9517db74bef1290f6548669ab626a0276f48d15982049d1db17e692c83794cd8659f0972ed7a6002d7f894d9559de90bc0dcf76f828147dbfa94557ba36ceec92c0dee11ec46bf0c06fda28bdb5593794da34af599aed35921b8152e4cc77c78fe96102619ce2c026b05dead42a113cd448514a2462c9058f9274fb4b5fc4ef95b397eb3da9db739384847abfda65ed57d8f24d60232069337845c1bc6f0189d0386f1ccffedbd814a8c6d489104a57edadbce09057bc422ff7af9f36c58f45460852996f88febe3cbeee12c1af8a66cdc27b6ca31396fe699c90e74669db0ea1099319c426dfd6502c93a52ec75f44af3974f659b94cac0e379c7c98f0f1882ffdb4ba5738778427dd47347961366dd763722bccb37c974d926054fc236b15df6564b3e46967c64bff1d77409e0b17c7fbe0daaacaa36f1129bb6ecab6be2f273d2ce3571b0fad36b414bad15b48c77ebe399d0934c31a555d1fede180b5159db6447c9900cec466c67564c4e6345f321d3b7b163904fdd77c5bd8383077a787532009c386411c0f0229f19aae28fcaa12088d9fb8c259459ee3fee0b9d3fa975d6beb22cedfe3cfdfcd550f93c259e6215fac57b691b05be41fbd18163ab054d636ee1847643fca9777feafd4ff8a9807798d775ab5801d8c7f783c57137c2b1083add25bd9f16a00bfd477d6797c3f7de1d1a3ed5e6f90b0d0d1af2230b8a59fd2dbd8bf8d00001a4b3ca5f02823d8f7ff4ee42c9448112769fe4377722afab5c3a75e2aa461086b44f5d9637bbda1600177330a1ae372a5b6f2748cd63d0a62e19ac61c538a3b1ea36996786aa0a358a2c57ab5c191a95e329f3592057f19b0a52504f83c32be3791809ee353f223d6d5e358c68a9e84ee3f28cb956ca0434d67dfb4fee287fc96ece9a990e09374ace04edbd6c041c614305ccdc4a0e9c09f2e8e49dff9b54759f1718909076743edbe720f769a0eebfba9ad0740d3d953573d28928da994fe9e815e9fc1c724eca677c83e78e84a48414a1391a7989aa322bb0cbe58716b7837f861d74cfc8b15eaca8aa48113d0e9ee74f8d91415be77b53f8238b2d927e342c20ac8a2a6bee012f9f52548e133629a56432f456d56381017564e632943c335c76e4f6bd581bca985f150d1c2a14f6ad0dcddcd918a1d0a9efe533eae3dbe57a5a006e3396e8f3df875c35035cb742416fe7108c9eb5319aa67638bfd79e11780b74eec8b143b701cbab218d5bfef70b96a5250ea08c62f7de2bdf8d865432f765986fad0d790f81bc64f21d3d8d617bda36061713e37f56c8dab5ba41eb46a209d1ff86f5436fb46207d657da953711ab42e1279e6758d22455c50b395185aafde00fd6e0a330a8fa34deee9dbac0dd8f086833dcdb4ca3865e28ee42bcc8bb1a5cd97d171a8346b4447394c8019b79d6268d659f0fcccc858dab1838bee38120b591d82b8310615d59c4ccddd00b462e327a796b75f839f7a291e67d2e847b0ab7c52f2bdd29fa29cd1fa936ca0a63695407c214827fdafa5a004838cdc3904c245c46a42a9e95e6b5a376cb7211fe23c6b636bdf83585f95477677d2142d4c1bd52f3e15e31e6a3ab9a89483a18825384e4ff79e4e1a236176666558c0be11afbb2cb454b6873c6fcd0e65b41ac88d9d585c7652b403c8cbcb875f9fb8af37fdb40879f3ad4f3bed79f692dfd26c148cab0bb5a505f2a39da43c539684ff565ac16aaab1474d03d185e41c091aeb78805af1ca6c6eb0a7ccf15688e7614239629b0ba2bcff3db3535c7d4ccbc21e984b68c95e359b8c7d7b38f9486624f8922ce6fb7abd4ae6926f1828bb4d667eb9c8e9f1cac77b0af1300f5cbcb0f10df3e78f6d5f5ec49a3b233d0eb0e614b589c2a5d9bc6eeaa70141df65ddda2209ece3237565bf32c4e962ec29c29ef019e144fe4b2d056d11f0e4099055daef81dcf23780c6eed2001b80e887bde7a1da8c71402d29e3e2cfe243fb9e4da74dbb0a85051d1f28177d2c80d077ce45641bf886a6c3cbd98fccb87eff3649d9546d9bee76ff63f90b38867437bb2c78677bd22df0bcfa8c046e8fdf0ee7bb1e86598e93085d5a704be5d7eb45d0598aa8ac65c20e07fdcd8d2bbdd396cf7e15bbb2b736d3f1d2a28b6057db33754f5327d5450d21b613ea3e79eabf734456910e06ee11c7022c951f4bfcfe4d9fb5add7c6ed0085082213c5ba4600c21847c6bc8172733a6c53c05a3ed0f79691f9c2416249106f1b649cd96ab2bf7db4e2c5e1dc21d2d1ef4f9ed0e0c3da0441512cd578a63b999c548e9e9424176ccbc62bdfe0abcb5135d573485947384fb5b2901629a1fc09b34cf7f241224f7121c14651631dd242897abfd5a7162da1dafc4cc9ee23f6c255f05369e065064f90335faae952511338f85302cfec83fc04676668272b116a45ae6bb7a4bb8cd27fbeac2c2ce438fe26f60a4c6e3068b82404fa9826903e49a7ad36c1901f7128b7bb3dd957923e5d4f41aeb8e59f9e1657bcf79b1420c78889c042004bf883939790fbedd3d228843f247d9d026706ac408c17f18787b97f8ef6b9841d8b2f81aa12be341422c8b11299eb486857355ea255ef02cfb5211466902838494db305b25c6217670ae74f5874d8c38016a704c0a6e0165cd1aa700f09a105e376bff6162a055ad629b48200133950962bcf81e324e276d7f700652a87092ddb5f9683f581ed85df1699a883f575441409dc6ece3c224c0031b0ba3682b32008131fa860e1155650dc42220fe66e4624d301533a8c912f744165eb57548580bad86f7e8b47899d60b1278ca782541120b327ad8a32b74974387835dbf32e0ae33baaf50d70436058769626478c6c8dd879b6b27572f628959bda1599917d04c8e7c49da85a097b6da31e6402b568b18ccce914372743bf4c97198cd9a4bb741e13c7526a4f4e80b738300e85478c8f056e418816a9130ee7db7ebf3313895b8f4d5a4827d697d08c08cb0d32b680b4f69a870b5607c674169dbf7c5349a7890f97eaa67b0a45a606f6649333c44b3a4101389596cd2f7885b7e1c98d3401eec9f76f8c1f7724bb33fcea5f29dfef7c87a991637cd038bc53d8e046a7cbc75b26b61418230473bdcdeaac01486e8f3dd108264ac22781ba5dcbf40ebbbb62694867eb92bfbfe5ee9d07db6fb614d60c5da74a03316144b1ab8dd7eeb75b837fe4a96a3a5e3cf8e766aab4d990bf30827ffaa274fcb0300e5d6c3eb3b3c019c901322b9d04c3c45b1379d1da926ba4315b764787fc3beaaf28f63e066223d28641f2839e3b67c8b19d40e336e3e556bbd8e419508d43944643c95263734b4cd39fc8b99c8d82f36cb3c9157a9c24550c48e8216f2b4b211ec61cdad11b249dda7922ef7e24a1d7d07c1be980ed667f9dfe8380f0d3565e101fe76d0cfe41a4a9d1b4a680e8b74f44bff7d6341558ba21eb4b08072ec9507278e5f0b9b47f1c3e2b7db7cecdcd5bb04ad3bddcc1ca3cf33dbbf03133b6dfc75ea2622e1b86f812c1d631b6261424c8ad39317524c3d25fcf7186f033637cbb9d64a7527094ee250d1fc0727b216d63d353e77c8ed9a24abbce9749c126a93dbfc9294152e61259298835997b598e57277dde1f90d4c8076ea049065906e216d61ed702bf4f805f5175fec7cc32325939667e495d14f4562ff4ec480bb4c8d17c55cb7cddec6c97e93e195cce554b0bd071ba7bba354767f707e2f525421b9012ffa964eb6724ff4b0b987034394b67702c5ecede370dfe68529b0051553141865d2a9de742b51c1d3125f4b029a5f4aa2d0a90d88773688fb70f7a25afe9904dfb43b90c2f27fd4b006a26053540bcaaec13d870ab9bdee27d601f3bbc05360b1d597e4a9198a85d7ea705caedeee7f3cf66396bc2bebd6b9f33866a006d9de8a99b2a2c2cd6b06f03d91564c2bdb83bf5dddd727aa0a56c392708637db602f9a30743c802f1a5a5c27b97359dcb7d9e802fba45e57d2a9d3e4464de983558b4302daeb59e872bac4c6a20204255b22ebc4df1493b1d7117f30f4a4596f0da007f4de0c79147786913ee074bdded363af43c446b423ee51662d91f02e76bfcf8260c7f7a666733415e645c63b850030c1e7bb0fbebd4163763d325b943a99277d306daebc7da24361a910532e1425c1220dc53cc9a0c020fe8f3278257815f6b2f045c21fa4d408ee0443d2fea23abf51af12c916772d772403cc0a511111ad98e815f061802da0e55acb2a5ec75d3734148f5ac838a683e2163ff524cae94fb153e7d88ce043f29cdbcb5fa32118dca27603c0e84d89a13efb641eb12f8dbf4a53047fb00fdfcbb0f184ffa7ed45c859b5d9591164a7253183e51284c3d74a6e49fbe4e073ce744ab4be0f43a2773d0770fdabe341bc67b93a777b1a50177c97fb7cbe171232063c932584041b83a74f6ce9525232a02f346979f86732e9dcf3c7113968a90a490d52dff39375731711f76dcb6836b8a4c84729c6cf9f0732b85cdcd4d4f2233fbb005404912b6d590dfe6a236246c949360151801e67face26c48c037b4c83c3109ea53757a83330fca97a66cc602974021371e20d7bea52ed04eba4d409d5886a483107e7907153dcad731b67ae36aeefc9f75753f330c6531ce909d21e1eb5d870dfc03e5f632c48fb078b92fcad0f8ae30e3f7d77ee3807f695fb057f79966c62e0777a921dc018355f902af393114bd1fd676a614885bcc1df8a2cebc3131a862e3c2cc06d52f1b43133d363446d4dfb67989fade2127a2c87daa6cb3eee1715121939e1545c39adab3a81047771b993a8f3c30214a5f939fc3790b024c3156686916998dd78e1494a24db3cdd1f529fe99a7b489390f37524b18c21a3c9d05f1327b02610558c79837a9537533834dd829776bd15964d9274476ef3615c6383876b42de93a29cc0b4c07ad98c5fcf3f079152f28223f7887173827d35af49f13e6c6c96ca875d888ee3a22df7fb9f7003dbe52cced9fcd63753f49d7adc2330ebfb8311b52fee1e670d6c2e6dc80644bef8b8a3ae0d732e63d9d5af30d31f96fa1892830077f0365d28737543a99b7343d95cf60eb9387415d28d9a5fb771ec0fba348845a87d2f365846f9eee88957e8525e2178202b6638b0057cc3611ee6283f9872ff441d2ab5db21cf02961d77ac5e40acc9a9dfeaf1f87d104d00e841a2639ad1d786309143962268655ef3f2ad0f14a7748600590cdad0263a2094037328423a2790691df4beb80f518103296160fa1983305a8ef2e7740b02ea970ed9b4873c2a6a344ace25f34ff3a9d4a0c88067eb8c1812209bf9361f6676251ed31f1646ad13e6a1d3025aae003a3bba3562d752fa7f24108ecd084167f9ae5629af07c6fcd685bc6907ba09906d8d22a73ba7418e8df8ae47c8ae848228ff50fc0dfa0a96fc65531206549b4fda046e17c8f44a0a76b0240788409308a75a08087b85b93204111678c28caaa45cf5e2cd6e1d1f57567033d927a0253a329b153917aab85330d4fdc90f86fe0c4672753f3cef73503422df9e6fe5fd9bb7ac36af11fa90df871d0b3a095e0d85713d9f3b28cc9b9491bd5c4294888be87d4adba68e2c0858870a63178ddc1edcfd2cc9d52e688202a13b6c951f1de6c23468673af584817b57f2b43bd23602c5fa00a2471930645fbba0b49db54499f8c5ea01a24000406abe72aa14a24de2f64058800a5366c6b44ec46b7787654a131888ea692a7087affa4f4bfcafd305fd9dc8b118438a9ff29aaaa1a1f42b2e7affa7ddcc854d34f9b133a54d4ebdff173df188183e502a7950821f20bda3d0d2dde3479128cbec8cde2d2f29fd37770a76b46a7bc7d73c5af3e32cad81a48cb1c86aef329cb9fa80f0a81eaa873ae0c831a892b10529da070b7fcca39b5a1ebd30b84fd323718a9188fd3cad37d0c01171f3f518081f341527f9a9fbad0357cb4cad8dce5071d9aa0c8e5fb1d405a7acad4ee4590a0de1516214047619aadfb3265a1d5de000000000000000000000000000000000000000000080f161d2428313600",
      "utxos": [
        {
          "covenant_data": "010106cc93395ab2883457717849c521260efaa758bf16aef17652cb1e8f53ce948e",
          "covenant_type": 260,
          "created_by_coinbase": false,
          "creation_height": 0,
          "txid": "e0e0e0e0e0e0e0e0e0e0e0e0e0e0e0e0e0e0e0e0e0e0e0e0e0e0e0e0e0e0e0e0",
          "value": 100,
          "vout": 0
        }
      ]
    }
  ]
}
