{
  "gate": "CV-UTXO-BASIC",
  "vectors": [
    {
      "id": "CV-U-01",
      "op": "utxo_apply_basic",
      "expect_ok": false,
      "expect_err": "TX_ERR_MISSING_UTXO",
      "height": 100,
      "block_timestamp": 1000,
      "tx_hex": "0100000000010000000000000001aaaaaaaaaaaaaaaaaaaaaaaaaaaaaaaaaaaaaaaaaaaaaaaaaaaaaaaaaaaaaaaa000000000000000000010100000000000000000021010000000000000000000000000000000000000000000000000000000000000000000000000000",
      "utxos": []
    },
    {
      "id": "CV-U-02",
      "op": "utxo_apply_basic",
      "expect_ok": false,
      "expect_err": "TX_ERR_MISSING_UTXO",
      "height": 100,
      "block_timestamp": 1000,
      "tx_hex": "0100000000010000000000000001abababababababababababababababababababababababababababababababab000000000000000000010100000000000000000021010000000000000000000000000000000000000000000000000000000000000000000000000000",
      "utxos": [
        {
          "txid": "abababababababababababababababababababababababababababababababab",
          "vout": 0,
          "value": 1,
          "covenant_type": 2,
          "covenant_data": "01",
          "creation_height": 0,
          "created_by_coinbase": false
        }
      ]
    },
    {
      "id": "CV-U-03",
      "op": "utxo_apply_basic",
      "expect_ok": false,
      "expect_err": "TX_ERR_TIMELOCK_NOT_MET",
      "height": 100,
      "block_timestamp": 1000,
      "tx_hex": "0100000000010000000000000001acacacacacacacacacacacacacacacacacacacacacacacacacacacacacacacac000000000000000000010100000000000000000021010000000000000000000000000000000000000000000000000000000000000000000000000000",
      "utxos": [
        {
          "txid": "acacacacacacacacacacacacacacacacacacacacacacacacacacacacacacacac",
          "vout": 0,
          "value": 1,
          "covenant_type": 1,
          "covenant_data": "00c800000000000000",
          "creation_height": 0,
          "created_by_coinbase": false
        }
      ]
    },
    {
      "id": "CV-U-04",
      "op": "utxo_apply_basic",
      "expect_ok": false,
      "expect_err": "TX_ERR_TIMELOCK_NOT_MET",
      "height": 200,
      "block_timestamp": 1000,
      "tx_hex": "0100000000010000000000000001adadadadadadadadadadadadadadadadadadadadadadadadadadadadadadadad000000000000000000010100000000000000000021010000000000000000000000000000000000000000000000000000000000000000000000000000",
      "utxos": [
        {
          "txid": "adadadadadadadadadadadadadadadadadadadadadadadadadadadadadadadad",
          "vout": 0,
          "value": 1,
          "covenant_type": 1,
          "covenant_data": "01dc05000000000000",
          "creation_height": 0,
          "created_by_coinbase": false
        }
      ]
    },
    {
      "id": "CV-U-05",
      "op": "utxo_apply_basic",
      "expect_ok": false,
      "expect_err": "TX_ERR_VALUE_CONSERVATION",
      "height": 200,
      "block_timestamp": 1000,
      "tx_hex": "0100000000010000000000000001aeaeaeaeaeaeaeaeaeaeaeaeaeaeaeaeaeaeaeaeaeaeaeaeaeaeaeaeaeaeaeae000000000000000000016500000000000000000021010000000000000000000000000000000000000000000000000000000000000000000000000000",
      "utxos": [
        {
          "txid": "aeaeaeaeaeaeaeaeaeaeaeaeaeaeaeaeaeaeaeaeaeaeaeaeaeaeaeaeaeaeaeae",
          "vout": 0,
          "value": 100,
          "covenant_type": 0,
          "covenant_data": "010000000000000000000000000000000000000000000000000000000000000000",
          "creation_height": 0,
          "created_by_coinbase": false
        }
      ]
    },
    {
      "id": "CV-U-06",
      "op": "utxo_apply_basic",
      "expect_ok": true,
      "height": 200,
      "block_timestamp": 1000,
      "tx_hex": "0100000000010000000000000001afafafafafafafafafafafafafafafafafafafafafafafafafafafafafafafaf000000000000000000015a00000000000000000021010000000000000000000000000000000000000000000000000000000000000000000000000000",
      "utxos": [
        {
          "txid": "afafafafafafafafafafafafafafafafafafafafafafafafafafafafafafafaf",
          "vout": 0,
          "value": 100,
          "covenant_type": 0,
          "covenant_data": "010000000000000000000000000000000000000000000000000000000000000000",
          "creation_height": 0,
          "created_by_coinbase": false
        }
      ]
    },
    {
      "id": "CV-U-07",
      "op": "utxo_apply_basic",
      "expect_ok": false,
      "expect_err": "TX_ERR_TIMELOCK_NOT_MET",
      "height": 4419,
      "block_timestamp": 1000,
      "tx_hex": "0100000000010000000000000001b0b0b0b0b0b0b0b0b0b0b0b0b0b0b0b0b0b0b0b0b0b0b0b0b0b0b0b0b0b0b0b0000000000000000000015a00000000000000000021010000000000000000000000000000000000000000000000000000000000000000000000000000",
      "utxos": [
        {
          "txid": "b0b0b0b0b0b0b0b0b0b0b0b0b0b0b0b0b0b0b0b0b0b0b0b0b0b0b0b0b0b0b0b0",
          "vout": 0,
          "value": 100,
          "covenant_type": 257,
          "covenant_data": "1111111111111111111111111111111111111111111111111111111111111111e0100000000000000000000000000000002222222222222222222222222222222222222222222222222222222222222222",
          "creation_height": 100,
          "created_by_coinbase": false
        }
      ]
    },
    {
      "id": "CV-U-08",
      "op": "utxo_apply_basic",
      "expect_ok": true,
      "height": 4420,
      "block_timestamp": 1000,
      "tx_hex": "0100000000010000000000000001b1b1b1b1b1b1b1b1b1b1b1b1b1b1b1b1b1b1b1b1b1b1b1b1b1b1b1b1b1b1b1b1000000000000000000015a00000000000000000021010000000000000000000000000000000000000000000000000000000000000000000000000000",
      "utxos": [
        {
          "txid": "b1b1b1b1b1b1b1b1b1b1b1b1b1b1b1b1b1b1b1b1b1b1b1b1b1b1b1b1b1b1b1b1",
          "vout": 0,
          "value": 100,
          "covenant_type": 257,
          "covenant_data": "1111111111111111111111111111111111111111111111111111111111111111e0100000000000000000000000000000002222222222222222222222222222222222222222222222222222222222222222",
          "creation_height": 100,
          "created_by_coinbase": false
        }
      ]
    }
  ]
}
